:020000040000FA
:1000000018F09FE518F09FE518F09FE518F09FE5C0
:1000100018F09FE50000A0E120F11FE518F09FE532
:1000200058000000400000004400000048000000AC
:100030004C000000000000005000000054000000D0
:10004000FEFFFFEAFEFFFFEAFEFFFFEAFEFFFFEA18
:10005000FEFFFFEAFEFFFFEA4C009FE5DBF021E335
:1000600000D0A0E1000040E2D7F021E300D0A0E101
:10007000000040E2D1F021E300D0A0E1000040E226
:10008000D2F021E300D0A0E1010C40E2D3F021E363
:1000900000D0A0E1080040E210F021E300D0A0E190
:1000A00001AB4DE204009FE510FF2FE1E01F00408F
:1000B0008D020000F8B500F0B3F8364CA068AA260F
:1000C00080015525002803DA01202060E660E56004
:1000D00000F0A6F800202060E660E5602E4F386A48
:1000E00020210843386201E000F09AF8386A40069F
:1000F000FAD5284801278030C7600B206060AA2607
:10010000E660E56000F08CF82760E660E56000F0EE
:1001100087F8204805218030416001E000F080F838
:10012000A0684001FAD5A068A1684604760C0802D0
:10013000070E01E000F074F80B2E01D0002FF9D16A
:1001400003202060AA20E060E56001E000F068F88C
:10015000A0688001FAD5F8BC08BC18470D480321F7
:10016000803841600221016070470C480268FF211D
:100170000A430260C2690A43C2617047704710B502
:10018000FFF798FFFFF7EAFFFFF7EFFF10BC08BC8F
:100190001847000080C01FE080C11FE040C0FF3F43
:1001A00007502DE914009FE5001090E5011081E350
:1001B000001080E5110000EB0750BDE804F05EE29E
:1001C000004000E010B500F099FE10BC08BC1847D4
:1001D00010B500F09BFFF8E710B501F02BF8F4E73D
:1001E000034910B50020087001F09AF8EDE700000F
:1001F000100000400047000080BB00004433221183
:1002000019C08FE21CFF2FE110B5FFF7B8FFFFF711
:10021000D9FFFFF7E5FF00F06BFD10BC08BC1847E5
:10022000434842690121C903120401D5C1617047E5
:100230008161704770B43F4B00245D17022906D0DE
:10024000012912D1002814D0012812D015E000286D
:1002500001D0012809D1196A000149084900196231
:1002600035494018012A02D0846070BC704785600F
:10027000FBE7196A0126314319622D4940014018F4
:10028000012A01D00460F0E70560EEE770B50222B4
:1002900001210020FFF7CEFF254B18680121C9037B
:1002A000084318602020D861196881431960FFF75E
:1002B000B7FF224D0024FFF7B3FF641CAC42FADB0A
:1002C0001F4800681F49884202D05869800604D43C
:1002D000FFF79AFF70BC08BC184700F055FCF9E71F
:1002E000F0B419480023C36002244460032545612B
:1002F000164981611649174A1161174E242131614F
:1003000041140A6910273A430A61144AD3605460C1
:100310005561134C9461252272610A69202422439D
:100320000A61012141600F480360F0BC7047000082
:1003300000C0FF3F80C11FE0008002E0204E0000AF
:10034000004008E0CDAB0000004000E04F1200008C
:10035000A001000000F1FFFF00F2FFFF008000E0BD
:10036000983A000004000040491E084000D00120D7
:100370007047704710B4002202E0002B0BD0521CD3
:10038000835C8C5CA342F8D018062106000E090E8F
:10039000401A10BC70470020FBE7002230B4130065
:1003A00008E02500303D092D0BD80A256A43303A74
:1003B000A2185B1CC45C002CF3D100200A6030BC86
:1003C00070470120FBE770B50D00521E002114009C
:1003D000002829550DD13020541E28550DE0641EEB
:1003E0000A2101F09FF8092901D8303100E03731A6
:1003F0002955002C01D00028F1D1281970BC08BC67
:10040000184710B5FF4800224621FFF7E1FEFE48DD
:10041000FFF7E2FEFB4800224621FFF7D9FEFA492A
:10042000F848FFF7A7FF10BC08BC1847F0B50F004D
:1004300015001E000024002807D0FFF7AEFF00289B
:1004400003D00C20F0BC08BC1847692D0DD03868CB
:100450000421FFF789FF00280FD0642D07D00D2459
:10046000672D06D0682D06D02AE00020EAE7062492
:1004700026E0022424E0032422E0E4483968814293
:1004800005D3E34A8819904201D8012000E00020FA
:1004900001225203914206D33F228919520391420D
:1004A00001D8012100E00021662D02D0672D04D083
:1004B00006E0084304D10E2402E0002800D1042401
:1004C0002000BFE7D34A1047602803D02038000639
:1004D000000E704700207047F0B50300002600783A
:1004E00035009446FFF7F0FF0400401E2C284ED83C
:1004F0005B1C4AE0032C26DB1878FFF7E5FF82003F
:100500005878FFF7E1FF000902430A705878FFF7B7
:10051000DBFF02019878FFF7D7FF800802434A709B
:100520009878FFF7D1FF8201D878FFF7CDFF02431B
:100530001006000E88700F784A788019ED1CBA18E2
:100540001618C91C1FE0012C0DDB1878FFF7BCFF43
:1005500082005878FFF7B8FF000902431006000E2A
:100560006D1C86190870022C0DDB5878FFF7ACFF64
:1005700002019878FFF7A8FF800802431006000EDA
:100580006D1C861948701B1DE41E002CB2DC6046F1
:100590000560300056E7002803D020300006000E2A
:1005A000704760207047F0B5050010060026000E69
:1005B000FFF7F1FF0870491C27E0032A04DBAC7841
:1005C0006B782878A61929E0022A24D02B781C0001
:1005D0009E1928788008FFF7DEFF087028781F0929
:1005E0008007800EC019FFF7D6FF48701807800EED
:1005F000A309C018FFF7CFFF8870A006800EFFF791
:10060000CAFFC870091DED1CD21E002AD5DC0020CF
:100610000870300016E76B7828781C00C01886191F
:10062000D7E7F0B5774D85B09435A868019B642273
:1006300001A9FFF7FBFE04000ED16868019B672249
:100640006946FFF7F3FE0400042802D0022C02D012
:1006500002E00E2400E00D246F4870494068884293
:1006600004D16A490098884200D2132429680F22D5
:100670002000FFF7A8FEFFF7AFFD002C44D16E4627
:10068000C0CE00252C003CE05E48462103AAFFF7BF
:100690009FFD002838D1039800280DD059480099B3
:1006A000641C02AAFFF718FF45190099029809185F
:1006B00000910199081A0190142C02D00198002889
:1006C0001FD1002003904F48462103AAFFF780FD69
:1006D00003990029F7D0002816D14A4804A9FFF74A
:1006E0005CFE0498854204D147486E46C0CE0A3865
:1006F00003E045486946C0C1C01FFFF76DFD0024F7
:10070000250001980028BFDC05B09BE6F0B53D4D03
:1007100087B09435A868002364226946FFF786FEF7
:10072000040006D16868009B662202A9FFF77EFEDE
:10073000040029680F22FFF746FEFFF74DFD002C4D
:100740003BD100980025029F2E00049032E02D2C12
:1007500000DD2D242B4902982200FFF724FF4519C4
:100760002848FFF739FD002827D10298761C001988
:1007700002900098001B142E009001D0002819D17F
:1007800020490F222800FFF71EFEFFF725FD1D4818
:1007900000224621FFF71CFD00280ED11A491948F6
:1007A0000A39FFF7E7FD002809D004980297009066
:1007B00000263500009C002CC9DC07B042E60098FA
:1007C000029F0490F4E738B513480E4D0068943545
:1007D000002801D00F240EE06868002366226946D5
:1007E000FFF724FE040006D1A8680078542821D021
:1007F000412800D00C2469680F222000FFF7E3FD98
:100800000EE000002C0000407215000000020040C5
:10081000D81A0040F1FFFF7F0800004078563412DC
:10082000FFF7DAFC002C02D10098FFF7E3FC38BC9C
:1008300008BC18470098012108430090DBE738B551
:10084000F94C0023606869226946FFF7EFFD002834
:1008500008D1F64A0099914203D1F54A002111606E
:1008600000E0102061680F22FFF7ADFDFFF7B4FC38
:10087000DDE770B5EC4D00232E0014366868692260
:10088000311DFFF7D3FD2C002834002820600FD144
:100890002100A868002369220C39FFF7C7FD002852
:1008A000206005D13220306021003000FFF70AFEC1
:1008B000696820680F22FFF786FDFFF78DFC9DE534
:1008C000F8B5DB4FD84E3968706801290CD0350077
:1008D000143500236922291DFFF7A8FD2C001434CC
:1008E0000028206004D015E00F22010010002EE047
:1008F000CD49B068002369221C31FFF797FD00281D
:10090000206007D1C849F068002369222031FFF731
:100910008DFD2060C7497868884207D16868032147
:100920000903884202D2132020600DE020680028CD
:100930000AD133202860C048BB49006828312861AB
:1009400008001438FFF7BEFD716820680F22FFF71A
:100950003AFDFFF741FCF8BC08BC1847F8B5B44FA6
:10096000B14E3968706801290CD03400143400236A
:100970006922211DFFF75AFD250014350028286043
:1009800004D00BE00F22010010003BE0A649B06844
:10099000002369221C31FFF749FD2860A74A7868C7
:1009A0001321904202D0A64A904207D160680228E3
:1009B00002D1A0681B280CD0296018E09D4A904203
:1009C00007D16068022804D1A0681B2801D02960E3
:1009D00015E0286800280AD1342020609648924902
:1009E00000682831E06008001438FFF76BFD60688C
:1009F000022804D1A0681B2801D192487860716850
:100A000028680F22FFF7DFFCFFF7E6FBA3E770B5CE
:100A1000854D00232E00143668686922311DFFF7CA
:100A200005FD2C002834002820600FD12100A86883
:100A3000002369220C39FFF7F9FC0028206005D15A
:100A40003520306021003000FFF73CFD69682068E8
:100A50000F22FFF7B8FCFFF7BFFB206808281BD167
:100A6000734874494068884205D07449884202D06E
:100A70007349884202D100206060A06069686068A4
:100A80000F22FFF7A0FCFFF7A7FB6968A0680F2201
:100A9000FFF799FCFFF7A0FBB0E470B5624D0023AF
:100AA0002E00143668686922311DFFF7BFFC2C0048
:100AB00028340028206019D12100A8680023692269
:100AC0000C39FFF7B3FC002820600FD12100E86843
:100AD000002369220839FFF7A9FC0028206005D10E
:100AE0003820306021003000FFF7ECFC6968206896
:100AF0000F22FFF768FCFFF76FFB20680A2806D17A
:100B0000696860680F22FFF75EFCFFF765FB75E41C
:100B1000FFB58446624612780020099D0400030058
:100B2000002A03D00022AD1EAE4623E0002004B010
:100B300088E4039E451CB5421EDC6546AD5C202D55
:100B400008D0734506DA029E8700F6593555641CB5
:100B50005B1C0EE06546AD186D78202D01D1734504
:100B600007D1029B86009B5900251D55401C2C0077
:100B70002B00521C8A42DCDD401CD8E73249086158
:100B800070473149486170470120400300472648BB
:100B900010B53521143001600221416081600100EF
:100BA0001431FFF78FFC204828300068002800D05F
:100BB000012038E41C4810B53521143001600121B2
:100BC000890341602149816001001431FFF77AFCFB
:100BD000154828300068002800D0012023E41C4874
:100BE0000068800601D5012070470020704770B56D
:100BF0000D4C20680678FFF713FB20001430433EAD
:100C000005001435330000F0A1FC15636F666F28F2
:100C10006F692E3F6F6C6F6F606F256F6F2B6F0C5E
:100C20006F00FFF7FEFC4AE6C00000405A5A000081
:100C30000800004078563412F8010000214365870F
:100C4000658721434433221100F0FFFFFF4F00006E
:100C5000008002E0FFF75AFD31E6FFF7B4FD2EE613
:100C6000FFF7EDFD2BE636210160524908001438EC
:100C7000FFF728FC616828680F22FFF7A4FBFFF745
:100C8000ABFA616868681AE03721016049490800D9
:100C90001438FFF717FC616828680F22FFF793FBF1
:100CA000FFF79AFA686861680006000E0F22FFF7E6
:100CB0008AFBFFF791FA686861680004000E0F2252
:100CC000FFF781FBFFF788FAF9E5FFF7D2FDF6E5BC
:100CD000FFF7F6FDF3E5FFF741FEF0E5FFF797FEBE
:100CE000FEE7FFF7DAFEEAE50F2261680120E7E799
:100CF000314D012082B028602E48314F76380400F3
:100D00004E3420600F3060600F30A0600F30E06024
:100D10000F3020612948012600686860FFF780FADB
:100D200024484621BC3801AAFFF752FA0028F5D121
:100D30007A218200A258401C05281170F9DB1D4A57
:100D40000F20283A00901000019905239438FFF7EE
:100D5000DFFE0028E2D02168097852291ED04729F9
:100D60001CD04D291AD00022572919D0432917D059
:100D70000026144B6968994204D0B94202D0124B44
:100D8000994201D1012A0DD0B94202D00E4A9142B6
:100D900001D1012E06D0FFF72AFFBFE70122E8E7C5
:100DA0000126E6E761680F221320FFF70CFBFFF72F
:100DB00013FAB3E7E800004008000040FC0100001F
:100DC000214365877856341265872143FF2201321B
:100DD0001043F74A9062D162002005210904536B49
:100DE000DB0702D0401C8842F9D37047F049FF303E
:100DF00001308862012048620020052212044B6BFA
:100E0000DB0702D0401C9042F9D300204862086BF7
:100E10000004000C7047E74A91680888891C9160BB
:100E2000704710B50B00040006E0FFF7F4FF2080C8
:100E3000A41C9B1E1B041B0C012BF6D8002B02D0FC
:100E4000FFF7E9FF207010BC08BC184710B400225F
:100E5000835C8C5CA34202D0002010BC7047521C03
:100E6000062AF5DB0120F8E730B5D24D28780028B6
:100E700013D0D14C29001631A01DFFF7E7FF002841
:100E800008D0A08CA988884203D1608CE988884268
:100E900003D0002030BC08BC18470120FAE7C54A3F
:100EA000D1688B1C0880D360704730B50400C348FC
:100EB000491C01400D0004E02088A41CFFF7EFFF4F
:100EC000AD1E002DF8D1E5E710B400220EE0038836
:100ED000012901D11B061B0E1C061B04240C1B0E32
:100EE0001C43A218801C891E090409140029EEDC89
:100EF000100C8018C0430004000CAEE7F8B5B048F1
:100F000041680122920711434160AE48C16BAE4A6D
:100F1000AE48914201D1AE4900E0AE498160C1685E
:100F200009090901491DC160A14CCF2000022060C0
:100F3000A94D3820286064277F1EFDD10220206043
:100F400030206060A5486061A54820611226E660F7
:100F5000700128600121C9030020FFF737FFFFF768
:100F60005FF90020FFF742FF000404D501207F1C39
:100F700000058742F3D39B4820620020401C402894
:100F8000FCD3216A0120C0038143216200206062FA
:100F90000220FFF72BFF07000320FFF727FF874AF8
:100FA00039040E3A104001438F48814211D1032188
:100FB00009030020FFF70AFF0027FFF731F901209E
:100FC000FFF714FF800604D401207F1C0005874230
:100FD000F3D30027FFF724F91020FFF707FFC1071D
:100FE00004D101217F1C09048F42F3D341070AD5A4
:100FF00061680122114361602968920211432960EE
:101000001521A16000E0A660800701D5002001E065
:10101000FF200130A0616648744940300160744986
:1010200041607449816063480C21103001701D21BA
:101030004170E0218670C1701F2101711021417142
:101040006D4A00200100782343436C4E9E19C30073
:101050009F183E606A4E401C7E60674EC0369B19EA
:1010600099601928D960EED3AA606348C830E86057
:1010700018202861A961614F0020343F7822424343
:10108000604BD618C300DB191E6159618300DA1961
:10109000401C03289162F1D358482438E86157482E
:1010A0000C38286202206862A962574A202010602A
:1010B000444888224262414A521C826228680322C4
:1010C0001043286020680122104320603A4808221B
:1010D00078300273452241738273D822C1738274BF
:1010E000F422C27401754175802181751121C17589
:1010F000F8BC08BC184710B4002304E0CC5CC4540E
:101100005B1C1B041B149342F8DBA6E6F7B5070033
:101110000D00314E002417E03C482100641C814240
:1011200012DD0024FFF77CF839480121018039489D
:101130004169090604D5C26980210A43C26103E0FE
:101140008169802211438161B06971698842E3D06D
:10115000214886692849F000C0314118896849054D
:10116000490DC91E0C042449240C4018006811497B
:10117000886011482100FFF754FE761C192E00D11B
:1011800000261548866120002A38A84203DD280081
:101190002A300404240C08492A3C220412142A315F
:1011A0003800FFF7A8FF1A4800210180080037E047
:1011B0000000E0FF10000040FC000040FEFF0000C7
:1011C000C0C01FE0C00FE0FF0020023900C002E0F5
:1011D00005111550050115500001E0FFF205000052
:1011E0000F37000018800000905C00201F100000E6
:1011F00012E000000C1D00000000E07FB401E07F61
:10120000770000806C0DE07F0002E0FF400D0300DE
:101210000000004040C0FF3F3A5C0D2A08D0401C4F
:10122000A842F9D302990860FEBC08BC0020184708
:101230003954F7E7F0B5554C0021435C6218203271
:101240009372425C002A5DD0491C4629F5DB891C5B
:1012500008044F4E4F49000C70808D6A4E49EA00D9
:1012600051180A69F2604D4A801848614749474859
:1012700006227239FFF73FFF310006221031A01D10
:10128000FFF739FF708804221C3001020004000EB1
:10129000014321823D495E3908007C30FFF72BFF76
:1012A0003A4904225A3908007430FFF724FF00201D
:1012B0002083364814210E308446FFF705FE0702CE
:1012C00014216046FFF700FE0004000E07432F487C
:1012D00027837838408CA0842C487838808C6084B0
:1012E00070880100083002020004000E0243002052
:1012F000E284208525482A31FFF7D7FD6D1C032D98
:1013000007D007E060180D22203082720A22C272D4
:101310009DE700251F488562F0BC08BC01201847E6
:1013200030B51A4C1A4D783C89B0FEF779FF01218F
:1013300008AA6846FFF7EAFE684600783F28F4D11D
:10134000A08C0622A11DA880608CE8801048163071
:10135000FFF7D1FE1248FFF76DFF0F2108AA68467C
:10136000FFF7D4FE0E490D2204A8FFF7C4FE04A91E
:101370006846FEF7FFFF0028D7D10948C01EFFF7D7
:1013800059FF0120287009B084E500007401004075
:10139000100000400001E0FF8001E07F2A000040D3
:1013A00082150000013090E12100004A0020B0E3E6
:1013B000A03071E01A00003A203271E00F00003ACC
:1013C000203471E00100003A00C0A0E3200000EAF0
:1013D000A03371E0810340200220B2E0203371E0AD
:1013E000010340200220B2E0A03271E081024020DF
:1013F0000220B2E0203271E0010240200220B2E07F
:10140000A03171E0810140200220B2E0203171E082
:10141000010140200220B2E0A03071E081004020B4
:101420000220B2E0011050E00010A0310200A2E062
:101430001EFF2FE1022111E20010614240C032E0A4
:1014400000006022203271E01D00003A203471E07B
:101450000F00003A0113A0E1203471E03F2382E342
:101460000B00003A0113A0E1203471E03F2682E333
:101470000700003A0113A0E1203471E03F2982E324
:101480000113A0213F2C8223003071E21D00002AAD
:101490002113A021A03371E0810340200220B2E09B
:1014A000203371E0010340200220B2E0A03271E05D
:1014B000810240200220B2E0203271E0010240208F
:1014C0000220B2E0A03171E0810140200220B2E0B0
:1014D000203171E0010140200220B2E0EBFFFF2A41
:1014E000A03071E0810040200220B2E0011050E005
:1014F0000010A0310200A2E0CCCFB0E100006042B9
:10150000001061221EFF2FE1CCCFB0E1000060424D
:1015100001402DE90000B0E30000A0E10240BDE879
:101520001EFF2FE17847C0460020B0E3203171E074
:10153000B8FFFF3AA03271E0ADFFFF3A203471E00E
:10154000A2FFFF3A00C0A0E3C1FFFFEA7847C04610
:1015500001C05EE50C0053E10C30DE270330DE37BE
:1015600083C08EE01CFF2FE14F4B00524553454E88
:10157000440053796E6368726F6E697A6564004FD8
:101580004B0053796E6368726F6E697A6564000010
:10159000010000000000000000000000000000004A
:1015A000000000000000000000000000000000003B
:0C15B0000000000000000000000000002F
:0400000500000000F7
:00000001FF
