:020000040801F1
:1000000000000320591301081111010819110108FA
:100010002111010829110108311101080000000017
:10002000000000000000000000000000391101087D
:100030004711010800000000551101086311010873
:10004000A9130108A9130108A9130108A91301089C
:10005000A9130108A9130108A9130108A91301088C
:10006000A9130108A9130108A9130108A91301087C
:10007000A9130108A9130108A9130108A91301086C
:10008000A9130108A9130108A9130108A91301085C
:10009000A9130108A9130108A9130108A91301084C
:1000A000A9130108A9130108A9130108A91301083C
:1000B000A9130108A9130108A9130108A91301082C
:1000C000A9130108A9130108A9130108A91301081C
:1000D000A9130108A9130108A9130108A91301080C
:1000E000A9130108A9130108A91301087111010836
:1000F000A9130108A9130108A9130108A9130108EC
:10010000A9130108A9130108A9130108A9130108DB
:10011000A9130108A9130108A9130108A9130108CB
:10012000A9130108A9130108A9130108A9130108BB
:10013000A913010885110108A9130108A9130108D1
:10014000A9130108A9130108A9130108A91301089B
:10015000A9130108A9130108A9130108A91301088B
:10016000A9130108A9130108A9130108A91301087B
:10017000A9130108A9130108A91301080000000030
:10018000A9130108A9130108A9130108A91301085B
:10019000A9130108A9130108A9130108A91301084B
:0C01A0000000000000000000A91301088E
:1001B00010B5054C237833B9044B13B10448AFF3A1
:1001C00000800123237010BD6800002000000000A3
:1001D000D0B0010808B5034B1BB103490348AFF386
:1001E000008008BD000000006C000020D0B00108B5
:1001F00001F0FF01102A2BDB10F0070F08D010F8D8
:10020000013B013A8B422DD010F0070F42B3F6D1DB
:10021000F0B441EA012141EA014122F007047FF0F4
:1002200000070023F0E80256083C85EA010586EA4B
:10023000010685FA47F5A3FA87F586FA47F6A5FA87
:1002400087F68EB9EED1F0BC01F0FF0102F0070293
:1002500032B110F8013B013A83EA010313B1F8D13E
:100260000020704701387047002D06BF354603381F
:10027000073815F0010F07D1013015F4807F02BF58
:10028000013015F4C03F0130F0BC0138704700BFA9
:1002900053B94AB9002908BF00281CBF4FF0FF31ED
:1002A0004FF0FF3000F088B9ADF1080C6DE904CED5
:1002B00000F006F8DDF804E0DDE9022304B0704741
:1002C0002DE9F047089D8E4604468846002B4AD10A
:1002D0008A42174662D9B2FA82F64EB1C6F12003BD
:1002E00001FA06F820FA03F3B74043EA0808B440DD
:1002F0004FEA174E1FFA87FCB8FBFEF1230C0EFBEA
:10030000118843EA084301FB0CF29A4209D9FB1811
:1003100001F1FF3080F0EA809A4240F2E780023932
:100320003B449A1AA3B2B2FBFEF00EFB102243EA42
:10033000024300FB0CFC9C4509D9FB1800F1FF327D
:1003400080F0D6809C4540F2D3803B44023840EA9E
:100350000140A3EB0C0300211DB1F3400022C5E9CD
:100360000032BDE8F0878B4205D90DB1C5E9000127
:1003700000210846F5E7B3FA83F1002946D1734519
:1003800002D3824200F20581841A6EEB030201203F
:100390009046002DE5D0C5E90048E2E7002A00F0CC
:1003A0009080B2FA82F6002E40F0A4808A1A030CE4
:1003B0004FEA174E80B2BCB20121B2FBFEFC0EFB2D
:1003C0001C2243EA024304FB0CF29A4207D9FB18B1
:1003D0000CF1FF3802D29A4200F2E080C4469B1A28
:1003E000B3FBFEF20EFB123340EA034302FB04F4BC
:1003F0009C4207D9FB1802F1FF3002D29C4200F266
:10040000CA8002461B1B42EA0C40A5E7C1F1200648
:100410008B4022FA06F71F430EFA01F420FA06F386
:100420002EFA06FE4FEA1749234300FA01F81FFA95
:1004300087FCBEFBF9F01C0C09FB10EE44EA0E44ED
:1004400000FB0CFEA64502FA01F209D93C1900F1A5
:10045000FF3A80F09C80A64540F2998002383C44E7
:10046000A4EB0E041FFA83FEB4FBF9F309FB13445B
:100470004EEA044403FB0CFCA44508D93C1903F1E3
:10048000FF3E80F08280A4457FD9023B3C4443EA92
:100490000040A4EB0C04A0FB02EC64457346E1466B
:1004A00062D35FD05DB1B8EB030264EB090404FAD8
:1004B00006F622FA01F31E43CC40C5E90064002190
:1004C0004FE7B1FBF2FC010C41EA0E4180B240EA79
:1004D00001423B4638463C46B846BE462026B1FB64
:1004E000F7F1A2EB080241EA0C4166E7014618E782
:1004F00010462CE7C6F120022EFA02F3B740B140B5
:1005000020FA02F24FEA174E0A43B3FBFEF8BCB2E0
:100510000EFB1833110C41EA034108FB04F9B0400B
:1005200089454FEA104380B23ED9791808F1FF3C63
:1005300001D289451FD8A1EB0901B1FBFEF909FBE6
:1005400004F80EFB191192B242EA0142424529D247
:10055000BA1809F1FF31C4D24245C2D2A9F1020151
:100560003A44BEE7F0459DD2BEEB02036CEB070CAC
:100570000138E14696E7A7EB09094944A8F1020CC6
:10058000B1FBFEF909FB04F8DBE773467FE7504651
:1005900066E70846FDE63B44023A33E7ACF1020C5D
:1005A0003B441CE749469CE7A1EB0901C446B1FB6B
:1005B000FEF909FB04F8C4E7704700BF80B485B0BA
:1005C00000AF78600023FB607B68404A934206D20C
:1005D0007B68B3F1006F02D30023FB606FE07B68A0
:1005E0003B4A934206D27B68384A934202D30123A6
:1005F000FB6064E07B68374A934206D27B68344AEA
:10060000934202D30223FB6059E07B68324A934253
:1006100006D87B682F4A934202D30323FB604EE047
:100620007B682E4A934206D87B682B4A934202D9B4
:100630000423FB6043E07B68294A934206D87B6829
:10064000264A934202D90523FB6038E07B68254A9D
:10065000934206D87B68224A934202D90623FB6064
:100660002DE07B68204A934206D87B681D4A93425E
:1006700002D90723FB6022E07B681C4A934206D81C
:100680007B68194A934202D90823FB6017E07B6814
:10069000174A934206D87B68144A934202D9092329
:1006A000FB600CE07B68134A934206D87B68104AD3
:1006B000934202D90A23FB6001E00B23FB60FB6835
:1006C00018461437BD465DF8047B704700400008AB
:1006D0000080000800C00008FFFF0008FFFF0108BD
:1006E000FFFF0308FFFF0508FFFF0708FFFF0908DA
:1006F000FFFF0B08FFFF0D08B0B584B000AF7860B6
:1007000039600023BB6002F077FA02F0A7FA0023F9
:10071000FB6010E03B681B6800221C461546224621
:100720002B467968022002F013FA0346002B06D00C
:10073000FB680133FB60FB68092BEBDD00E000BFC9
:1007400002F0A8FA02F07AFA00BF18461037BD4648
:10075000B0BD000080B584B000AF7860396002F0B1
:100760004BFA02F07BFA7868FFF728FF03461A4A33
:1007700013603868FFF722FF0246174B1B68D31A35
:100780000133164A1360164B00221A60144B0222E2
:100790001A61114B1B68124A9360104B1B68104A78
:1007A000D3600023FB6009E00E490D4802F0C2FB54
:1007B0000346002B06D0FB680133FB60FB68092B66
:1007C000F2DD00E000BF02F065FA02F037FA00BF88
:1007D0001037BD4680BD00BF040101200801012083
:1007E000100101200C01012080B58CB000AFF86031
:1007F000B9607A603B607B685B683B623B6A03334D
:100800001B781A063B6A02331B781B041A443B6AA6
:1008100001331B781B0213443A6A12781344FB61BC
:100820003B6A07331B781A063B6A06331B781B04A6
:100830001A443B6A05331B781B0213443A6A04329C
:1008400012781344BB613B6A0B331B781A063B6A70
:100850000A331B781B041A443B6A09331B781B02BA
:1008600013443A6A0832127813443B61FB69B3F1CE
:10087000FF3F0BD1BB6901331946B869FFF76AFF27
:100880004B4B4C4A1A604C4B00221A60FB694B4A96
:1008900093420FD102F092FF494809F011FC494BF5
:1008A0001B684AF6CD32934202D1464B09221A60A8
:1008B00000F061FFFB69002B05D107F11003194619
:1008C000B869FFF719FFFB693F4A934238D100230B
:1008D000FB620023BB622FE0BB6A0B331A463B6A04
:1008E00013441B781A06BB6A0A3319463B6A0B4449
:1008F0001B781B041A44BB6A093319463B6A0B4434
:100900001B781B021344BA6A083211463A6A0A4439
:10091000127813443B61284B1B683A69284941F817
:100920002320254B1B680133234A1360BB6A043321
:10093000BB62FB6A0133FB62BB6AB3F5007FCBDBB2
:10094000FB69224A934223D100237B6210E07B6A39
:100950009B001A46164B1B681A447B6A9B00184979
:100960000B4419461046FFF7C7FE7B6A01337B62D2
:100970007A6A114B1B689A42E9D30F4B1B689A00A5
:100980000B4B1B6813440A4A13600B4B00221A607E
:100990003B6AFB75786806F041F8398FFA7D0823C9
:1009A000386800F015F800BF3037BD4680BD00BF85
:1009B000FC0001200000020800010120EFBEADDEB6
:1009C000D400002000400240A1ACAB1BA2ACAB2B7A
:1009D00080B586B000AFF8607A601A460B467B811E
:1009E00013463B813B894FF4C1721946362005F00E
:1009F00033FD78617B695B683A897968184609F04C
:100A000000FE174B1B687A89F968184606F054FFF8
:100A10000346FB7497F91330002B03D0FB7C5B4239
:100A2000DBB2FB740E4B18687B89FA68796906F0B3
:100A300005FD0346FB7497F91330002B03D0FB7CB4
:100A40005B42DBB2FB74786905F0E8FF044B1B687E
:100A5000184606F09FFF00BF1837BD4680BD00BF97
:100A60002801012080B582B000AF07F01DF8786042
:100A700007F01AF80346134A13607B68002B1AD05C
:100A8000114B1B6B9BB21A461049786806F08CFE1E
:100A90000346FB7097F90330002B05D100220C4967
:100AA000786806F09FFF09E0786806F0BBFF094808
:100AB00009F0BCFC02E0084809F0B8FC00BF0837A8
:100AC000BD4680BD28010120FF490240F4C601084F
:100AD000E9070108E8B00108FCB0010880B500AFE3
:100AE000214B1B6B204A23F0400313631E4B1B6BEF
:100AF0001D4A23F0080313631B4B1B6B1A4A23F098
:100B000002031363184B1B6B174A23F00103136393
:100B1000154B1B6B144A23F080031363124B1B6BA2
:100B2000114A23F0040313632021104802F0EEFC65
:100B300008210E4802F0EAFC10210C4802F0E6FC05
:100B400010210B4802F0E2FC4FF48071094802F0DA
:100B5000DDFC2021074802F0D9FC4FF40051064883
:100B600002F0D4FC00BF80BD0038024000100240FB
:100B700000200240000402400008024080B500AF9F
:100B8000FFF7ACFF03F09EFA00F032FC054B0022A9
:100B90001A60044B00225A60024B00229A6000BF88
:100BA00080BD00BF10E000E080B584B000AF786089
:100BB0007B68FB60FFF7E2FFFB681B68FA6852681E
:100BC00083F30888104700BF1037BD4680BD000082
:100BD00080B582B000AF78607B680B4A93420ED13B
:100BE0000A4B1B680133094A1360084B1B68B3F5B5
:100BF000487F04D84FF40051054802F0C4FD00BFFF
:100C00000837BD4680BD00BF8C00002024010120B4
:100C10000008024080B582B000AF00F0C7FB00F0D2
:100C20007DF800F035F900F0F9F8354803F0B8FB2D
:100C300000237B60334B1B6B324A43F480231363E6
:100C4000304B1B6B03F480237B607B6808212E48AC
:100C500002F068FD0346002B05D02C4B1B684AF6BA
:100C6000CD32934241D100F0C5F803F04FFFFFF7BA
:100C7000F9FE234803F06DFB00224FF40051244895
:100C800002F068FD01224FF40051214802F062FD9C
:100C9000012280211F4802F05DFD012240211C48F5
:100CA00002F058FD322000F027FC04F0B1F80022D9
:100CB0008021184802F04EFD00224021144802F025
:100CC00049FD322000F018FC04F0A2F820210E4863
:100CD00002F028FD0346002BCED102F06FFD0B4B36
:100CE00009221A6000F047FDC6E7054803F031FB12
:100CF000FFF7F4FE0848FFF757FF00BFFDE700BF0E
:100D00008C000020003802400010024000400240E9
:100D100000080240000C02400000020880B594B0B8
:100D200000AF07F1200330220021184609F0E3FB51
:100D300007F10C0300221A605A609A60DA601A61A7
:100D40000023BB60294B1B6C284A43F0805313647B
:100D5000264B1B6C03F08053BB60BB6800237B6099
:100D6000234B1B6823F44043214A43F48043136020
:100D70001F4B1B6803F440437B607B6802233B628C
:100D80000123FB6210233B630223BB630023FB634D
:100D900008233B6478237B640223BB640423FB6445
:100DA00007F12003184602F01DFD0346002B01D079
:100DB00000F036F90F23FB6002233B6100237B61C7
:100DC0004FF4A053BB614FF48053FB6107F10C0358
:100DD0000321184602F07EFF0346002B01D000F0ED
:100DE0001FF900BF5037BD4680BD00BF003802402C
:100DF0000070004080B500AF064B074A1A600548F6
:100E000000F0C9FC0346002B01D000F009F900BF37
:100E100080BD00BF840000200030024080B584B057
:100E200000AF3B4600221A605A609A60DA60164BA7
:100E3000164A1A60144B42F20F725A60124B00228B
:100E40009A60114B5A22DA600F4B00221A610E4B46
:100E500000229A610C4803F02DFA0346002B01D0C2
:100E600000F0DEF84FF480533B603B4619460648DD
:100E700003F00EFC0346002B01D000F0D1F800BFB8
:100E80001037BD4680BD00BF8C0000200018004018
:100E900080B58CB000AF07F11C0300221A605A60C5
:100EA0009A60DA601A610023BB61574B1B6B564A8C
:100EB00043F008031363544B1B6B03F00803BB613F
:100EC000BB6900237B61504B1B6B4F4A43F001030E
:100ED00013634D4B1B6B03F001037B617B690023A4
:100EE0003B61494B1B6B484A43F480731363464B89
:100EF0001B6B03F480733B613B690023FB60424B37
:100F00001B6B414A43F0100313633F4B1B6B03F011
:100F10001003FB60FB680023BB603B4B1B6B3A4A32
:100F200043F002031363384B1B6B03F00203BB60F7
:100F3000BB6800237B60344B1B6B334A43F00403D4
:100F40001363314B1B6B03F004037B607B6800224F
:100F500080212E4802F0FEFB00224FF401512C4864
:100F600002F0F8FB8023FB6101233B6200237B62DC
:100F70000023BB6207F11C031946244802F01AF94A
:100F80001023FB6100233B6200237B6207F11C03FB
:100F90001946204802F00EF92823FB6100233B622A
:100FA00001237B6207F11C0319461B4802F002F97A
:100FB0001023FB6100233B6200237B6207F11C03CB
:100FC0001946154802F0F6F84FF49073FB610023C0
:100FD0003B6200237B6207F11C0319460F4802F0B5
:100FE000E9F84FF40153FB6101233B6200237B626C
:100FF0000023BB6207F11C031946054802F0DAF82A
:1010000000BF3037BD4680BD00380240000C0240B2
:10101000000802400020024000100240000402408C
:1010200080B400AF72B600BF00BFFDE780B483B0EC
:1010300000AF00237B60104B5B6C0F4A43F480438E
:1010400053640D4B5B6C03F480437B607B6800232F
:101050003B60094B1B6C084A43F080531364064BFA
:101060001B6C03F080533B603B6800BF0C37BD46F0
:101070005DF8047B704700BF0038024080B485B043
:1010800000AF78607B681B680B4A93420DD1002348
:10109000FB600A4B1B6B094A43F480531363074BF5
:1010A0001B6B03F48053FB60FB6800BF1437BD4625
:1010B0005DF8047B704700BF0030024000380240FA
:1010C00080B584B000AF78607B681B680E4A93429D
:1010D00015D10023FB600D4B1B6C0C4A43F0400301
:1010E00013640A4B1B6C03F04003FB60FB68002297
:1010F00000212B2000F015FB2B2000F02EFB00BF61
:101100001037BD4680BD00BF0018004000380240C7
:1011100080B400AF00BFFDE780B400AF00BFFDE7C3
:1011200080B400AF00BFFDE780B400AF00BFFDE7B3
:1011300080B400AF00BFFDE780B400AF00BFBD4684
:101140005DF8047B704780B400AF00BFBD465DF81A
:10115000047B704780B400AF00BFBD465DF8047BE0
:10116000704780B500AF00F0A7F900BF80BD000058
:1011700080B500AF024803F083F900BF80BD00BF17
:101180008C00002080B500AF024800F00BFF00BFCC
:1011900080BD00BF4032012080B400AF012318465B
:1011A000BD465DF8047B704780B483B000AF7860C3
:1011B0003960054B16221A604FF0FF3318460C3782
:1011C000BD465DF8047B70470465012080B582B0A0
:1011D00000AF78604FF0FF317868FFF7E5FF00BFA0
:1011E000FDE780B586B000AFF860B9607A60002393
:1011F0007B610AE0AFF300800146BB685A1CBA600D
:10120000CAB21A707B6901337B617A697B689A4242
:10121000F0DB7B6818461837BD4680BD80B586B0C8
:1012200000AFF860B9607A6000237B6109E0BB68B9
:101230005A1CBA601B781846AFF300807B690133F3
:101240007B617A697B689A42F1DB7B6818461837C4
:10125000BD4680BD80B483B000AF78604FF0FF33EF
:1012600018460C37BD465DF8047B704780B483B0E8
:1012700000AF786039603B684FF400525A60002339
:1012800018460C37BD465DF8047B704780B483B0C8
:1012900000AF7860012318460C37BD465DF8047B2B
:1012A000704780B485B000AFF860B9607A60002301
:1012B00018461437BD465DF8047B704780B487B08C
:1012C00000AF7860144A154BD31A7B617B693B6190
:1012D000134B1B68002B02D1114B124A1A60104BA2
:1012E0001A687B6813443A699A4205D20E4B0C2265
:1012F0001A604FF0FF3309E0094B1B68FB60084B95
:101300001A687B681344064A1360FB6818461C374A
:10131000BD465DF8047B7047000003200006000016
:101320002C010120106501200465012080B400AF6C
:10133000074BD3F88830064A43F47003C2F888306C
:10134000034B044A9A6000BFBD465DF8047B7047BA
:1013500000ED00E000000108DFF834D00D480E4930
:101360000E4A002302E0D458C4500433C4188C42FF
:10137000F9D30B4A0B4C002301E013600432A24264
:10138000FBD3FFF7D3FF09F015F9FFF743FC7047D4
:10139000000003200000002068000020F4C70108BE
:1013A000680000200C650120FEE7000080B500AF5A
:1013B0000E4B1B680D4A43F4007313600B4B1B6804
:1013C0000A4A43F480631360084B1B68074A43F4DE
:1013D00080731360032000F099F90F2000F03CF8AF
:1013E000FFF724FE0023184680BD00BF003C0240EA
:1013F00080B500AF134B4FF0FF321A62114B002241
:101400001A62104B4FF0FF325A620E4B00225A62A2
:101410000C4B4FF0FF321A610A4B00221A61094B44
:101420004FF0FF325A61074B00225A61054B4FF0D3
:10143000FF329A61034B00229A6100F005F8002305
:10144000184680BD0038024080B400AF00BFBD46E2
:101450005DF8047B7047000080B582B000AF786013
:10146000124B1A68124B1B7819464FF47A73B3FB70
:10147000F1F3B2FBF3F3184600F081F90346002BB9
:1014800001D001230EE07B680F2B0AD80022796877
:101490004FF0FF3000F045F9064A7B6813600023E7
:1014A00000E0012318460837BD4680BD000000203B
:1014B000080000200400002080B400AF064B1B7819
:1014C0001A46064B1B681344044A136000BFBD460E
:1014D0005DF8047B704700BF080000203001012048
:1014E00080B400AF034B1B681846BD465DF8047B13
:1014F000704700BF3001012080B584B000AF786034
:10150000FFF7EEFFB8607B68FB60FB68B3F1FF3F5D
:1015100005D00A4B1B781A46FB681344FB6000BFDA
:10152000FFF7DEFF0246BB68D31AFA689A42F7D883
:1015300000BF00BF1037BD4680BD00BF08000020BF
:1015400080B485B000AF78607B6803F00703FB6070
:101550000C4BDB68BB60BA684FF6FF031340BB60FF
:10156000FB681A02BB68134343F0BF6343F40033C4
:10157000BB60044ABB68D36000BF1437BD465DF84A
:10158000047B704700ED00E080B400AF044BDB68E3
:101590001B0A03F007031846BD465DF8047B70473D
:1015A00000ED00E080B483B000AF0346FB7197F913
:1015B0000730002B0BDBFB7903F01F02074997F97B
:1015C00007305B09012000FA02F241F8232000BF36
:1015D0000C37BD465DF8047B704700BF00E100E0BA
:1015E00080B483B000AF03463960FB7197F90730D0
:1015F000002B0ADB3B68DAB20C4997F9073012017D
:10160000D2B20B4483F800230AE03B68DAB20849FF
:10161000FB7903F00F03043B1201D2B20B441A769C
:1016200000BF0C37BD465DF8047B704700E100E069
:1016300000ED00E080B489B000AFF860B9607A6076
:10164000FB6803F00703FB61FB69C3F10703042B8D
:1016500028BF0423BB61FB690433062B02D9FB6955
:10166000033B00E000237B614FF0FF32BB6902FACD
:1016700003F3DA43BB681A407B699A404FF0FF31AD
:101680007B6901FA03F3D9437B680B401343184687
:101690002437BD465DF8047B7047000080B400AF7E
:1016A000BFF34F8F00BF064BDB6803F4E0620449D1
:1016B000044B1343CB60BFF34F8F00BF00BFFDE768
:1016C00000ED00E00400FA0580B582B000AF78605C
:1016D0007B68013BB3F1807F01D301230FE00A4A0D
:1016E0007B68013B53600F214FF0FF30FFF778FF1D
:1016F000054B00229A60044B07221A60002318460B
:101700000837BD4680BD00BF10E000E080B582B064
:1017100000AF78607868FFF713FF00BF0837BD4659
:1017200080BD80B586B000AF0346B9607A60FB73B8
:1017300000237B61FFF728FF78617A68B9687869D0
:10174000FFF778FF024697F90F3011461846FFF76A
:1017500047FF00BF1837BD4680BD80B582B000AFDF
:101760000346FB7197F907301846FFF71BFF00BFD0
:101770000837BD4680BD80B500AFFFF78FFF80B54D
:1017800082B000AF78607868FFF79EFF0346184686
:101790000837BD4680BD80B582B000AF78607B68F9
:1017A000002B01D101230EE07B685B79DBB2002BBB
:1017B00005D17B6800221A717868FFF75FFC7B68AF
:1017C00001225A71002318460837BD4680BD00002B
:1017D00080B588B000AF78600023FB610023FB6018
:1017E000A24BBB6100237B6100233B617B68002B24
:1017F00001D1012390E17B6893F84430DBB2002BE8
:1018000011D17B68002283F84520786801F086F9C1
:101810007B685B6D002B02D17B68954A5A657B68BB
:101820005B6D786898470023BB60924B5B6C914A74
:1018300043F4804353648F4B5B6C03F48043BB6081
:10184000BB688D4B5B688C4A23F4000353608A4B62
:101850005A687B681B6A884913434B607B681B6826
:1018600003F580531B687A68126843F0010302F5A0
:1018700080521360FFF734FE786111E0FFF730FE0D
:1018800002467B69D31AB3F5FA7F09D97B68032234
:1018900083F844207B68002283F8452003233BE142
:1018A0007B681B6803F580531B6803F00103002B62
:1018B000E4D17B681B681B69FB61FB6923F01C0397
:1018C000FB6102F0F3FBB861BB696C4A934208D933
:1018D000BB696B4A934204D8FB6943F00803FB6180
:1018E00027E0BB69664A934208D9BB695F4A9342C5
:1018F00004D2FB6943F00C03FB611AE0BB695B4A4D
:10190000934203D3BB695F4A934211D9BB695D4AD5
:10191000934208D9BB695C4A934204D8FB6943F0FF
:101920000403FB6105E0FB6943F01003FB6100E089
:1019300000BF7B681B68FA691A614FF400420021FE
:10194000786800F01CFC0346002B0BD001233B61A0
:101950003969786800F0D2FD7B68012283F8442061
:101960000123D9E0FF20FFF7C7FD7B685B68002BF0
:1019700000F0A780FFF7B4FD786107F10C031A4669
:101980000121786800F093FBFFF7AAFD02467B690E
:10199000D31A41F2883293420FD901233B6139694E
:1019A000786800F0ABFD7B68012283F844207B68F7
:1019B000002283F845200323AEE0FB6803F0040314
:1019C000002BDAD04FF480520021786800F0D7FB6A
:1019D0000346002B0BD001233B613969786800F086
:1019E0008DFD7B68012283F84420012394E0FFF7FA
:1019F00077FD786107F10C031A460121786800F041
:101A000056FBFFF76DFD02467B69D31A41F288321F
:101A100093420FD901233B613969786800F06EFD6C
:101A20007B68012283F844207B68002283F84520EC
:101A3000032371E0FB6803F02003002BDAD007F1E9
:101A40000C031A461021786800F031FB0346002B86
:101A50001CD001233B613969786800F04FFD7B6839
:101A6000012283F84420012356E000BF008793033E
:101A7000294E01080038024000380140FF2C310196
:101A8000BF0E1602FFE0F5057FD1F008FB6803F0FA
:101A90000403002B04D07B684FF40062DA6002E09C
:101AA0007B680022DA60FB6803F00203002B03D09E
:101AB0007B6800229A6026E07B684FF480429A603F
:101AC00021E07B68DB68DB089AB27B689B685B0877
:101AD0009BB213439BB21A460021786800F04FFB7B
:101AE0000346002B0BD001233B613969786800F075
:101AF00005FD7B68012283F8442001230CE040F6B9
:101B0000FF70FFF7F9FC3969786800F0F7FC7B6833
:101B1000012283F84420002318462037BD4680BDAB
:101B200080B487B000AFF860B9607A603B60002392
:101B30007B61FB6893F84530012B01D1022351E012
:101B4000FB68012283F84520FB68022283F84420C9
:101B5000FB68BA68DA6200237B6130E07B695B0175
:101B6000BA6813443B613B694FF480121A607B6989
:101B700040F2F45202FB03F37A6813441A463B69BD
:101B80009A60FB68DB69002B05D13B691B6843F455
:101B900040023B691A603B68013B7A699A4208D26D
:101BA0007B6901335B01BA6813441A463B69DA600A
:101BB00002E0BA683B69DA607B6901337B617A696C
:101BC0003B689A42CAD3FB681A68BB6802F5805228
:101BD0001361FB68012283F84420FB68002283F82C
:101BE0004520002318461C37BD465DF8047B70472E
:101BF00080B487B000AFF860B9607A603B600023C2
:101C00007B61FB6893F84530012B01D1022355E03D
:101C1000FB68012283F84520FB68022283F84420F8
:101C2000FB68BA689A6200237B6134E07B695B01E0
:101C3000BA6813443B613B694FF000421A603B694C
:101C400044F2F4525A607B6940F2F45202FB03F30F
:101C50007A6813441A463B699A60FB689B69012BBA
:101C600005D13B695B6823F000423B695A603B68E1
:101C7000013B7A699A4208D27B6901335B01BA68F9
:101C800013441A463B69DA6002E0BA683B69DA60DD
:101C90007B6901337B617A693B689A42C6D3FB68F2
:101CA0001A68BB6802F58052D360FB68012283F892
:101CB0004420FB68002283F84520002318461C3787
:101CC000BD465DF8047B704780B487B000AF786094
:101CD000396000237B610023FB6000233B617B684C
:101CE00093F84530012B01D10223CCE07B6801221F
:101CF00083F845207B68022283F844203B68002B50
:101D000009D17B68012283F844207B68002283F894
:101D100045200123B7E07B68DB6A1B68002B09DAEA
:101D20007B68122283F844207B68002283F84520D8
:101D30000123A8E03B6840F2F452934215D93B6876
:101D4000544AA2FB03239B0A7B613A68514BA3FBD5
:101D500002139B0A40F2F45101FB03F3D31A002B48
:101D600005D07B6901337B6101E001237B617B69E5
:101D7000012B1CD17B68DB6A1A687B68DB6A42F046
:101D800040521A607B68DB6A3A68C2F30C025A6000
:101D90007B68DB6A1A687B68DB6A42F000421A6083
:101DA0007B68DB6ADB681A467B68DA624BE00023FB
:101DB0003B6144E07B68DB6A1A687B68DB6A22F07F
:101DC00040521A603B69002B07D17B68DB6A1A68B6
:101DD0007B68DB6A42F080521A607B68DB6A40F203
:101DE000F4525A607B69013B3A699A4216D17B688A
:101DF000DB6A1A687B68DB6A42F000521A607B6912
:101E0000254A03FB02F23B68134403F2F453FB60E0
:101E10007B68DB6AFA68C2F30C025A607B68DB6A93
:101E20001A687B68DB6A42F000421A607B68DB6AF2
:101E3000DB681A467B68DA623B6901333B613A69C9
:101E40007B699A42B6D37B681B6803F580535B6954
:101E500003F00403002B0DD07B681B6803F580534F
:101E60001A46042353617B681B6803F580531A46A6
:101E7000002353607B68012283F844207B680022A2
:101E800083F84520002318461C37BD465DF8047BC7
:101E9000704700BF0BB002AC0CFAFFFF80B485B0F6
:101EA00000AF78600023FB607B6893F84530012B1E
:101EB00001D1022370E07B68012283F845207B6812
:101EC000022283F844207B689B6A1B68002B5ADB44
:101ED0007B689B6A1B6803F48073002B30D07B689F
:101EE0009B6B5A1C7B689A637B689B6B012B03D1AD
:101EF0007B689A6A7B681A637B689A6A7B685A6314
:101F00007B689B6A1B681B0CC3F30D03043BFB60DF
:101F10007B68FA68DA637B681B6B9A687B681A6473
:101F20007B689B6ADB681A467B689A627B68012241
:101F300083F844207B68002283F8452000232BE0AF
:101F40007B689B6A1B6803F40073002B10D07B68CE
:101F50009A6A7B681A637B6800225A637B68012255
:101F60009A637B689B6ADB681A467B689A620AE020
:101F70007B689B6B5A1C7B689A637B689B6ADB68F7
:101F80001A467B689A627B68012283F844207B684A
:101F9000002283F84520012318461437BD465DF81A
:101FA000047B704780B582B000AF78607B681B68A7
:101FB00003F580535B6903F04003402B13D17B682A
:101FC000DB6C786898477B681B6803F580531A467A
:101FD000402353617B68012283F844207B68002200
:101FE00083F845201BE07B681B6803F580535B6921
:101FF00003F00103012B12D17B689B6C7868984732
:102000007B681B6803F580531A46012353617B6884
:10201000012283F844207B68002283F845207B68F6
:102020001B6803F580531A464FF4803353617B6875
:102030001B6803F580535B6903F40043B3F5004F5D
:1020400013D17B681B6D786898477B681B6803F524
:1020500080531A464FF4004353617B68012283F892
:1020600044207B68002283F8452000BF0837BD4626
:1020700080BD80B483B000AF786000BF0C37BD4630
:102080005DF8047B704780B483B000AF786000BF18
:102090000C37BD465DF8047B704780B483B000AF59
:1020A000786000BF0C37BD465DF8047B704780B593
:1020B00086B000AFF8600B467A607B8100237B61BD
:1020C00000233B61FB6893F84430DBB2822B01D1E3
:1020D000022350E0FB68822283F84420FB681B68DF
:1020E0001B697B617B6903F01C037B61FB681B8AB6
:1020F000DB029BB27A6913437B617B899B0103F40A
:10210000F8637A6913437B617B6923F002037B6187
:102110007B6943F001037B61FB681B687A691A6184
:10212000FFF7DEF9386115E0FFF7DAF902463B699F
:10213000D31AB3F5803F09D3FB68012283F844200A
:10214000FB68002283F84520032314E0FB681B682A
:102150001B697B617B6903F00103002BE4D1FB6801
:102160001B685B699BB21A467B681A60FB68012298
:1021700083F84420002318461837BD4680BD80B53B
:1021800086B000AFF8600B467A607B8100237B61EC
:1021900000233B61FB6893F84430DBB2422B01D152
:1021A00002234EE0FB68422283F84420FB681B6850
:1021B0001B697B617B6903F01C037B61FB681B8AE5
:1021C000DB029BB27A6913437B617B899B0103F439
:1021D000F8637A6913437B617B6943F002037B6197
:1021E0007B6943F001037B617B689AB2FB681B68E3
:1021F0005A61FB681B687A691A61FFF771F93861E7
:1022000015E0FFF76DF902463B69D31AB3F5803F3D
:1022100009D3FB68012283F84420FB68002283F87D
:10222000452003230DE0FB681B681B697B617B690C
:1022300003F00103002BE4D1FB68012283F8442062
:10224000002318461837BD4680BD80B582B000AF68
:1022500078607B6893F84530012B01D102231FE0A1
:102260007B68012283F845207B68022283F84420A2
:10227000786800F041FB786800F078FB786800F03F
:1022800007FC786800F0ACFB786800F0D5FB7B6851
:10229000012283F844207B68002283F84520002334
:1022A00018460837BD4680BD80B582B000AF786063
:1022B0007B6893F84530012B01D102231FE07B6836
:1022C000012283F845207B68022283F84420786845
:1022D00000F09CFB786800F0C5FB786800F063FBB9
:1022E000786800F0D5FB786800F023FB7B6801225A
:1022F00083F844207B68002283F845200023184699
:102300000837BD4680BD000080B584B000AF78605E
:1023100039600023FB607B6893F84530012B01D1C5
:102320000223E4E07B68012283F845207B680222D7
:1023300083F844203B68002B00F0B1807B681B6869
:102340001B68FB60FA686C4B1340FB603B681A68C3
:102350003B685B681A433B689B681A433B68DB68D1
:102360001A437B689B681A433B681B691A433B68A6
:102370005B691A437B68DB681A433B689B691A43B5
:102380003B68DB691A433B681B6A1A433B685B6A1C
:102390001A433B689B6A1343FA681343FB607B68EC
:1023A0001B68FA681A607B681B681B68FB60012069
:1023B000FFF7A2F87B681B68FA681A603B68DA6A64
:1023C0003B681B6B1A433B685B6B1A433B689B6B18
:1023D0001A433B68DB6B1A433B681B6C1A433B6830
:1023E0005B6C42EA03013B689A6C7B681B680A439A
:1023F0005A607B681B685B68FB600120FFF77CF814
:102400007B681B68FA685A607B681B683A68D26C04
:102410009A607B681B683A68126DDA607B681B689B
:102420009B69FB60FA684FF641731340FB603B68A1
:102430005B6D1A043B689B6D1A433B68DB6D1A4366
:102440003B681B6E1A433B685B6E1A433B689B6E8E
:102450001343FA681343FB607B681B68FA689A6150
:102460007B681B689B69FB600120FFF745F87B6870
:102470001B68FA689A613B68D96E3B681A6F7B6883
:102480001B680A43DA617B681B68DB69FB6001201B
:10249000FFF732F87B681B68FA68DA611EE07B6838
:1024A0001B681B68FB60FB6823F49043FB607B6840
:1024B0009A687B68DB681343FA681343FB607B68A8
:1024C0001B68FA681A607B681B681B68FB60012048
:1024D000FFF712F87B681B68FA681A607B680122B4
:1024E00083F844207B68002283F8452000231846A7
:1024F0001037BD4680BD00BF0F8120FF80B5B0B052
:1025000000AF786039600023C7F8BC303B68002B0F
:1025100007D07B684FF40062DA607B684FF480423A
:102520009A600023BB640023FB6400233B65002307
:102530007B650023BB650023FB657B68DB69002BA3
:1025400003D14FF480633B6601E000233B664FF408
:1025500000737B660023BB660023FB6600233B679A
:1025600000237B670023BB674023FB670023C7F87A
:1025700080300023C7F884300023C7F88830002358
:10258000C7F88C300023C7F890300023C7F8943088
:102590000023C7F898300023C7F89C308023C7F881
:1025A000A0300023C7F8A4300023C7F8A8300023C8
:1025B000C7F8AC300023C7F8B0300023C7F8B430F8
:1025C0000023C7F8B8307B681B681B68C7F8BC30AD
:1025D000D7F8BC20AA4B1340C7F8BC30BA6CFB6CD0
:1025E0001A433B6D1A437B6D1A437B689B681A4301
:1025F000BB6D1A43FB6D1A437B68DB681A433B6E65
:102600001A437B6E1A43BB6E1A43FB6E1A433B6F31
:102610001343D7F8BC201343C7F8BC307B681B6852
:10262000D7F8BC201A607B681B681B68C7F8BC30F1
:102630000120FEF761FF7B681B68D7F8BC201A6099
:102640007A6FBB6F1A43FB6F1A43D7F880301A4377
:10265000D7F884301A43D7F888301A43D7F88C302B
:1026600042EA0301D7F890207B681B680A435A604E
:102670007B681B685B68C7F8BC300120FEF73CFF35
:102680007B681B68D7F8BC205A607B681B68D7F84A
:1026900094209A607B681B68D7F89820DA607B6882
:1026A0001B689B69C7F8BC30D7F8BC204FF6417354
:1026B0001340C7F8BC30D7F89C301A04D7F8A030C4
:1026C0001A43D7F8A4301A43D7F8A8301A43D7F8DA
:1026D000AC301A43D7F8B0301343D7F8BC201343BB
:1026E000C7F8BC307B681B68D7F8BC209A617B6850
:1026F0001B689B69C7F8BC300120FEF7FDFE7B68B4
:102700001B68D7F8BC209A61D7F8B410D7F8B82066
:102710007B681B680A43DA617B681B68DB69C7F862
:10272000BC300120FEF7E8FE7B681B68D7F8BC20B0
:10273000DA610023BB604FF00073FB6000233B6154
:102740004FF400137B610023BB610023FB61002376
:102750003B6200237B620423BB624FF00073FB6289
:102760004FF480333B634FF480037B634FF400539B
:10277000BB638023FB6300233B6400237B647B6893
:102780001B6803F580539B69C7F8BC30D7F8BC20A1
:102790003C4B1340C7F8BC30BA68FB681A433B692E
:1027A0001A437B691A43BB691A43FB691A433B6AA4
:1027B0001A437B6A1A43BB6A1343D7F8BC201343FE
:1027C000C7F8BC307B681B6803F580531A46D7F8FE
:1027D000BC3093617B681B6803F580539B69C7F825
:1027E000BC300120FEF788FE7B681B6803F5805330
:1027F0001A46D7F8BC309361FA6A3B6B1A437B6B7D
:102800001A43BB6B1A43FB6B1A433B6C9B001A4386
:102810007B6C13437A68126843F4000302F580521C
:1028200013607B681B6803F580531B68C7F8BC30D6
:102830000120FEF761FE7B681B6803F580531A4692
:10284000D7F8BC3013607B689B69012B0DD17B6886
:102850001B6803F58053DB697A68126843F48033A0
:1028600043F0400302F58052D3617B685B691A46EE
:102870000021786800F008F800BFC037BD4680BD71
:102880000F8120FF233FDEF880B487B000AFF860EF
:10289000B9607A607B6805331B781B027A68043262
:1028A000127813437B61BA68114B13441A467B6953
:1028B00013607B6803331B781A067B6802331B782E
:1028C0001B041A437B6801331B781B0213437A688D
:1028D000127813437B61BA68064B13441A467B692E
:1028E000136000BF1C37BD465DF8047B704700BF16
:1028F000408002404480024080B584B000AF7860E0
:102900000023FB607B681B681A687B681B6842F0C9
:1029100008021A607B681B681B68FB60012000F0DE
:10292000DDF87B681B68FA681A6000BF1037BD4687
:1029300080BD80B584B000AF78600023FB607B6809
:102940001B681A687B681B6822F008021A607B68A3
:102950001B681B68FB60012000F0C0F87B681B68E7
:10296000FA681A6000BF1037BD4680BD80B584B0DC
:1029700000AF78600023FB607B681B681A687B6887
:102980001B6842F004021A607B681B681B68FB60CE
:10299000012000F0A3F87B681B68FA681A6000BF8A
:1029A0001037BD4680BD80B584B000AF786000238D
:1029B000FB607B681B681A687B681B6822F0040256
:1029C0001A607B681B681B68FB60012000F086F8BA
:1029D0007B681B68FA681A6000BF1037BD4680BD6F
:1029E00080B483B000AF78607B681B6803F58053C8
:1029F0009B697A68126843F4005302F58052936130
:102A000000BF0C37BD465DF8047B704780B483B0CF
:102A100000AF78607B681B6803F580539B697A6818
:102A2000126823F4005302F58052936100BF0C3703
:102A3000BD465DF8047B704780B483B000AF78601A
:102A40007B681B6803F580539B697A68126843F0C2
:102A5000020302F58052936100BF0C37BD465DF85A
:102A6000047B704780B483B000AF78607B681B68DC
:102A700003F580539B697A68126823F0020302F51C
:102A80008052936100BF0C37BD465DF8047B7047F0
:102A900080B584B000AF78600023FB607B681B6862
:102AA00003F580539B697A68126843F4801302F53A
:102AB000805293617B681B6803F580539B69FB60C0
:102AC000012000F00BF87B681A68FB6802F5805261
:102AD000936100BF1037BD4680BD000080B485B053
:102AE00000AF78600B4B1B680B4AA2FB03235B0A09
:102AF0007A6802FB03F3FB6000BFFB685A1EFA60B2
:102B0000002BF9D100BF00BF1437BD465DF8047B30
:102B1000704700BF00000020D34D621080B483B026
:102B200000AF78607B68074A9A647B68064ADA647B
:102B30007B68064A1A6500BF0C37BD465DF8047B0A
:102B4000704700BF73200108872001089B200108FF
:102B500080B586B000AFF860B960C7E900230123F3
:102B6000FB75234B1B7E012B01D102233BE0204B45
:102B700001221A764CF2503000F09CF80346FB75A7
:102B8000FB7D002B2BD1FB68002B05D13B78194630
:102B9000B86800F047F916E0FB68012B05D13B88C7
:102BA0001946B86800F01AF90DE0FB68022B05D150
:102BB0003B681946B86800F0EFF804E0D7E9002355
:102BC000B86800F0B7F84CF2503000F073F80346E4
:102BD000FB75084B1B69074A23F001031361044B83
:102BE00000221A76FB7D18461837BD4680BD00BF0F
:102BF00034010120003C024080B483B000AF0023C8
:102C0000FB710B4B1B69002B0BDA094B094A5A600D
:102C1000074B094A5A60064B1B69002B01DA012356
:102C2000FB71FB7918460C37BD465DF8047B704795
:102C3000003C024023016745AB89EFCD80B400AF73
:102C4000054B1B69044A43F00043136100231846F7
:102C5000BD465DF8047B7047003C024080B400AF85
:102C6000094B5B6903F00103002B07D0064B074AB1
:102C70009A60054B064A9A60002300E0012318463B
:102C8000BD465DF8047B7047003C02403B2A1908B2
:102C90007F6E5D4C80B400AF054B5B69044A43F026
:102CA0000103536100231846BD465DF8047B70475D
:102CB000003C024080B584B000AF78600023FB6028
:102CC0001A4B0022DA61FEF70BFCF86010E07B681B
:102CD000B3F1FF3F0CD07B68002B07D0FEF700FC60
:102CE0000246FB68D31A7A689A4201D2032319E09C
:102CF0000F4BDB6803F48033002BE8D10C4BDB680F
:102D000003F00103002B02D0094B0122DA60084BCB
:102D1000DB6803F4F973002B03D000F0A5F801235E
:102D200000E0002318461037BD4680BD3401012065
:102D3000003C024080B485B000AFF860C7E90023D2
:102D4000144B1B69134A23F440731361114B1B6925
:102D5000104A43F4407313610E4B1B690D4A43F054
:102D600001031361FB683A681A60BFF36F8F00BFFD
:102D7000D7E900014FF000024FF000030A000023E2
:102D8000F968043113460B6000BF1437BD465DF887
:102D9000047B7047003C024080B483B000AF786091
:102DA00039600D4B1B690C4A23F4407313610A4BC5
:102DB0001B69094A43F400731361074B1B69064AF8
:102DC00043F0010313617B683A681A6000BF0C3757
:102DD000BD465DF8047B7047003C024080B483B080
:102DE00000AF78600B467B800D4B1B690C4A23F4C7
:102DF000407313610A4B1B69094A43F480731361E2
:102E0000074B1B69064A43F0010313617B687A880C
:102E10001A8000BF0C37BD465DF8047B704700BFC9
:102E2000003C024080B483B000AF78600B46FB707A
:102E30000C4B1B690B4A23F440731361094B094A7D
:102E40001B691361074B1B69064A43F001031361B9
:102E50007B68FA781A7000BF0C37BD465DF8047BBA
:102E6000704700BF003C024080B400AF2F4BDB68CE
:102E700003F01003002B08D02D4BDB6943F0100347
:102E80002B4AD361294B1022DA60284BDB6803F010
:102E90002003002B08D0264BDB6943F00803244AAB
:102EA000D361224B2022DA60204BDB6803F0400321
:102EB000002B08D01E4BDB6943F004031C4AD3618E
:102EC0001A4B4022DA60194BDB6803F08003002BB9
:102ED00008D0174BDB6943F00203154AD361134B4B
:102EE0008022DA60114BDB6803F48073002B09D079
:102EF0000F4BDB6943F001030D4AD3610B4B4FF4D9
:102F00008072DA60094BDB6803F00203002B08D003
:102F1000074BDB6943F02003054AD361034B0222D0
:102F2000DA6000BFBD465DF8047B7047003C02409C
:102F30003401012080B584B000AF7860396001238E
:102F4000FB730023BB60324B1B7E012B01D102239C
:102F50005AE02F4B01221A764CF25030FFF7AAFEAE
:102F60000346FB73FB7B002B4AD13B684FF0FF32DB
:102F70001A607B681B68012B17D17B681B69DAB26A
:102F80007B685B681946104600F046F84CF25030FA
:102F9000FFF790FE0346FB731E4B1B691D4A23F48B
:102FA000004323F00403136128E07B689B68BB6047
:102FB0001CE07B681B69DBB21946B86800F066F854
:102FC0004CF25030FFF776FE0346FB73114B1B6942
:102FD000104A23F0FA031361FB7B002B03D03B68FC
:102FE000BA681A600AE0BB680133BB607B68DA68C4
:102FF0007B689B681344BA689A42DAD300F094F86D
:10300000034B00221A76FB7B18461037BD4680BD65
:1030100034010120003C024080B483B000AF03467D
:103020003960FB71184B1B69174A23F44073136115
:103030003B68032B08D1144B1B69134A43F400432C
:1030400043F0040313610FE03B68012B06D10E4BE4
:103050001B690D4A43F00403136105E00A4B1B6929
:10306000094A43F400431361074B1A69FB791B02B9
:103070001343054A43F48033136100BF0C37BD4648
:103080005DF8047B704700BF003C024080B485B00F
:1030900000AF78600B46FB700023FB60FB78002BD1
:1030A00002D10023FB6010E0FB78012B03D14FF429
:1030B0008073FB6009E0FB78022B03D14FF40073AF
:1030C000FB6002E04FF44073FB607B680B2B02D97E
:1030D0007B6804337B60134B1B69124A23F44073F3
:1030E0001361104B1A690F49FB6813430B610D4BB9
:1030F0001B690C4A23F0F80313610A4B1A697B68B9
:10310000DB001343074A43F002031361054B1B69BD
:10311000044A43F48033136100BF1437BD465DF8A1
:10312000047B7047003C024080B400AF204B1B681A
:1031300003F40073002B17D01D4B1B681C4A23F4AB
:10314000007313601A4B1B68194A43F40063136041
:10315000174B1B68164A23F400631360144B1B685B
:10316000134A43F400731360114B1B6803F480632C
:10317000002B17D00E4B1B680D4A23F4806313609D
:103180000B4B1B680A4A43F480531360084B1B68BF
:10319000074A23F480531360054B1B68044A43F429
:1031A0008063136000BFBD465DF8047B704700BFBD
:1031B000003C024080B489B000AF786039600023E1
:1031C0007B6100233B610023BB610023FB6177E14E
:1031D0000122FB6902FA03F37B613B681B687A6991
:1031E00013403B613A697B699A4240F066813B68D3
:1031F0005B6803F00303012B05D03B685B6803F0B9
:103200000303022B30D17B689B68BB61FB695B00C9
:10321000032202FA03F3DB43BA691340BB613B6844
:10322000DA68FB695B0002FA03F3BA691343BB6116
:103230007B68BA699A607B685B68BB610122FB6945
:1032400002FA03F3DB43BA691340BB613B685B6876
:103250001B0903F00102FB6902FA03F3BA69134385
:10326000BB617B68BA695A603B685B6803F0030323
:10327000032B17D07B68DB68BB61FB695B00032213
:1032800002FA03F3DB43BA691340BB613B689A68F7
:10329000FB695B0002FA03F3BA691343BB617B6805
:1032A000BA69DA603B685B6803F00303022B23D141
:1032B000FB69DA087B68083253F82230BB61FB698E
:1032C00003F007039B000F2202FA03F3DB43BA6902
:1032D0001340BB613B681A69FB6903F007039B005D
:1032E00002FA03F3BA691343BB61FB69DA087B682E
:1032F0000832B96943F822107B681B68BB61FB691F
:103300005B00032202FA03F3DB43BA691340BB619B
:103310003B685B6803F00302FB695B0002FA03F39E
:10332000BA691343BB617B68BA691A603B685B6822
:1033300003F44033002B00F0C0800023FB60664B99
:103340005B6C654A43F480435364634B5B6C03F4EA
:103350008043FB60FB68614AFB699B08023352F8BB
:103360002330BB61FB6903F003039B000F2202FAC9
:1033700003F3DB43BA691340BB617B68584A93424D
:1033800037D07B68574A934231D07B68564A934284
:103390002BD07B68554A934225D07B68544A934290
:1033A0001FD07B68534A934219D07B68524A93429C
:1033B00013D07B68514A93420DD07B68504A9342A8
:1033C00007D07B684F4A934201D1092312E00A23B8
:1033D00010E008230EE007230CE006230AE0052393
:1033E00008E0042306E0032304E0022302E00123B3
:1033F00000E00023FA6902F0030292009340BA69E8
:103400001343BB613549FB699B080233BA6941F834
:1034100023203D4B1B68BB613B69DB43BA6913400A
:10342000BB613B685B6803F48033002B03D0BA694F
:103430003B691343BB61344ABB691360324B5B6821
:10344000BB613B69DB43BA691340BB613B685B68A6
:1034500003F40033002B03D0BA693B691343BB610B
:10346000294ABB695360284B9B68BB613B69DB43BE
:10347000BA691340BB613B685B6803F48013002B9F
:1034800003D0BA693B691343BB611F4ABB699360B0
:103490001D4BDB68BB613B69DB43BA691340BB6111
:1034A0003B685B6803F40013002B03D0BA693B69E7
:1034B0001343BB61144ABB69D360FB690133FB61F1
:1034C000FB690F2B7FF684AE00BF00BF2437BD46DB
:1034D0005DF8047B704700BF0038024000380140AF
:1034E000000002400004024000080240000C0240BC
:1034F000001002400014024000180240001C02406C
:103500000020024000240240003C014080B487B00B
:1035100000AF7860396000233B610023FB6000232B
:10352000BB6000237B61D9E001227B6902FA03F3CF
:103530003B613A683B691340FB60FA683B699A4219
:1035400040F0C9806B4A7B699B08023352F82330F4
:10355000BB607B6903F003039B000F2202FA03F3B5
:10356000BA681340BB607B68634A934237D07B687C
:10357000624A934231D07B68614A93422BD07B6888
:10358000604A934225D07B685F4A93421FD07B6894
:103590005E4A934219D07B685D4A934213D07B68A0
:1035A0005C4A93420DD07B685B4A934207D07B68AC
:1035B0005A4A934201D1092312E00A2310E008235A
:1035C0000EE007230CE006230AE0052308E00423AD
:1035D00006E0032304E0022302E0012300E00023CD
:1035E0007A6902F0030292009340BA689A4232D19B
:1035F0004B4B1A68FB68DB43494913400B60484B4F
:103600005A68FB68DB43464913404B60444B9A6859
:10361000FB68DB43424913408B60414BDA68FB682F
:10362000DB433F491340CB607B6903F003039B00FE
:103630000F2202FA03F3BB602E4A7B699B08023318
:1036400052F82310BB68DA432A487B699B080A407A
:10365000023340F823207B681A687B695B000321F2
:1036600001FA03F3DB431A407B681A607B69DA08CE
:103670007B68083253F822107B6903F007039B0034
:103680000F2202FA03F3DB437A69D20819407B6800
:10369000083243F822107B68DA687B695B000321FB
:1036A00001FA03F3DB431A407B68DA607B685A68EF
:1036B00001217B6901FA03F3DB431A407B685A60FE
:1036C0007B689A687B695B00032101FA03F3DB43A3
:1036D0001A407B689A607B6901337B617B690F2BA1
:1036E0007FF622AF00BF00BF1C37BD465DF8047BEC
:1036F000704700BF00380140000002400004024053
:1037000000080240000C0240001002400014024079
:1037100000180240001C0240002002400024024029
:10372000003C014080B485B000AF78600B467B80E0
:103730007B681A697B881340002B02D00123FB733E
:1037400001E00023FB73FB7B18461437BD465DF890
:10375000047B704780B483B000AF78600B467B80F9
:1037600013467B707B78002B03D07A887B689A6144
:1037700003E07B881A047B689A6100BF0C37BD4662
:103780005DF8047B704780B485B000AF78600B466D
:103790007B807B685B69FB607A88FB6813401A0456
:1037A000FB68D9437B880B401A437B689A6100BF52
:1037B0001437BD465DF8047B7047000080B483B0C9
:1037C00000AF064B01221A60054B1B687B607B68CB
:1037D00000BF0C37BD465DF8047B704720000E42E9
:1037E0000070004080B586B000AF78607B68002B29
:1037F00001D1012367E27B681B6803F00103002B02
:1038000075D0884B9B6803F00C03042B0CD0854BC0
:103810009B6803F00C03082B12D1824B5B6803F406
:103820008003B3F5800F0BD17E4B1B6803F400338C
:10383000002B5BD07B685B68002B57D1012342E2F1
:103840007B685B68B3F5803F06D1764B1B68754A91
:1038500043F4803313601DE07B685B68B3F5A02FF1
:103860000CD1704B1B686F4A43F4802313606D4B7F
:103870001B686C4A43F4803313600BE0694B1B6890
:10388000684A23F480331360664B1B68654A23F44F
:10389000802313607B685B68002B13D0FDF720FE4C
:1038A000386108E0FDF71CFE02463B69D31A642B21
:1038B00001D9032307E25B4B1B6803F40033002BA1
:1038C000F0D014E0FDF70CFE386108E0FDF708FECB
:1038D00002463B69D31A642B01D90323F3E1514B10
:1038E0001B6803F40033002BF0D100E000BF7B68BD
:1038F0001B6803F00203002B63D04A4B9B6803F064
:103900000C03002B0BD0474B9B6803F00C03082BD8
:103910001CD1444B5B6803F48003002B16D1414B50
:103920001B6803F00203002B05D07B68DB68012BCA
:1039300001D00123C7E13B4B1B6823F0F8027B68F1
:103940001B69DB00374913430B603AE07B68DB6897
:10395000002B20D0344B01221A60FDF7C1FD3861E5
:1039600008E0FDF7BDFD02463B69D31A022B01D9E1
:103970000323A8E12B4B1B6803F00203002BF0D0BC
:10398000284B1B6823F0F8027B681B69DB00254984
:1039900013430B6015E0244B00221A60FDF7A0FDD5
:1039A000386108E0FDF79CFD02463B69D31A022B03
:1039B00001D9032387E11B4B1B6803F00203002B93
:1039C000F0D17B681B6803F00803002B36D07B68BE
:1039D0005B69002B16D0154B01221A60FDF780FDA4
:1039E000386108E0FDF77CFD02463B69D31A022BE3
:1039F00001D9032367E10B4B5B6F03F00203002B3C
:103A0000F0D01BE0094B00221A60FDF769FD386118
:103A10000EE0FDF765FD02463B69D31A022B07D97C
:103A2000032350E10038024000004742800E474225
:103A3000884B5B6F03F00203002BEAD17B681B68A5
:103A400003F00403002B00F097800023FB75814BEB
:103A50001B6C03F08053002B0FD10023BB607D4B08
:103A60001B6C7C4A43F0805313647A4B1B6C03F04D
:103A70008053BB60BB680123FB75774B1B6803F465
:103A80008073002B18D1744B1B68734A43F4807306
:103A90001360FDF725FD386108E0FDF721FD0246C2
:103AA0003B69D31A022B01D903230CE16A4B1B6833
:103AB00003F48073002BF0D07B689B68012B06D148
:103AC000644B1B6F634A43F0010313671CE07B6880
:103AD0009B68052B0CD15F4B1B6F5E4A43F00403C0
:103AE00013675C4B1B6F5B4A43F0010313670BE0EA
:103AF000584B1B6F574A23F001031367554B1B6F3D
:103B0000544A23F0040313677B689B68002B15D08D
:103B1000FDF7E6FC38610AE0FDF7E2FC02463B698E
:103B2000D31A41F28832934201D90323CBE0494BA7
:103B30001B6F03F00203002BEED014E0FDF7D0FC66
:103B400038610AE0FDF7CCFC02463B69D31A41F22A
:103B50008832934201D90323B5E03E4B1B6F03F03B
:103B60000203002BEED1FB7D012B05D1394B1B6CE1
:103B7000384A23F0805313647B689B69002B00F064
:103B8000A180344B9B6803F00C03082B5CD07B684E
:103B90009B69022B41D1314B00221A60FDF7A0FC3A
:103BA000386108E0FDF79CFC02463B69D31A022B02
:103BB00001D9032387E0274B1B6803F00073002B18
:103BC000F0D17B68DA697B681B6A1A437B685B6AA1
:103BD0009B011A437B689B6A5B08013B1B041A43E9
:103BE0007B68DB6A1B061B4913434B601B4B01229E
:103BF0001A60FDF775FC386108E0FDF771FC0246BC
:103C00003B69D31A022B01D903235CE0114B1B68DB
:103C100003F00073002BF0D054E0104B00221A6028
:103C2000FDF75EFC386108E0FDF75AFC02463B698F
:103C3000D31A022B01D9032345E0064B1B6803F07E
:103C40000073002BF0D13DE07B689B69012B07D10D
:103C5000012338E000380240007000406000474215
:103C60001B4B5B68FB607B689B69012B28D0FB6862
:103C700003F480027B68DB699A4221D1FB6803F080
:103C80003F027B681B6A9A421AD1FA6847F6C073F2
:103C900013407A68526A9201934211D1FB6803F48F
:103CA00040327B689B6A5B08013B1B049A4207D148
:103CB000FB6803F070627B68DB6A1B069A4201D0E6
:103CC000012300E0002318461837BD4680BD00BF21
:103CD0000038024080B584B000AF786039607B68FE
:103CE000002B01D10123CCE0684B1B6803F00F03CC
:103CF0003A689A420CD9654B3A68D2B21A70634B53
:103D00001B6803F00F033A689A4201D00123B8E020
:103D10007B681B6803F00203002B20D07B681B68C4
:103D200003F00403002B05D0594B9B68584A43F419
:103D3000E05393607B681B6803F00803002B05D0F9
:103D4000534B9B68524A43F460439360504B9B68CB
:103D500023F0F0027B689B684D4913438B607B68BE
:103D60001B6803F00103002B44D07B685B68012BC8
:103D700007D1474B1B6803F40033002B19D10123F3
:103D80007FE07B685B68022B03D07B685B68032B5A
:103D900007D13F4B1B6803F00073002B09D10123AF
:103DA0006FE03B4B1B6803F00203002B01D10123A2
:103DB00067E0374B9B6823F003027B685B683449FC
:103DC00013438B60FDF78CFBF8600AE0FDF788FB7E
:103DD0000246FB68D31A41F28832934201D9032389
:103DE0004FE02B4B9B6803F00C027B685B689B00E9
:103DF0009A42EBD1254B1B6803F00F033A689A42B5
:103E00000CD2224B3A68D2B21A70204B1B6803F0D6
:103E10000F033A689A4201D0012332E07B681B68A5
:103E200003F00403002B08D0194B9B6823F4E052E5
:103E30007B68DB68164913438B607B681B6803F063
:103E40000803002B09D0124B9B6823F460427B6867
:103E50001B69DB000E4913438B6000F021F802461A
:103E60000B4B9B681B0903F00F030A49CB5C22FA3A
:103E700003F3094A1360094B1B681846FDF7ECFA77
:103E8000002318461037BD4680BD00BF003C0240ED
:103E90000038024074C60108000000200400002021
:103EA0002DE9B04F94B000AF00237B640023FB6486
:103EB00000233B640023BB64794B9B6803F00C0335
:103EC000082B0DD0082B00F2E180002B02D0042B30
:103ED00003D0DBE0734BBB64DBE0734BBB64D8E027
:103EE0006F4B5B6803F03F037B646D4B5B6803F4CF
:103EF0008003002B63D06A4B5B689B090022BB6385
:103F0000FA63BB6BC3F308033B6300237B63D7E90E
:103F10000C4522462B464FF000004FF0000159019E
:103F200041EAD261500102460B462146511A3961DD
:103F3000294663EB01037B614FF000024FF0000361
:103F4000D7E904AB59468B01514643EA9163514688
:103F50008A015146B2EB0108594663EB01094FF063
:103F600000024FF000034FEAC90343EA58734FEAD7
:103F7000C80290469946234618EB0303BB602B46C4
:103F800049EB0303FB604FF000024FF00003D7E959
:103F9000024529464B02214643EAD15321464A02B3
:103FA000104619467B6C0022BB62FA62D7E90A23ED
:103FB000FCF76EF902460B461346FB6458E0384B9B
:103FC0005B689B09002218461146C0F308033B6258
:103FD00000237B62D7E9088942464B464FF0000038
:103FE0004FF00001590141EAD261500102460B46EF
:103FF0004146B2EB010A494663EB010B4FF0000268
:104000004FF000034FEA8B1343EA9A634FEA8A1298
:10401000B2EB0A0463EB0B054FF000024FF0000314
:10402000EB0043EA5473E20014461D464346E3188E
:104030003B604B4645EB03037B604FF000024FF0C3
:104040000003D7E9004529468B02214643EA9153F4
:1040500021468A02104619467B6C0022BB61FA6138
:10406000D7E90623FCF714F902460B461346FB6416
:104070000B4B5B681B0C03F0030301335B003B64D9
:10408000FA6C3B6CB2FBF3F3BB6402E0054BBB6420
:1040900000BFBB6C18465037BD46BDE8B08F00BFAF
:1040A000003802400024F40000127A0080B400AF0F
:1040B000034B1B681846BD465DF8047B704700BF84
:1040C0000000002080B582B000AFFDF709FA7860EB
:1040D000724B1B68714A43F00103136008E0FDF75F
:1040E000FFF902467B68D31A022B01D90323D0E0E3
:1040F0006A4B1B6803F00203002BF0D0674B1B6870
:10410000664A43F080031360FDF7EAF97860634B79
:1041100000229A600AE0FDF7E3F902467B68D31AB1
:1041200041F28832934201D90323B2E05B4B9B6892
:1041300003F00C03002BEED1FDF7D2F97860574B5A
:104140001B68564A23F45023136008E0FDF7C8F9B2
:1041500002467B68D31A642B01D9032399E04F4BA5
:104160001B6803F40033002BF0D1FDF7B9F9786038
:104170004A4B1B68494A23F08073136008E0FDF73F
:10418000AFF902467B68D31A022B01D9032380E0E2
:10419000424B1B6803F00073002BF0D1FDF7A0F930
:1041A00078603E4B1B683D4A23F08063136008E053
:1041B000FDF796F902467B68D31A022B01D9032337
:1041C00067E0364B1B6803F00063002BF0D1FDF76E
:1041D00087F97860314B1B68304A23F080531360B5
:1041E00008E0FDF77DF902467B68D31A022B01D95E
:1041F00003234EE0294B1B6803F00053002BF0D142
:10420000264B274A5A60254B264AC3F88420234B65
:10421000244AC3F88820214BDB68204A23F4F85352
:10422000D3601E4BDB681D4A23F40053D3601B4B45
:10423000DB681A4A23F48043D360184BDB68174AC3
:1042400043F41F03D360154BDB68144A43F4001397
:10425000D360124BDB68114A43F48003D3600F4BE9
:104260005B6F0E4A23F0010353670C4B5B6F0B4AE5
:1042700043F0807353670C4B0C4A1A600C4B1B685D
:104280001846FDF7E9F80346002B01D0012300E0B2
:10429000002318460837BD4680BD00BF00380240E5
:1042A0001030000400300024000000200024F4003E
:1042B0000400002080B582B000AF78607B68002BDE
:1042C00001D1012341E07B6893F83D30DBB2002B44
:1042D00006D17B68002283F83C207868FCF7F0FE6A
:1042E0007B68022283F83D207B681A687B68043370
:1042F0001946104600F0BCFA7B68012283F846207C
:104300007B68012283F83E207B68012283F83F20EE
:104310007B68012283F840207B68012283F84120DA
:104320007B68012283F842207B68012283F84320C6
:104330007B68012283F844207B68012283F84520B2
:104340007B68012283F83D20002318460837BD46CC
:1043500080BD80B483B000AF78607B681B681A6A48
:1043600041F211131340002B0FD17B681B681A6AAE
:1043700040F244431340002B07D17B681B681A6846
:104380007B681B6822F001021A607B68012283F8B7
:104390003D20002318460C37BD465DF8047B70476E
:1043A00080B485B000AF78607B6893F83D30DBB2B5
:1043B000012B01D001234EE07B68022283F83D20CF
:1043C0007B681B68DA687B681B6842F00102DA6070
:1043D0007B681B68234A934222D07B681B68B3F139
:1043E000804F1DD07B681B681F4A934218D07B68A2
:1043F0001B681E4A934213D07B681B681C4A934279
:104400000ED07B681B681B4A934209D07B681B68EF
:10441000194A934204D07B681B68184A934211D111
:104420007B681B689B6803F00703FB60FB68062B37
:1044300010D07B681B681A687B681B6842F0010219
:104440001A6007E07B681B681A687B681B6842F08B
:1044500001021A60002318461437BD465DF8047B3C
:10446000704700BF00000140000400400008004009
:10447000000C0040000401400040014000180040D2
:1044800080B582B000AF78607B681B681B6903F061
:104490000203022B22D17B681B68DB6803F0020356
:1044A000022B1BD17B681B686FF002021A617B68CC
:1044B00001221A777B681B689B6903F00303002BBA
:1044C00003D0786800F0B5F905E0786800F0A7F946
:1044D000786800F0B8F97B6800221A777B681B685F
:1044E0001B6903F00403042B22D17B681B68DB6883
:1044F00003F00403042B1BD17B681B686FF00402DC
:104500001A617B6802221A777B681B689B6903F437
:104510004073002B03D0786800F08BF905E07868D1
:1045200000F07DF9786800F08EF97B6800221A7738
:104530007B681B681B6903F00803082B22D17B688A
:104540001B68DB6803F00803082B1BD17B681B6822
:104550006FF008021A617B6804221A777B681B6877
:10456000DB6903F00303002B03D0786800F061F9E6
:1045700005E0786800F053F9786800F064F97B682A
:1045800000221A777B681B681B6903F01003102B4D
:1045900022D17B681B68DB6803F01003102B1BD152
:1045A0007B681B686FF010021A617B6808221A771B
:1045B0007B681B68DB6903F44073002B03D07868C9
:1045C00000F037F905E0786800F029F9786800F024
:1045D0003AF97B6800221A777B681B681B6903F035
:1045E0000103012B0ED17B681B68DB6803F001031C
:1045F000012B07D17B681B686FF001021A61786894
:10460000FCF7E6FA7B681B681B6903F08003802BCC
:104610000ED17B681B68DB6803F08003802B07D119
:104620007B681B686FF080021A61786800F064FA9A
:104630007B681B681B6903F04003402B0ED17B682D
:104640001B68DB6803F04003402B07D17B681B68C5
:104650006FF040021A61786800F0FFF87B681B6811
:104660001B6903F02003202B0ED17B681B68DB68DD
:1046700003F02003202B07D17B681B686FF020021A
:104680001A61786800F02EFA00BF0837BD4680BD79
:1046900080B584B000AF786039600023FB737B681D
:1046A00093F83C30012B01D10223B4E07B68012256
:1046B00083F83C207B68022283F83D207B681B68DE
:1046C0009B68BB60BB6823F07703BB60BB6823F4C7
:1046D0007F43BB607B681B68BA689A603B681B6855
:1046E000B3F5005F3ED0B3F5005F00F28780B3F50D
:1046F000805F00F08680B3F5805F7FD8702B1AD082
:10470000702B7BD8602B50D0602B77D8502B3CD0AF
:10471000502B73D8402B58D0402B6FD8302B64D0FF
:10472000302B6BD8202B60D0202B67D8002B5CD08F
:10473000102B5AD062E07B6818683B6899683B6828
:104740005A683B68DB6800F0ADF97B681B689B68C2
:10475000BB60BB6843F07703BB607B681B68BA68CB
:104760009A604FE07B6818683B6899683B685A68B4
:104770003B68DB6800F096F97B681B689A687B6889
:104780001B6842F480429A603CE07B6818683B6892
:1047900059683B68DB681A4600F00AF97B681B68B9
:1047A0005021184600F063F92CE07B6818683B68DC
:1047B00059683B68DB681A4600F029F97B681B687A
:1047C0006021184600F053F91CE07B6818683B68CC
:1047D00059683B68DB681A4600F0EAF87B681B689A
:1047E0004021184600F043F90CE07B681A683B68EA
:1047F0001B681946104600F03AF903E00123FB73E9
:1048000000E000BF7B68012283F83D207B68002226
:1048100083F83C20FB7B18461037BD4680BD80B432
:1048200083B000AF786000BF0C37BD465DF8047BF5
:10483000704780B483B000AF786000BF0C37BD46CE
:104840005DF8047B704780B483B000AF786000BF30
:104850000C37BD465DF8047B704780B483B000AF71
:10486000786000BF0C37BD465DF8047B70470000E0
:1048700080B485B000AF786039607B681B68FB60EE
:104880007B68404A934213D07B68B3F1804F0FD0CE
:104890007B683D4A93420BD07B683C4A934207D0E9
:1048A0007B683B4A934203D07B683A4A934208D1E3
:1048B000FB6823F07003FB603B685B68FA68134396
:1048C000FB607B682F4A93422BD07B68B3F1804F0B
:1048D00027D07B682C4A934223D07B682B4A934293
:1048E0001FD07B682A4A93421BD07B68294A934297
:1048F00017D07B68284A934213D07B68274A93429B
:104900000FD07B68264A93420BD07B68254A93429E
:1049100007D07B68244A934203D07B68234A9342A2
:1049200008D1FB6823F44073FB603B68DB68FA68DE
:104930001343FB60FB6823F080023B685B69134311
:10494000FB607B68FA681A603B689A687B68DA6289
:104950003B681A687B689A627B680A4A934203D074
:104960007B680C4A934203D13B681A697B681A63DF
:104970007B6801225A6100BF1437BD465DF8047B95
:10498000704700BF000001400004004000080040E4
:10499000000C004000040140004001400044014080
:1049A0000048014000180040001C0040002000406A
:1049B00080B487B000AFF860B9607A60FB681B6AAA
:1049C0007B61FB681B6A23F00102FB681A62FB68CB
:1049D0009B693B613B6923F0F0033B617B681B01F2
:1049E0003A6913433B617B6923F00A037B617A696F
:1049F000BB6813437B61FB683A699A61FB687A691B
:104A00001A6200BF1C37BD465DF8047B704780B456
:104A100087B000AFF860B9607A60FB681B6A23F06A
:104A20001002FB681A62FB689B697B61FB681B6A6A
:104A30003B617B6923F470437B617B681B037A696C
:104A400013437B613B6923F0A0033B61BB681B01FF
:104A50003A6913433B61FB687A699A61FB683A697A
:104A60001A6200BF1C37BD465DF8047B704780B4F6
:104A700085B000AF786039607B689B68FB60FB683D
:104A800023F07003FB603A68FB68134343F00703AD
:104A9000FB607B68FA689A6000BF1437BD465DF81A
:104AA000047B704780B487B000AFF860B9607A606B
:104AB0003B60FB689B687B617B6923F47F437B6180
:104AC0003B681A027B681A43BB6813437A69134335
:104AD0007B61FB687A699A6000BF1C37BD465DF850
:104AE000047B704780B483B000AF786000BF0C37A0
:104AF000BD465DF8047B704780B483B000AF78603A
:104B000000BF0C37BD465DF8047B704780B586B0AA
:104B100004AF2B4B1B68FF2B03D0294B1B68002BCA
:104B200024D1284B0A221A70264B01225A70254B99
:104B300019229A70234B6422DA70234BFF221A70D9
:104B4000214BFF225A70204BFF229A701E4B0022ED
:104B5000DA701E4B0A221A701C4B01225A701B4B32
:104B600001229A70194B0122DA7042E000237B6027
:104B70000CE0134A7B6852F82330D9B2114A7B68A3
:104B800013440A461A707B6801337B607B68032BF1
:104B9000EFDD00237B600DE0094A7B68043352F8A7
:104BA0002330D9B2084A7B6813440A461A707B68DE
:104BB00001337B607B68032BEEDD00237B6015E017
:104BC000FF49024094010120980101209C0101202D
:104BD000844A7B68083352F82330D9B2824A7B6812
:104BE00013440A461A707B6801337B607B68032B91
:104BF000EEDD00F0C1FC7D4B1B781A067B4B5B7829
:104C00001B041A43794B9B781B021343774AD278D3
:104C100013431A06754B1B781906744B5B781B04FB
:104C20001943724B9B781B020B437049C9780B43A5
:104C30001B0203F47F031A436C4B1B7819066B4B62
:104C40005B781B041943694B9B781B020B43674934
:104C5000C9780B431B0A03F47F431A43634B1B7849
:104C60001906624B5B781B041943604B9B781B024F
:104C70000B435E49C9780B431B0E13435C4A136018
:104C80005C4B1B781A065B4B5B781B041A43594B31
:104C90009B781B021343574AD27813431A06554B8D
:104CA0001B781906534B5B781B041943514B9B78B7
:104CB0001B020B434F49C9780B431B0203F47F03CC
:104CC0001A434C4B1B7819064A4B5B781B0419435B
:104CD000484B9B781B020B434649C9780B431B0A80
:104CE00003F47F431A43434B1B781906414B5B780F
:104CF0001B0419433F4B9B781B020B433D49C9786A
:104D00000B431B0E13433C4A1360374B1B781A06A8
:104D1000354B5B781B041A43334B9B781B021343C0
:104D2000314AD27813431A062F4B1B7819062E4BA3
:104D30005B781B0419432C4B9B781B020B432A49BD
:104D4000C9780B431B0203F47F031A43264B1B78DD
:104D50001906254B5B781B041943234B9B781B02D8
:104D60000B432149C9780B431B0A03F47F431A43C1
:104D70001D4B1B7819061C4B5B781B0419431A4BFF
:104D80009B781B020B431849C9780B431B0E134336
:104D90001A4A13601A4B02931A4B01930023009393
:104DA000164B154A1249184801F08AF8164801F0C6
:104DB00035FA154B93F82D309B0803F00103DBB255
:104DC000002B03D0104801F039FA02E00E4801F040
:104DD000A1FA0E490C4801F0CFFA00BF0837BD46D2
:104DE00080BD00BFFF4902409C01012094010120C9
:104DF00088010120980101208C01012090010120EF
:104E0000059F0108D55301085401012041540108B0
:104E100080B500AF034800F0BDFA02F013F900BFFF
:104E200080BD00BF5401012080B58EB000AF786016
:104E300007F1240300221A605A609A60DA601A614E
:104E40007B681B684A4A934240F08D8000233B6296
:104E5000484B1B6B474A43F000731363454B1B6B76
:104E600003F000733B623B6A0023FB61414B1B6B09
:104E7000404A43F0806313633E4B1B6B03F0806337
:104E8000FB61FB690023BB613A4B1B6B394A43F062
:104E900000631363374B1B6B03F00063BB61BB699B
:104EA00000237B61334B1B6B324A43F004031363D3
:104EB000304B1B6B03F004037B617B6900233B6178
:104EC0002C4B1B6B2B4A43F001031363294B1B6BC9
:104ED00003F001033B613B690023FB60254B1B6B27
:104EE000244A43F002031363224B1B6B03F00203BB
:104EF000FB60FB6832237B620223BB620023FB6200
:104F000003233B630B237B6307F1240319461A48F1
:104F1000FEF750F986237B620223BB620023FB620B
:104F200003233B630B237B6307F1240319461348D8
:104F3000FEF740F94FF460537B620223BB6200230B
:104F4000FB6203233B630B237B6307F124031946B6
:104F50000B48FEF72FF9002200213D20FCF7E1FB72
:104F60003D20FCF7FAFB00BF3837BD4680BD00BFCF
:104F70000080024000380240000802400000024069
:104F80000004024080B586B000AF786000233B612A
:104F9000524B534A1A60514B01225A604F4B4FF407
:104FA00080429A604D4B4FF40062DA604B4B012215
:104FB0001A8200233B7280237B72E123BB720023A1
:104FC000FB7200233B7300237B73444A07F1080301
:104FD0005361424B00229A61404B0022DA613F4B01
:104FE0004FF400021A623D48FCF7F2FB0346FB75E2
:104FF000FB7D002B08D17B6893F82D3043F0040330
:10500000DAB27B6883F82D200423364A36493348C8
:10501000FCF786FD0423354A35493048FCF7E8FDA6
:105020007B68062283F82C202C4B5B691A787B68FE
:1050300083F82620294B5B695A787B6883F8272000
:10504000264B5B699A787B6883F82820234B5B6941
:10505000DA787B6883F82920204B5B691A797B68B2
:1050600083F82A201D4B5B695A797B6883F82B20D3
:105070007B6840F2DC529A847B6893F82D3043F0D1
:105080000A03DAB27B6883F82D201448FDF7DDF8B7
:1050900007F110031A4611211048FDF708F83B6983
:1050A00043F003033B613B691A4611210B48FDF7AE
:1050B00066F807F110031A4612210848FCF7F7FFBB
:1050C0003B6943F020033B613B691A4612210348C8
:1050D000FDF755F800BF1837BD4680BD40320120AE
:1050E00000800240701A012020020120A00201204D
:1050F000A001012080B58AB000AF786039604B4BC9
:10510000DB6A9B68FB6100237B6100233B6100231A
:10511000FB600023BB60454BDB6ABB6100233B6146
:105120003B683B625AE0BB691B68002B03DAF8233B
:1051300087F827305CE03B6A5B89FB600023BB603B
:105140002FE0FA693B69D0183B6A5A68BB68D118EE
:105150003B69C3F5BE6304331A4605F052FABB69D6
:10516000DB68BB61BB691B68002B03DAF82387F897
:1051700027303DE0BB699B68FB613A69FB681344DB
:10518000A3F2F453FB60BA683B69D31A03F2F453F9
:10519000BB607A693B69D31A03F2F4537B61002345
:1051A0003B61FA683B69134440F2F4529342C8D819
:1051B000FA693B69D0183B6A5A68BB681344FA68BD
:1051C000194605F01EFA3A69FB6813443B617A6997
:1051D000FB6813447B613B6A1B683B623B6A002BA4
:1051E000A1D179691148FCF76FFD002387F82730BA
:1051F0000E4B1B6803F580535B6903F02003002B03
:105200000DD00A4B1B6803F580531A4620235361C7
:10521000064B1B6803F580531A460023536097F929
:10522000273018462837BD4680BD00BF40320120D8
:1052300080B58CB000AF78600023FB620023BB62B6
:105240000023FB810023FB610023BB6100237B6102
:1052500000233B614E48FCF721FE0346002B01D0A2
:10526000002391E04A4BDB6BFB81494B1B6C7B625B
:10527000FB89002B07D0FB894FF4C172194600202F
:1052800001F0EAF8F862FB6A002B4BD0404B1B6B35
:105290003B620023FB61FB6ABB6240E0BB6A5B8947
:1052A0007B610023BB6121E0BB6A5A68BB69D018EF
:1052B0007A6AFB69D118FB69C3F5BE6304331A46E9
:1052C00005F09FF93B6ADB683B623B6A9B687B6247
:1052D000FA697B691344A3F2F4537B61BA69FB69F1
:1052E000D31A03F2F453BB610023FB617A69FB69B3
:1052F000134440F2F4529342D6D8BB6A5A68BB6951
:10530000D0187A6AFB6913447A69194605F079F96D
:10531000FA697B691344FB61BB6A1B68BB62BB6AA9
:10532000002BBBD11A4B1B6B3B6200233B610BE094
:105330003B6A1B6843F000423B6A1A603B6ADB68C9
:105340003B623B6901333B61114B9B6B3A699A426B
:10535000EED30F4B00229A630D4B1B6803F580536D
:105360005B6903F08003002B0DD0094B1B6803F52C
:1053700080531A4680235361054B1B6803F5805305
:105380001A4600239360FB6A18463037BD4680BD3D
:105390004032012080B584B000AF78607868FFF7B4
:1053A00047FFF860FB68002B10D07B681B697968A9
:1053B000F86898470346FB7297F90B30002B06D02C
:1053C000F86801F02BFB0023FB6000E000BF103702
:1053D000BD4680BD80B582B000AF78607B68002B91
:1053E00006D10E4B4FF405720D490E4805F01EF81C
:1053F0007B68732283F82E207B68742283F82F2029
:105400007B68094A5A617B68084A9A617868FFF7A5
:10541000B9FD002318460837BD4680BD10B101080C
:105420002CB101083CB10108D1830108F5500108F5
:1054300080B500AFFCF754F80346184680BD000065
:1054400080B584B000AF78600023FB600023BB60B0
:105450007B6893F82D309B0803F00103DBB2002B2F
:105460005DD0344B5B68002B3FD04FF4805200215D
:105470003048FCF784FEFCF733F80346FB6007F185
:1054800008031A4601212B48FCF711FEFCF728F807
:105490000246FB68D31AB3F57A7F28D8BB6803F0BD
:1054A0002003002BEBD007F108031A4610212148F6
:1054B000FCF7FDFDBB6803F00403002B04D01D4B7B
:1054C0004FF40062DA6002E01A4B0022DA60BB6837
:1054D00003F00203002B03D0164B00229A6016E063
:1054E000144B4FF480429A6011E000BF00E000BF0F
:1054F000104BDB68DB089AB20E4B9B685B089BB2D3
:1055000013439BB21A4600210A48FCF738FE0021DB
:105510000848FCF7F9FE0748FCF797FE02E005484B
:10552000FCF7C2FE786800F007F800BF1037BD46F0
:1055300080BD00BF4032012080B483B000AF7860EE
:1055400000BF0C37BD465DF8047B704780B483B064
:1055500000AF0346FB80B7F906301B021AB2FB8886
:105560001B0A9BB21BB213431BB29BB218460C37EB
:10557000BD465DF8047B704780B582B000AF002364
:105580007B6000F0D3F800F0D9FB00F091FC01F053
:1055900093FD01F00FFD00BF0837BD4680BD000040
:1055A00080B483B000AF0346FB80054B1A68FB88CC
:1055B000134418460C37BD465DF8047B704700BFA6
:1055C0000839012080B483B000AF7860054B1B68B8
:1055D0007A68D31A9BB218460C37BD465DF8047B37
:1055E000704700BF0839012090B585B000AF7860E2
:1055F000454B1B687A689A4206D2444B40F2DF1250
:105600004349444804F012FF434B1B687A689A42AE
:1056100006D33E4B4FF4F07240493E4804F006FF7B
:105620007B681B79002B06D0384B40F2E1123C49D5
:10563000384804F0FBFE7B681B88B3F5C86F06D9B9
:10564000324B4FF4F2723749324804F0EFFE7B6878
:105650001B881846FFF7A4FFF8607A68FB689A4237
:1056600024D0FB681B79002B20D12B4B1B68FA68D8
:105670009A421BD02C4B1B68FA689A4202D12A4AE4
:105680007B681360FB681A887B681A80FB681B883C
:10569000B3F5C86F0AD0FB681B881846FFF780FF78
:1056A00004467868FFF78EFF034663807B685B885B
:1056B0001846FFF775FFB860BA687B689A421FD03A
:1056C000BB681B79002B1BD1174B1B687A689A4269
:1056D00002D1154ABB6813607B681A88BB681A80C0
:1056E0007B681B88B3F5C86F0AD07B681B88184697
:1056F000FFF756FF0446B868FFF764FF0346638070
:1057000000BF1437BD4690BD0839012064B10108BF
:1057100094B10108ACB101080C390120D4B10108E1
:10572000F0B101080CB201081039012080B582B037
:1057300000AF184B033323F003031A46164B1A60CD
:10574000154B1B687B607B684FF4C8621A807B68CE
:1057500000225A807B6800221A714FF4C860FFF75C
:105760001FFF03460D4A13600C4B1B6801221A7180
:105770000A4B1B684FF4C8621A80084B1B684FF431
:10578000C8625A80044B1B68054A136000BF083783
:10579000BD4680BDB4320120083901200C390120FA
:1057A0001039012080B586B000AF78607868FFF7C7
:1057B00009FF0346FB827B681B881846FFF7F0FE53
:1057C00038617B685B881846FFF7EAFEF8607B6803
:1057D0001B88B3F5C86F18D87B685B88B3F5C86FB2
:1057E00013D87B685B88FA8A9A4204D0FB681B88CE
:1057F000FA8A9A4209D1084B1B683A699A4206D044
:105800003B695B88FA8A9A4201D0002300E00123B9
:1058100018461837BD4680BD0C39012080B584B0CC
:1058200000AF78607B68002B4CD07B6803F00303EB
:10583000002B07D0254B40F273222549254804F060
:10584000F5FD40E07B68083BFB60234B1B68FA6872
:105850009A4206D37B6803F10C02204B1B689A42E4
:1058600007D91A4B40F27F221D491A4804F0DEFD89
:1058700029E0FB681B79002B07D1144B4FF42372EE
:105880001849144804F0D2FD1DE0F868FFF78AFFBC
:105890000346002B07D10D4B40F2952212490D48CB
:1058A00004F0C4FD0FE0FB6800221A710F4B1B6867
:1058B000FA689A4202D20D4AFB681360F868FFF753
:1058C00093FE00E000BF1037BD4680BD64B1010803
:1058D00038B20108ACB10108083901200C390120A7
:1058E0005CB2010878B20108A0B2010810390120A9
:1058F00080B588B000AF78600B467B807B8803332F
:105900009BB223F00303FB83FB8B0B2B01D80C23EF
:10591000FB83FB8BB3F5C86F03D8FA8B7B889A4265
:1059200001D20023CCE0684B1B687A689A4204D30A
:10593000664B1B687A689A4206D3654B40F2D122C7
:105940006449654804F072FD5F4B1B687A689A42AF
:1059500004D35E4B1B687A689A4201D37B68AFE040
:105960007B68083BBB61B869FFF72CFE0346FB82EE
:10597000BB691A88FB8AD31A9BB2083BBB82FA8B9D
:10598000BB8A9A4206D9524B4FF439725349524856
:1059900004F04CFDFA8BBB8A9A4201D900238FE0B8
:1059A000FA8BBB8A9A4201D17B6889E0BB691B886C
:1059B0001846FFF7F5FD38613B691B79002B3FD195
:1059C000BB691B88B3F5C86F06D1414B40F2F52285
:1059D0004349414804F02AFD3B691B88BB81FA8A90
:1059E000FB8B13449BB20833FB813E4B1B683A6927
:1059F0009A4206D1FB891846FFF7D2FD0346394A81
:105A00001360FB891846FFF7CBFD38613B69002224
:105A10001A713B69BA891A803B69FA8A5A80BB6954
:105A2000FA891A803B691B88B3F5C86F47D03B6978
:105A30001B881846FFF7B4FD0246FB8953803EE001
:105A4000FB8B03F11402BB8A9A4238D8FA8AFB8B8B
:105A500013449BB20833FB81BB691B88B3F5C86F45
:105A600006D11B4B40F216321D491B4804F0DEFCE8
:105A7000FB891846FFF794FD38611A4B1B683A6999
:105A80009A4202D2174A3B6913603B6900221A719D
:105A9000BB691A883B691A803B69FA8A5A80BB69DC
:105AA000FA891A803B691B88B3F5C86F07D03B6938
:105AB0001B881846FFF774FD0246FB8953807B68FC
:105AC00018462037BD4680BD083901200C39012019
:105AD00064B10108D4B20108ACB10108ECB201080C
