:0400000500000000F7
:020000040000FA
:1000000018F09FE518F09FE518F09FE518F09FE5C0
:1000100018F09FE50000A0E120F11FE518F09FE532
:1000200058000000400000004400000048000000AC
:100030004C000000000000005000000054000000D0
:10004000FEFFFFEAFEFFFFEAFEFFFFEAFEFFFFEA18
:10005000FEFFFFEAFEFFFFEA4C009FE5DBF021E335
:1000600000D0A0E1000040E2D7F021E300D0A0E101
:10007000000040E2D1F021E300D0A0E1000040E226
:10008000D2F021E300D0A0E1010C40E2D3F021E363
:1000900000D0A0E1080040E210F021E300D0A0E190
:1000A00001AB4DE204009FE510FF2FE1E01F00408F
:1000B0008B020000F8B500F0B3F8364CA068AA2512
:1000C00080015526002803DA01202060E560E66003
:1000D00000F0A6F800202060E560E6602E4F386A48
:1000E00020210843386201E000F09AF8386A40069F
:1000F000FAD5284801278030C7600B206060E56092
:10010000E66000F08DF82760E560E66000F088F8B2
:10011000204805218030416001E000F081F8A068AE
:100120004001FAD51B48816880684C04640C0002C9
:10013000070E01E000F074F80B2C01D0002FF9D16C
:10014000144C03202060E560E66001E000F068F8F0
:10015000A0688001FAD5F8BC08BC18470D480321F7
:10016000803841600221016070470C480268FF211D
:100170000A430260C2690A43C2617047704710B502
:10018000FFF798FFFFF7EAFFFFF7EFFF10BC08BC8F
:100190001847000080C01FE080C11FE040C0FF3F43
:1001A00007502DE914009FE5001090E5011081E350
:1001B000001080E5110000EB0750BDE804F05EE29E
:1001C000004000E010B500F094FE10BC08BC1847D9
:1001D00010B500F096FFF8E710B501F02AF8F4E743
:1001E000034910B50020087001F098F8EDE7000011
:1001F0001000004080BB00000000000044332211CA
:1002000019C08FE21CFF2FE110B5FFF7B8FFFFF711
:10021000D9FFFFF7E5FF00F065FD10BC08BC1847EB
:10022000404842690121C903120401D5C1617047E8
:100230008161704770B400233B4D5C1E022911D1CF
:10024000002801D0012809D1296A00014908490084
:10025000296236494018012A02D1846070BC704777
:100260008360FBE70129F9D1002801D0012803D1DF
:10027000296A0126314329622A4940014018012A8E
:1002800001D10460EAE70360E8E770B5284A01217C
:100290000020FFF7CFFF234C20680121C90308434A
:1002A0002060244D0023FFF7BBFF5B1CAB42FADB51
:1002B00021480168214A914202D06169890606D429
:1002C0001F490160FFF7A0FF70BC08BC184700F091
:1002D00050FCF9E7F0B41B480023C36002244460DB
:1002E00003254561184981611849194A1161194E60
:1002F0002421316141140A6910273A430A61164AE0
:10030000D36054605561154C9461252272610A696D
:10031000202422430A610121416011480360F0BC9E
:100320007047000000C0FF3F80C11FE0008002E076
:10033000E6860000204E0000004008E0CDAB000043
:10034000BACD0000004000E04F120000A001000004
:1003500000F1FFFF00F2FFFF008000E0983A00008C
:1003600000000040491E084000D00120704770473F
:1003700010B4002205E0002B02D1002010BC704711
:10038000521C835C8C5CA342F5D0805C895C401A73
:10039000F4E730B400252A0008E02300303B092BA5
:1003A0000BD80A236B43303BE518521C845C002CAD
:1003B000F3D100200D6030BC70470120FBE770B521
:1003C0000D00521E002114000028A9540DD1302028
:1003D000641E28550DE0641E0A2101F0B9F80929B0
:1003E00001D8303100E037312955002C01D00028E8
:1003F000F1D1281970BC08BC1847002210B546215D
:10040000FF48FFF7E5FEFF48FFF7E6FEFC48002245
:100410004621FFF7DDFEFB49F948FFF7A9FF10BCB5
:1004200008BC1847F0B50F0015001E000024002876
:1004300008D03900FFF7ADFF002803D00C20F0BC36
:1004400008BC1847692D01D10020F8E7386804215D
:10045000FFF788FF00280ED0642D01D106242CE080
:100460000D24672D01D1022427E0682D01D103243A
:1004700023E0002C21D1E4483968814205D3E34AC6
:100480008819904201D8012000E000200122520387
:10049000914206D33F2289195203914201D801218A
:1004A00000E00021662D03D1084306D10E2404E0AC
:1004B000672D02D1002800D104242000BFE7D44AD0
:1004C0001047602801D10020704720380006000E38
:1004D0007047F0B50300002600783500FFF7F1FF04
:1004E0000400401E2C284BD85B1C47E0032C25DB66
:1004F0001878FFF7E6FF87005878FFF7E2FF00095A
:1005000007430F705878FFF7DCFF07019878FFF773
:10051000D8FF800807434F709878FFF7D2FF870114
:10052000D878FFF7CEFF07438F7008784F78ED1C1F
:10053000C0198F78BE198619C91C1DE0012C0CDB6F
:100540001878FFF7BEFF87005878FFF7BAFF000959
:1005500007430F7008786D1C8619022C0CDB587845
:10056000FFF7AFFF07019878FFF7ABFF800807435D
:100570004F7048786D1C86191B1DE41E002CB5DCDD
:10058000300015605BE7002801D160207047203003
:100590000006000E7047F0B5030010060024000EA0
:1005A000FFF7F1FF0870491C2DE0032A04DB9E7859
:1005B0005D781878341904E0022A05D15D7818783E
:1005C0002E004019041902E01D782E002C1918780D
:1005D0008008FFF7D8FF087018782F098007800E71
:1005E000C019FFF7D0FF48702807800EB5094019E1
:1005F000FFF7C9FF8870B006800EFFF7C4FFC87010
:10060000091DDB1CD21E002ACFDC00200870200050
:1006100015E7F0B57A4D85B09435A868029B642241
:1006200002A9FFF7FFFE04000DD16868029B672254
:1006300004A9FFF7F7FE0400042801D10E2402E00C
:10064000022C00D10D24734873494068884204D1BC
:100650006D490498884200D2132429680F22200093
:10066000FFF7ADFEFFF7B8FD002C43D1029F049EBB
:1006700025003CE0624846216A46FFF7A9FD0028B4
:1006800038D1009800280DD05D4804996D1C01AA4E
:10069000FFF71FFF041904990198091804910299A2
:1006A000081A0290142D02D0029800281FD10020B1
:1006B0000090534846216A46FFF78AFD00990029B9
:1006C000F7D0002816D14E4803A9FFF762FE039821
:1006D000844204D14B48029F049E0A3803E04948F3
:1006E0000297C01F0496FFF777FD00252C000298A3
:1006F0000028BFDC05B0A2E6FEB5414D642294356A
:10070000A868002301A9FFF78DFE040006D16868E0
:10071000019B662202A9FFF785FE040029680F22CB
:100720002000FFF74CFEFFF757FD002C3FD101A83A
:1007300081C800263400009036E02D2D00DD2D25E7
:100740002F4902982A00FFF726FF86192C48FFF749
:1007500043FD00282BD10298641C40190290019897
:10076000401B142C019001D000281DD124490F22D8
:100770003000FFF724FEFFF72FFD2148002246211D
:10078000FFF726FD002812D11E491D480A39FFF740
:10079000EFFD002803D10198029F009002E000982D
:1007A00001A981C100242600019D002DC5DCFEBCED
:1007B00008BC184738B51748114D00689435002813
:1007C0002CD16868662200236946FFF72BFE0400DF
:1007D00006D1A8680078542822D0412800D00C24E3
:1007E00069680F222000FFF7EAFDFFF7F5FC002CF7
:1007F00002D1009800F0A4FE38BC08BC18470000E5
:100800002C0000407A15000000020040D81A004079
:10081000F1FFFF7F08000040785634120F24DFE715
:100820000098012108430090DAE738B5FA4C6922B4
:10083000606800236946FFF7F5FD002808D1F74AF4
:100840000099914203D1F64A0021116000E0102086
:1008500061680F22FFF7B3FDFFF7BEFCCCE770B570
:10086000ED4C6922260014366068311D0023FFF725
:10087000D9FD250028350028286010D12100A06866
:1008800069221C310023FFF7CDFD0028286006D126
:1008900032203060E34A2900300000F053FE6168E6
:1008A00028680F22FFF78BFDFFF796FCA2E5F8B54D
:1008B000DB4ED94F31687868012903D10F2201003E
:1008C00010003BE0D44D69221435291D0023FFF7A9
:1008D000A9FD2C0014340028206011D12100B86833
:1008E00069220C390023FFF79DFD0028206007D105
:1008F0002100F868692208390023FFF793FD206082
:10090000C9497068884207D1686803210903884291
:1009100002D2132020600EE0206800280BD1332083
:100920002860C248BC490068283128610800BD4AD7
:10093000143800F007FE796820680F22FFF73FFDAA
:10094000FFF74AFCF8BC08BC1847F8B5B44EB24FE4
:1009500031687868012903D10F220100100048E0B6
:10096000AD4D69221435291D0023FFF75BFD2C00D6
:1009700014340028206007D12100B86869220C399E
:100980000023FFF74FFD2060A94A706813219042B1
:1009900002D0A84A904207D16868022802D1A8680C
:1009A0001B280CD0216019E09F4A904207D168684B
:1009B000022804D1A8681B2801D0216016E0206815
:1009C00000280BD1342028609848934900682831CA
:1009D000E8600800934A143800F0B4FD6868022803
:1009E00004D1A8681B2801D19348706079682068F9
:1009F0000F22FFF7E4FCFFF7EFFBA3E770B5864C8F
:100A00006922260014366068311D0023FFF70AFDB5
:100A1000250028350028286010D12100A06869220F
:100A20001C310023FFF7FEFC0028286006D135208A
:100A300030607C4A2900300000F084FD616828683D
:100A40000F22FFF7BCFCFFF7C7FB286808281BD163
:100A5000734875494068884205D07549884202D07C
:100A60007449884202D100206860A86061686868A3
:100A70000F22FFF7A4FCFFF7AFFB6168A8680F2205
:100A8000FFF79DFCFFF7A8FBB4E470B5624C692248
:100A9000260014366068311D0023FFF7C3FC2500D3
:100AA0002835002828601AD12100A06869221C314D
:100AB0000023FFF7B7FC0028286010D12100E06870
:100AC000692220310023FFF7ADFC0028286006D101
:100AD00038203060534A2900300000F033FD61684F
:100AE00028680F22FFF76BFCFFF776FB28680A28BF
:100AF00006D1616868680F22FFF761FCFFF76CFBA5
:100B000078E4FFB584466146097800209E46099D39
:100B100003000400002901D104B090E40021AD1EBF
:100B20001CE0461C76451CDC6646765C202E07D011
:100B3000AC4205DA8700D759FE545B1C641C0CE0FC
:100B4000664676187678202E01D1AC4205D1860013
:100B500096590024401CF4542300491C019EB142C4
:100B6000DFDD401CD8E735490861704733494861EB
:100B70007047012040030047274810B53521143045
:100B800001600221416081600100264A143100F0B9
:100B9000D9FC214828300068002800D001203EE41C
:100BA0001D4810B5352114300160012189034160D1
:100BB00023491C4A81600100143100F0C3FC16482F
:100BC00028300068002800D0012028E41D48006873
:100BD000800601D5012070470020704770B50E4C8B
:100BE00020680678FFF71CFB200014303300050056
:100BF0000C4A433B143500F095FC15657168712A69
:100C0000716B3041716E717162712771712D710C50
:100C10007100FFF7FEFC49E6C00000405A5A000090
:100C200008000040F1FFFF7F78563412F401000005
:100C300021436587658721434433221100F0FFFF7C
:100C4000FF4F0000008002E0FFF756FD2EE6FFF7A1
:100C5000B1FD2BE6FFF7E9FD28E636210160524998
:100C60000800143800F06EFC616828680F22FFF756
:100C7000A6FBFFF7B1FA616868681AE037210160E6
:100C800049490800143800F05DFC616828680F22AB
:100C9000FFF795FBFFF7A0FA686861680006000E91
:100CA0000F22FFF78CFBFFF797FA68686168000472
:100CB000000E0F22FFF783FBFFF78EFAF6E5FFF732
:100CC000CEFDF3E5FFF7F3FDF0E5FFF73EFEEDE5C2
:100CD000FFF794FEFEE7FFF7D8FEE7E50F22616815
:100CE0000120E7E7FEB53148012101602E49314E70
:100CF00076390D004E3529600F3169600F31A960DA
:100D00000F31E9600F31296129492B4F096801240E
:100D10004160FFF785FA24484621BC3801AAFFF755
:100D200057FA0028F5D17A218200AA58401C0528DC
:100D30001170F9DB0F2200921B4A0199283A10002A
:100D400094380523FFF7DDFE0028E2D029680978F2
:100D5000522903D0472901D04D2901D1012207E0B2
:100D60000022572901D0432901D1012400E00024A9
:100D70000E49124B4968994203D0B14201D0B942A1
:100D800001D1012A05D0B14201D0B94209D1012CCB
:100D900007D169680F221320FFF711FBFFF71CFA38
:100DA000B7E7FFF71BFFB4E7E8000040080000408A
:100DB000FC01000021436587658721437856341282
:100DC000FF2201321043FA4A9062D16200200521CD
:100DD0000904536BDB0702D0401C8842F9D37047EB
:100DE000F349FF300130886201204862002005226B
:100DF00012044B6BDB0702D0401C9042F9D3002059
:100E00004862086B0004000C7047EA4A11680888C1
:100E1000891C1160704710B50C00030006E0FFF755
:100E2000F4FF18809B1CA41E2404240C012CF6D86B
:100E3000002C02D0FFF7E9FF187010BC08BC18475F
:100E400010B40022835C8C5CA34202D0002010BC52
:100E50007047521C062AF5DB0120F8E730B5D64C66
:100E60002078002813D0D54D21000E31A81DFFF7A2
:100E7000E7FF002807D0A88CA188884203D1688C9E
:100E8000E188884203D0002030BC08BC184701200C
:100E9000FAE7CB4B19688A1C08801A60704730B596
:100EA0000400C848491C01400D0004E02088A41C2F
:100EB000FFF7EFFFAD1E002DF8D1E5E710B40023DA
:100EC0000FE00288012902D11206120EFFE7140674
:100ED0001204240C120E1443E318801C891E09040A
:100EE00009140029EDDC180CC018C0430004000CE4
:100EF000ADE7F8B5B448416801229207114341605B
:100F0000B248C16BB24AB348914201D1B24900E044
:100F1000B2498160C16809090901491DC160A44C39
:100F2000CF2000022060AE483821016064256D1E8C
:100F3000FDD10221216030216160AA496161AA4985
:100F400021611221E160A648490101600127FF03E8
:100F500039000020FFF734FF7E01FFF761F9002020
:100F6000FFF73EFF000402D56D1CB542F5D39F4844
:100F700020620020401C4028FCD3206AB843206235
:100F8000002565620220FFF72BFF07000320FFF713
:100F900027FF8C4A39040E3A10400143944881429D
:100FA0000FD1032109030020FFF70AFF0027FFF7F5
:100FB00037F90120FFF714FF800602D47F1CB742E7
:100FC000F5D3012700263F04FFF72AF91020FFF789
:100FD00007FFC10702D1761CBE42F5D341070BD5EE
:100FE00061680122114361607D4A116801239B02FF
:100FF00019431160152100E01221A160800701D57D
:10100000A56102E0FF200130A061694879494030C4
:101010000160794941607949816067480C21083055
:1010200001701D21417012218170E021C1701F21CA
:1010300001711021724F4171714E0020C03778212B
:101040004143704A8B18C1008A1913606E4BC9194D
:101050005360401C8D601928CD60F0D3604A9660C3
:101060006748C830D060182010619561654E674FA1
:101070000020343E78214143CB19C1008919103139
:1010800028C181008919401C03288D62F2D35D4874
:101090002438D0615B480C3810620220506295629F
:1010A0005B49202008604948882141624549491C24
:1010B0008162106803210843106020680121084301
:1010C00020603E48082178300173452145738173C3
:1010D000D821C5738174F421C174057580214575CB
:1010E00081751121C175F8BC08BC184710B40023E4
:1010F00004E0CC5CC4545B1C1B041B149342F8DB5F
:10110000A5E6F7B506000D000024802715E041494B
:101110002000641C884210DD0024FFF781F83E495E
:10112000012008803D484169090603D5C16939435A
:10113000C16102E08169394381612948816940695F
:101140008142E4D0264887692D49F800C031411812
:1011500089684905490DC91E0C042949240C401809
:1011600000681449086015482100FFF754FE7F1CF1
:10117000192F00D100271A48876120002A38A84279
:1011800003DD28002A300404240C0C492A3C2204E4
:1011900012142A313000FFF7A9FF1F4800210180F7
:1011A00008003EE0325C0D2A3AD131543BE00000A9
:1011B0000000E0FF2400004010000040FC00004060
:1011C00028000040FEFF0000C0C01FE0C00FE0FF8D
:1011D0000020023900C002E005111550050115502C
:1011E0000001E0FFF20500000F370000188000004A
:1011F000905C00201F10000012E000000C1D000099
:101200000000E07FB401E07F770000806C0DE07F9C
:101210000002E0FF400D03000400004040C0FF3F1B
:10122000401CA842BED302990860FEBC08BC002046
:101230001847F0B5544C0021435C62182032937279
:10124000425C002A06D160180D22203082720A22E8
:10125000C27202E0491C4629EEDB891C08044B4996
:10126000000C48804A498D6A4A49EA0051184A4BA5
:101270000A69454E1A60494A783E801848614248DA
:101280000622B11DFFF732FF404906220831A01D9A
:10129000FFF72CFF3D48042240881C300102000467
:1012A000000E0143218231001A3108007C30FFF723
:1012B0001DFF31001E31080004227430FFF716FFB5
:1012C000002020833000863014218446FFF7F6FD8D
:1012D000070214216046FFF7F1FD0004000E0743EA
:1012E0002783708CA084B08C6084284841880800D3
:1012F000083002020004000E02430020E284208530
:1013000021482A31FFF7CBFD6D1C032D00D10025AC
:101310001F488562F0BC08BC0120184730B51A4C44
:101320001A4D783C89B0FEF77BFF012108AA04A87A
:10133000FFF7E7FE6B46187C3F28F4D1A08C06220D
:10134000A11DA880608CE88010480E30FFF7CEFE0B
:101350001348FFF76EFF0F2108AA04A8FFF7D1FE7C
:101360000F490D226846FFF7C1FE694604A8FEF743
:10137000FFFF0028D7D10A48C01EFFF75AFF0120FF
:10138000287009B080E500007401004010000040A2
:101390000001E0FF8001E07F280000402A000040BB
:1013A0008A15000001C090E12100004A0020A0E35E
:1013B000A0C071E01A00003A20C271E00F00003AAC
:1013C00020C471E00100003A0030A0E3200000EAF0
:1013D000A0C371E0810340200220A2E020C371E09D
:1013E000010340200220A2E0A0C271E0810240205F
:1013F0000220A2E020C271E0010240200220A2E00F
:10140000A0C171E0810140200220A2E020C171E072
:10141000010140200220B2E0A0C071E08100402024
:101420000220A2E0011050E00010A0310200A2E072
:101430001EFF2FE1022111E200106142403032E034
:101440000000602220C271E01D00003A20C471E05B
:101450000F00003A0113A0E120C471E03F2382E3B2
:101460000B00003A0113A0E120C471E03F2682E3A3
:101470000700003A0113A0E120C471E03F2982E394
:101480000113A0213F2C822300C071E21D00002A1D
:101490002113A021A0C371E0810340200220A2E01B
:1014A00020C371E0010340200220A2E0A0C271E04D
:1014B000810240200220A2E020C271E0010240200F
:1014C0000220A2E0A0C171E0810140200220A2E040
:1014D00020C171E0010140200220B2E0EBFFFF2AB1
:1014E000A0C071E0810040200220A2E0011050E085
:1014F0000010A0310200A2E0C33FB0E10000604252
:10150000001061221EFF2FE1C33FB0E100006042E6
:1015100001402DE90000A0E30000A0E10240BDE889
:101520001EFF2FE17847C04601C05EE50C0053E185
:101530000330DE370C30DE2783C08EE01CFF2FE146
:101540000047084710471847204728473047384783
:101550007847C04620C271E00020A0E3A7FFFF3A11
:1015600020C471E099FFFF3A0030A0E3B8FFFFEA22
:101570004F4B00524553454E440053796E63687299
:101580006F6E697A6564004F4B0053796E636872C1
:101590006F6E697A656400000000000001000000C1
:1015A000000000000000000000000000000000003B
:1015B000000000000000000000000000000000002B
:0415C0000000000027
:00000001FF
