:020000040802F0
:2000000000000320F1A20308059B03080B9B0308119B0308179B03081D9B0308000000008C
:20002000000000000000000000000000239B0308319B0308000000003F9B03084D9B030848
:2000400041A3030841A3030841A3030841A3030841A3030841A3030841A3030841A3030828
:20006000599B030841A3030841A3030841A3030841A3030841A3030841A3030841A30308F8
:200080006D9B0308819B030841A3030841A3030841A3030841A3030841A3030841A303088C
:2000A00041A3030841A3030841A3030841A30308959B030841A3030841A3030841A303087C
:2000C00041A3030841A3030841A3030841A3030841A3030841A3030841A3030841A30308A8
:2000E00041A3030841A3030841A3030841A3030841A3030841A3030841A3030841A3030888
:2001000041A3030841A3030841A3030841A3030841A3030841A3030841A3030841A3030867
:20012000AD9B030841A30308C19B030841A3030841A30308D59B030841A3030841A30308DF
:2001400041A3030841A3030841A3030841A3030841A3030841A3030841A3030841A3030827
:2001600041A3030841A3030841A3030841A3030841A3030841A3030841A3030800000000F6
:2001800041A3030841A3030841A3030841A3030841A3030841A3030841A3030841A30308E7
:2001A000000000000000000041A303080000000010B5054C237833B9044B13B10448AFF3B2
:2001C00000800123237010BD680A002000000000C406050808B5034B1BB103490348AFF3A2
:2001E000008008BD000000006C0A0020C40605084B1C012B98BF70472DE9F003911C9B0853
:20020000B1F80480B1F802900A8831F802CC8044814402448444D9F80070D8F80060156868
:20022000DCF80040C9F80060C8F80070CCF800501460D9F80470D8F804605568DCF8044083
:20024000C9F80460C8F80470CCF8045054600831013BD5D1BDE8F00370474B1C012B98BF25
:2002600070472DE9F003911C9B08B1F80480B1F802900A8831F802CC00EB580800EB5909E5
:2002800000EB520200EB5C0CD9F80070D8F800601568DCF80040C9F80060C8F80070CCF8B5
:2002A000005014600831013BDFD1BDE8F003704701F0FF01102A2BDB10F0070F08D010F8DF
:2002C000013B013A8B422DD010F0070F42B3F6D1F0B441EA012141EA014122F007047FF021
:2002E00000070023F0E80256083C85EA010586EA010685FA47F5A3FA87F586FA47F6A5FA44
:2003000087F68EB9EED1F0BC01F0FF0102F0070232B110F8013B013A83EA010313B1F8D162
:200320000020704701387047002D06BF35460338073815F0010F07D1013015F4807F02BF28
:20034000013015F4C03F0130F0BC0138704700BF81F0004102E000BF83F0004330B54FEAB1
:2003600041044FEA430594EA050F08BF90EA020F1FBF54EA000C55EA020C7FEA645C7FEACC
:20038000655C00F0E2804FEA5454D4EB5555B8BF6D420CDD2C4480EA020281EA030382EA36
:2003A000000083EA010180EA020281EA0303362D88BF30BD11F0004F4FEA01314FF4801CBE
:2003C0004CEA113102D0404261EB410113F0004F4FEA03334CEA133302D0524263EB43038C
:2003E00094EA050F00F0A780A4F10104D5F1200E0DDB02FA0EFC22FA05F2801841F10001FA
:2004000003FA0EF2801843FA05F359410EE0A5F120050EF1200E012A03FA0EFC28BF4CF04D
:20042000020C43FA05F3C01851EBE37101F0004507D54FF0000EDCF1000C7EEB00006EEB17
:200440000101B1F5801F1BD3B1F5001F0CD349085FEA30004FEA3C0C04F101044FEA4452AF
:2004600012F5800F80F09A80BCF1004F08BF5FEA500C50F1000041EB045141EA050130BD14
:200480005FEA4C0C404141EB0101013C28BFB1F5801FE9D291F0000F04BF01460020B1FA83
:2004A00081F308BF2033A3F10B03B3F120020CDA0C3208DD02F1140CC2F10C0201FA0CF072
:2004C00021FA02F10CE002F11402D8BFC2F1200C01FA02F120FA0CFCDCBF41EA0C019040F0
:2004E000E41AA2BF01EB0451294330BD6FEA04041F3C1CDA0C340EDC04F11404C4F1200243
:2005000020FA04F001FA02F340EA030021FA04F345EA030130BDC4F10C04C4F1200220FAC8
:2005200002F001FA04F340EA0300294630BD21FA04F0294630BD94F0000F83F4801306BF81
:2005400081F480110134013D4EE77FEA645C18BF7FEA655C29D094EA050F08BF90EA020FE6
:2005600005D054EA000C04BF1946104630BD91EA030F1EBF0021002030BD5FEA545C05D190
:200580004000494128BF41F0004130BD14F580043CBF01F5801130BD01F0004545F0FE41A5
:2005A00041F470014FF0000030BD7FEA645C1ABF194610467FEA655C1CBF0B46024650EADA
:2005C000013406BF52EA033591EA030F41F4002130BD00BF90F0000F04BF0021704730B50F
:2005E0004FF4806404F132044FF000054FF0000150E700BF90F0000F04BF0021704730B520
:200600004FF4806404F1320410F0004548BF40424FF000013EE700BF42004FEAE2014FEAFF
:2006200031014FEA02701FBF12F07F4393F07F4F81F06051704732F07F4208BF704793F02D
:200640007F4F04BF41F40021704730B54FF4607401F0004521F000411CE700BF50EA010279
:2006600008BF704730B54FF000050AE050EA010208BF704730B511F0004502D5404261EB5E
:2006800041014FF4806404F132045FEA915C3FF4D8AE4FF003025FEADC0C18BF03325FEA0D
:2006A000DC0C18BF033202EBDC02C2F1200300FA03FC20FA02F001FA03FE40EA0E0021FA51
:2006C00002F11444BDE600BF70B54FF0FF0C4CF4E06C1CEA11541DBF1CEA135594EA0C0F24
:2006E00095EA0C0F00F0DEF82C4481EA030621EA4C5123EA4C5350EA013518BF52EA0335A7
:2007000041F4801143F4801338D0A0FB02CE4FF00005E1FB02E506F00042E0FB03E54FF095
:200720000006E1FB03569CF0000F18BF4EF0010EA4F1FF04B6F5007F64F5407404D25FEAD1
:200740004E0E6D4146EB060642EAC62141EA55514FEAC52040EA5E504FEACE2EB4F1FD0C95
:2007600088BFBCF5E06F1ED8BEF1004F08BF5FEA500E50F1000041EB045170BD06F00046A5
:2007800046EA010140EA020081EA0301B4EB5C04C2BFD4EB0C0541EA045170BD41F48011C9
:2007A0004FF0000E013C00F3AB8014F1360FDEBF002001F0004170BDC4F10004203C35DA07
:2007C0000C341BDC04F11404C4F1200500FA05F320FA04F001FA05F240EA020001F00042AA
:2007E00021F0004110EBD37021FA04F642EB06015EEA430E08BF20EAD37070BDC4F10C0481
:20080000C4F1200500FA04F320FA05F001FA04F240EA020001F0004110EBD37041F100013E
:200820005EEA430E08BF20EAD37070BDC4F1200500FA05F24EEA020E20FA04F301FA05F2C8
:2008400043EA020321FA04F001F0004121FA04F220EA020000EBD3705EEA430E08BF20EA70
:20086000D37070BD94F0000F0FD101F00046400041EB010111F4801F08BF013CF7D041EA56
:20088000060195F0000F18BF704703F00046520043EB030313F4801F08BF013DF7D043EAD1
:2008A0000603704794EA0C0F0CEA135518BF95EA0C0F0CD050EA410618BF52EA4306D1D1B5
:2008C00081EA030101F000414FF0000070BD50EA410606BF1046194652EA430619D094EA24
:2008E0000C0F02D150EA013613D195EA0C0F05D152EA03361CBF104619460AD181EA0301F6
:2009000001F0004141F0FE4141F470014FF0000070BD41F0FE4141F4780170BD70B54FF074
:20092000FF0C4CF4E06C1CEA11541DBF1CEA135594EA0C0F95EA0C0F00F0A7F8A4EB050411
:2009400081EA030E52EA03354FEA013100F088804FEA03334FF0805545EA131343EA1263CA
:200960004FEA022245EA111545EA10654FEA00260EF000419D4208BF964244F1FD0404F5D6
:20098000407402D25B084FEA3202B61A65EB03055B084FEA32024FF480104FF4002CB6EB24
:2009A000020E75EB030E22BFB61A754640EA0C005B084FEA3202B6EB020E75EB030E22BF41
:2009C000B61A754640EA5C005B084FEA3202B6EB020E75EB030E22BFB61A754640EA9C00E2
:2009E0005B084FEA3202B6EB020E75EB030E22BFB61A754640EADC0055EA060E18D04FEA1F
:200A0000051545EA16754FEA06164FEAC30343EA52734FEAC2025FEA1C1CC0D111F4801F09
:200A20000BD141EA00014FF000004FF0004CB6E711F4801F04BF01430020B4F1FD0C88BF87
:200A4000BCF5E06F3FF6AFAEB5EB030C04BFB6EB020C5FEA500C50F1000041EB045170BD4F
:200A60000EF0004E4EEA113114EB5C04C2BFD4EB0C0541EA045170BD41F480114FF0000E40
:200A8000013C90E645EA060E8DE60CEA135594EA0C0F08BF95EA0C0F3FF43BAF94EA0C0FDF
:200AA0000AD150EA01347FF434AF95EA0C0F7FF425AF104619462CE795EA0C0F06D152EA40
:200AC00003353FF4FDAE1046194622E750EA410618BF52EA43067FF4C5AE50EA41047FF48D
:200AE0000DAF52EA43057FF4EBAE12E74FF0FF3C06E000BF4FF0010C02E000BF4FF0010C59
:200B00004DF804CD4FEA410C7FEA6C5C4FEA430C18BF7FEA6C5C1BD001B050EA410C0CBF8A
:200B200052EA430C91EA030F02BF90EA020F0020704710F1000F91EA030F58BF994208BF24
:200B400090422CBFD8176FEAE37040F0010070474FEA410C7FEA6C5C02D150EA013C07D17C
:200B60004FEA430C7FEA6C5CD6D152EA033CD3D05DF8040B704700BF8446104662468C4683
:200B80001946634600E000BF01B5FFF7B7FF002848BF10F1000F01BD4DF808EDFFF7F4FF2C
:200BA0000CBF012000205DF808FB00BF4DF808EDFFF7EAFF34BF012000205DF808FB00BFAE
:200BC0004DF808EDFFF7E0FF94BF012000205DF808FB00BF4DF808EDFFF7CEFF94BF0120EA
:200BE00000205DF808FB00BF4DF808EDFFF7C4FF34BF012000205DF808FB00BF4FEA410CFA
:200C00007FEA6C5C02D150EA013C0AD14FEA430C7FEA6C5C02D152EA033C02D14FF0000065
:200C200070474FF0010070474FEA410212F5001215D211D56FF47873B3EB625212D94FEAE0
:200C4000C12343F0004343EA505311F0004F23FA02F018BF404270474FF00000704750EACB
:200C6000013005D111F0004008BF6FF0004070474FF00000704700BF4A0011D212F5001214
:200C800011D20DD56FF47873B3EB62520ED44FEAC12343F0004343EA505323FA02F07047E4
:200CA0004FF00000704750EA013002D14FF0FF3070474FF0000070474FEA4102B2F1E043A3
:200CC00024BFB3F5001CDCF1FE5C0DD901F0004C4FEAC0024CEA5070B2F1004F40EB830092
:200CE00008BF20F00100704711F0804F21D113F13872BCBF01F00040704741F480114FEA93
:200D00005252C2F11802C2F1200C10FA0CF320FA02F018BF40F001004FEAC1234FEAD3231A
:200D200003FA0CFC40EA0C0023FA02F34FEA4303CCE77FEA625307D150EA01331EBF4FF0B4
:200D4000FE4040F44000704701F0004040F0FE4040F40000704700BF80F0004002E000BF90
:200D600081F0004142001FBF5FEA410392EA030F7FEA226C7FEA236C6AD04FEA1262D2EBF3
:200D80001363C1BFD218414048404140B8BF5B42192B88BF704710F0004F40F4000020F000
:200DA0007F4018BF404211F0004F41F4000121F07F4118BF494292EA030F3FD0A2F101022F
:200DC00041FA03FC10EB0C00C3F1200301FA03F100F0004302D5494260EB4000B0F5000F38
:200DE00013D3B0F1807F06D340084FEA310102F10102FE2A51D2B1F1004F40EBC25008BFAB
:200E000020F0010040EA03007047490040EB0000013A28BFB0F5000FEDD2B0FA80FCACF111
:200E2000080CB2EB0C0200FA0CF0AABF00EBC25052421843BCBFD0401843704792F0000F7A
:200E400081F4000106BF80F400000132013BB5E74FEA41037FEA226C18BF7FEA236C21D0A4
:200E600092EA030F04D092F0000F08BF0846704790EA010F1CBF0020704712F07F4F04D1D2
:200E8000400028BF40F00040704712F100723CBF00F50000704700F0004343F0FE4040F410
:200EA000000070477FEA226216BF08467FEA23630146420206BF5FEA412390EA010F40F4C1
:200EC000800070474FF0000304E000BF10F0004348BF40425FEA000C08BF704743F096434B
:200EE00001464FF000001CE050EA010208BF70474FF000030AE000BF50EA010208BF70470F
:200F000011F0004302D5404261EB41015FEA010C02BF84460146002043F0B64308BFA3F1D7
:200F20008053A3F50003BCFA8CF2083AA3EBC25310DB01FA02FC634400FA02FCC2F12002D2
:200F4000BCF1004F20FA02F243EB020008BF20F00100704702F1200201FA02FCC2F12002E5
:200F600050EA4C0021FA02F243EB020008BF20EADC70704753B94AB9002908BF00281CBFD6
:200F80004FF0FF314FF0FF3000F08EB9ADF1080C6DE904CE00F026F8DDF804E0DDE90223B1
:200FA00004B07047D0B5FFF737FB0C4B002206460F46FFF789FBFFF75FFE0446FFF70AFBED
:200FC000074B0022FFF780FB02460B4630463946FFF7C2F9FFF750FE2146D0BD0000F03D88
:200FE0000000F0412DE9F047089D04468C46002B40F083808A42174647D9B2FA82F242B1F8
:20100000C2F1200024FA00F09140974040EA010C94404FEA1748230CBCFBF8F61FFA87FE32
:2010200008FB16C143EA014306FB0EF1994209D9FB1806F1FF3080F01981994240F21681C1
:20104000023E3B445B1AA4B2B3FBF8F008FB103344EA034400FB0EFEA64509D93C1900F19B
:20106000FF3380F00581A64540F2028102383C4440EA0640A4EB0E0400261DB1D4400023B2
:20108000C5E900433146BDE8F08702B9FFDEB2FA82F2002A50D1CB1B4FEA174E1FFA87F8AD
:2010A0000126B3FBFEFC210C0EFB1C3341EA034108FB0CF38B4207D979180CF1FF3002D22D
:2010C0008B4200F2E9808446C91AA3B2B1FBFEF00EFB101143EA014408FB00F8A04507D9F0
:2010E0003C1900F1FF3302D2A04500F2D9801846A4EB080440EA0C40BFE78B4209D9002D83
:2011000000F0B1800026C5E9000130463146BDE8F087B3FA83F6002E4AD18B4202D38242FB
:2011200000F2B880841A61EB030101208C46002DA8D0C5E9004CA5E7C2F1200320FA03F690
:20114000974001FA02F04FEA174ED9403043030CB1FBFEF61FFA87F80EFB161143EA0143B9
:2011600006FB08F1994204FA02F409D9FB1806F1FF3C80F08D80994240F28A80023E3B442C
:201180005B1A81B2B3FBFEF00EFB103341EA034100FB08F38B4207D9791800F1FF3C73D2AB
:2011A0008B4271D902383944CB1A40EA064678E7C6F1200C03FA06F422FA0CF31C4320FA39
:2011C0000CF701FA06F34FEA144E21FA0CF11F433B0CB1FBFEF91FFA84F80EFB191143EA24
:2011E000014109FB08FA8A4502FA06F200FA06F308D9611809F1FF3048D28A4546D9A9F1CC
:2012000002092144A1EB0A01BFB2B1FBFEF00EFB101147EA014700FB08F8B84507D9E71941
:2012200000F1FF312ED2B8452CD90238274440EA0940A7EB0807A0FB02894F45C64649467D
:201240001AD317D05DB1B3EB0E0267EB010707FA0CFCF2404CEA0202F740C5E900270026FD
:201260003146BDE8F0872E4628460BE70646E9E61846FDE64345E5D2B8EB020E69EB040160
:201280000138DFE70846D2E760468DE78146B9E7664675E730464AE7ACF1020C394413E7F6
:2012A00002383C4424E700BF704700BF80B584B000AF0346FB71FB793B7300237B7307F13C
:2012C0000C0301220349184617F022FF00BF1037BD4680BDDC01002080B584B000AF034666
:2012E000FB71FB793B7300237B7307F10C0301220349184617F00CFF00BF1037BD4680BD23
:20130000E401002080B584B000AF78600B46FB701346BB700023FB60BB789BB21A46D20068
:20132000D31A9AB2FB7801339BB2194689000B445B009BB21946104617F054FE0122054922
:20134000786817F0E5FE17F0A7FD00BF1037BD4680BD00BFDC01002080B584B000AF0346B5
:201360000A46FB711346BB71BB79002B04D1FB7903F00F03FB7306E0FB7923F00F03FB7324
:20138000FB7B1B09FB73FB7B3033DBB21846FFF78DFF00BF1037BD4680BD80B582B000AFA3
:2013A00003460A46FB711346BB71BB799BB21A46D200D31A9AB2FB7901339BB219468900DA
:2013C0000B445B009BB21946104617F00BFE00BF0837BD4680BD80B483B000AF7860012301
:2013E00018460C37BD465DF8047B704780B582B000AF184B1B68092B27D008F0CFFF00F0E1
:2014000033F8144B09221A60124B134A5A63114B114A9A630F4B114ADA630E4B01225A6446
:201420000C4B0F221A640E4B7B607B684FF0FF321A6000F06DFC0EF04FFF0A49064816F059
:2014400021FA0EF049FF08F0A2FF00BF0837BD4680BD00BF0040024000000A084C40024033
:201460003C400240FFFF0D0880B582B000AF064B7B604FF40062FF2178682CF0DDF900BF03
:201480000837BD4680BD00BF0040024080B582B000AF4F4B5B6B4F4A934204D94C4B5B6B6E
:2014A0004D4A934213D90EF017FF4C494C4816F0E9F90EF011FF4B494B4816F0E3F9444B09
:2014C0006FF009021A60FFF791FF0EF015FF404B5A6B3F4B9B6B9A4219D10EF0FDFE3C4B6A
:2014E0009B6B184600F08EF80EF0F6FE384B9B6B03F500333D4A934203D9354B3C4A9A6331
:2015000005E0334B9B6B324A03F500339363042000F092F800F0FCFB08F040FF0EF0DCFE31
:201520004FF4806233492A4804F021FB284B5B6B1846304B4FF48062194616F00BFA0EF0E9
:20154000CBFE4FF480622B492B4804F010FB204B5B6B03F580631846264B4FF48062194658
:2015600016F0F8F90EF0B8FE08F011FF184B5B6B03F500631D4A934206D9154B1C4A5A6396
:20158000134B1B4A9A6305E0114B5B6B104A03F5006353630E4B194ADA630D4BDB6B3B60E7
:2015A0000B4BDB6B7B6008E03B68FF221A703B6801333B607B6801337B607B68104A934208
:2015C000F2D3034B01225A6400BF0837BD4680BD00400240FFFF0908FFFF0D08FFBF00086F
:2015E00000800008FFFF000800C00008FEFF0D0800000A08988A0120004402404C400240DA
:201600000048024080B582B000AF786008F0C6FE0EF062FE7A687B6803F5FF437F33194628
:20162000104616F02FF90EF057FE08F0B0FE00BF0837BD4680BD000090B58BB000AF034677
:20164000FB82B7F91630042B41D1244B04221A60224C3B4618460EF04BF804343B46186800
:2016600059689A68DB680FC41D4B5B6B1B4A53611A4B5B6903F2FF73184A9361184A174BA0
:20168000141D04330FCB84E80F00154BDB6B3B62124BFB610023FB840FE0FB691A683B6A75
:2016A0001A603B6A04333B62FB690433FB61B7F926309BB201339BB2FB84FB8C062BECD970
:2016C000074A3B6AD3633B6A4FF0FF321A6000F01FFB00BF2C37BD4690BD00BF24110020BF
:2016E0000040024090B58DB002AF0346FB8200237B8302237B83984B1B78012B00F0FF8218
:20170000B7F91A30002B00F0FB82B7F916300C2B44D1924B0C221A60904C3B4618460DF0B8
:20172000E7FF04343B46186859689A68DB680FC48B4BB3F900301A46884B5A61894A874B6C
:201740005B691364874A854B141D04330FCB84E80F00844B01225A64824BDB6B3B627F4BC6
:20176000FB610023FB840FE0FB691A683B6A1A603B6A04333B62FB690433FB61B7F9263001
:201780009BB201339BB2FB84FB8C052BECD9754A3B6AD3633B6A4FF0FF321A60B7F9163061
:2017A000012B57D16D4B01221A606C4C3B4618460DF09EFF04343B46186859689A68DB6810
:2017C0000FC4674BB3F900301A46644B5A61654A624B5B691364634A604B141D04330FCBAD
:2017E00084E80F005F4B01225A645E4BDB6B3B625A4BFB610023FB840FE0FB691A683B6A3A
:201800001A603B6A04333B62FB690433FB61B7F926309BB201339BB2FB84FB8C052BECD90F
:20182000504A3B6AD3633B6A4FF0FF321A604B4BB3F91030DBB20133DAB24B4B1A70474B23
:20184000B3F910303C2B02D1474B00221A70474B00221A60B7F91630032B03D0B7F9163009
:20186000022B01D11223FB82B7F91630122B04D0B7F916300B2B40F0B180B7F916303C4AA7
:201880001360384C3B4618460DF032FF04343B46186859689A68DB680FC4364B1B68344AB0
:2018A0001361354B1B68324A5361344B1B68304A9361334B1B682E4AD361324B1B682C4AEE
:2018C0001362314B1B682A4A5362304B1B68284A93622F4B1B68264AD3622E4B1B68244AFA
:2018E00013632D4B1B68224A53632C4B1B68204A93632B4B1B681E4AD3632A4B1B6807EE77
:20190000903AF8EEE77A1A4BC3ED107AB7F916300B2B0CD1134B0022009204330FCB0DF0EE
:2019200051FF02460B461249C1E902230BE00D4B0122009204330FCB0DF044FF02460B46B2
:201940000B49C1E90223074BDB6B3B62084BFB610023FB8438E000BFF05D0020C0100020AA
:201960002807002000400240D05D0020E0080120305E002004070020080700200C07002005
:201980001007002014070020180700201C07002020070020D47D0120C05D002060070020D6
:2019A00064070020BC7A0020FB691A683B6A1A603B6A04333B62FB690433FB61B7F92630CB
:2019C0009BB201339BB2FB84FB8C112BECD9854A3B6AD3633B6A4FF0FF321A60B7F9163003
:2019E000032B54D1804B03221A60804B1B687E4A53607F4B1B687C4A93607E4B1B687A4A4B
:201A0000D3607D4B1B68784A13617C4B1B68764A53617B4B1B68744A93617A4B1B68724A55
:201A2000D361794B1B68704A1362784B1B686E4A53626C4C3B4618460DF05AFE04343B46A4
:201A4000186859689A68DB680FC4664BDB6B3B62654BFB610023FB840FE0FB691A683B6A71
:201A60001A603B6A04333B62FB690433FB61B7F926309BB201339BB2FB84FB8C092BECD9A9
:201A8000584A3B6AD3633B6A4FF0FF321A60B7F91630052B37D15E4B05221A605C4C3B4699
:201AA00018460DF025FE04343B46186859689A68DB680FC44B4A564B141D04330FCB84E8B2
:201AC0000F00484BDB6B3B62514BFB610023FB840FE0FB691A683B6A1A603B6A04333B627A
:201AE000FB690433FB61B7F926309BB201339BB2FB84FB8C062BECD93A4A3B6AD3633B6A1B
:201B00004FF0FF321A60B7F91630062B3DD1414B06221A603F4C3B4618460DF0E9FD0434F3
:201B20003B46186859689A68DB680FC43A4BB3F900301A46374B5A612A4BDB6B3B62354BF5
:201B4000FB61284A334B141D04330FCB84E80F000023FB840FE0FB691A683B6A1A603B6A41
:201B600004333B62FB690433FB61B7F926309BB201339BB2FB84FB8C052BECD9194A3B6AC3
:201B8000D3633B6A4FF0FF321A60B7F91630072B60D1224B07221A60204C3B4618460DF0CF
:201BA000A7FD04343B46186859689A68DB680FC40C4A1A4B141D04330FCB84E80F00094AA4
:201BC000164B02F1140404330FCB84E80F00054B01225A64034BDB6B3B62104BFB610023D1
:201BE000FB842DE000400240FC10002004070020080700200C0700201007002014070020AC
:201C0000180700201C070020200700202407002080100020A8100020D2060020D810002028
:201C2000FB691A683B6A1A603B6A04333B62FB690433FB61B7F926309BB201339BB2FB84DC
:201C4000FB8C042BECD9304A3B6AD3633B6A4FF0FF321A60B7F91630082B42D12B4B082249
:201C60001A602A4C3B4618460DF042FD04343B46186859689A68DB680FC4234A234B141D3B
:201C800004330FCB84E80F001F4A204B02F1240404330FCB84E80F001B4B01225A641A4B91
:201CA000DB6B3B62194BFB610023FB840FE0FB691A683B6A1A603B6A04333B62FB690433D7
:201CC000FB61B7F926309BB201339BB2FB84FB8C042BECD90C4A3B6AD3633B6A4FF0FF3294
:201CE0001A6000F015F8084BDB6BA3F14023A3F50033B3F5E76F03D9FFF7C8FB00E000BFE0
:201D00002C37BD4690BD00BF00400240D810002080B485B000AF00237B60114B00229A6435
:201D20000F4BBB600023FB600AE0BB681B687A6813447B60BB680433BB60FB680133FB60A5
:201D4000FB68B3F5007FF0D37B685B427B60044A7B68936400BF1437BD465DF8047B70471B
:201D60000040024080B483B000AF87ED010AD7ED017AF5EEC07AF1EE10FA02D54FF00003EE
:201D800000E07B6807EE903AB0EE670A0C37BD465DF8047B7047000080B500AF744B1B68BB
:201DA000744A1360744B1B68744A1360744B1B68744A1360744B1B68744A1360744B1B6857
:201DC000744A1360744B1B68744A1360744B754A1B681360744B754A1B681360744B754AF9
:201DE0001B681360744B754A1B681360744B754A1B681360744B754A1B681360744B754A13
:201E00001B681360744B754A1B681360744B754A1B681360744B754A1B681360744B754AF2
:201E20001B681360744B754A1B681360744BB3F90030032B00F22A8201A252F823F000BF12
:201E4000511E02084D2002086D2102088D220208484B93ED007A6B4BD3ED007AB4EEE77AC1
:201E6000F1EE10FA03DD434B1B68664A1360474B93ED007A644BD3ED007AB4EEE77AF1EE0E
:201E800010FA03DD414B1B685F4A13605F4B93ED007A384BD3ED007AB4EEE77AF1EE10FAE0
:201EA00003D55A4A334B1B681360594B93ED007A364BD3ED007AB4EEE77AF1EE10FA03D515
:201EC000534A324B1B681360524B93ED007A294BD3ED007AB4EEE77AF1EE10FA03D54D4A52
:201EE000244B1B6813604C4B93ED007A274BD3ED007AB4EEE77AF1EE10FA03D5464A234B7E
:201F00001B681360454B93ED007A1A4BD3ED007AB4EEE77AF1EE10FA0ED5404A154B1B6866
:201F200013603F4B3F4A114618460EF072F83E4A3E493F4802F070FC3E4B93ED007A134B29
:201F4000D3ED007AB4EEE77AF1EE10FA00D49DE1384A0E4B1B681360374B384A114618467F
:201F60000EF057F8364A3749374802F055FC8DE1380500205C1000203C0500205810002012
:201F8000400500204C100020440500205410002048050020501000204C0500206010002085
:201FA00008050020780400200C0500207C04002010050020800400201405002084040020CD
:201FC00018050020880400201C0500208C040020200500209004002024050020940400202D
:201FE00028050020980400202C0500209C04002030050020A004002034050020A40400208D
:020000040802F0
:20200000A87A0020E0AE0020E8AE0020F0040020FC040020600400206C0400205C05002051
:20202000160600201E0600201806002010060020500500208C050020460600204E060020A6
:20204000480600204006002080050020914B93ED007A914BD3ED007AB4EEE77AF1EE10FA2F
:2020600003DD8C4B1B688C4A13608C4B93ED007A8B4BD3ED007AB4EEE77AF1EE10FA03DD30
:20208000864B1B68864A1360864B93ED007A814BD3ED007AB4EEE77AF1EE10FA03D5814A49
:2020A0007C4B1B681360804B93ED007A7B4BD3ED007AB4EEE77AF1EE10FA03D57A4A774B54
:2020C0001B681360794B93ED007A724BD3ED007AB4EEE77AF1EE10FA03D5744A6D4B1B6898
:2020E0001360734B93ED007A6C4BD3ED007AB4EEE77AF1EE10FA03D56D4A684B1B681360A0
:202100006C4B93ED007A634BD3ED007AB4EEE77AF1EE10FA0ED5674A5E4B1B681360664B56
:20212000664A114618460DF074FF654A6549664802F072FB654B93ED007A584BD3ED007AD9
:20214000B4EEE77AF1EE10FA00D49FE05F4A534B1B6813605E4B5F4A114618460DF059FFA7
:202160005D4A5E495E4802F057FB8FE05D4B93ED007A5D4BD3ED007AB4EEE77AF1EE10FA48
:2021800003DD584B1B68584A1360584B93ED007A574BD3ED007AB4EEE77AF1EE10FA03DDDF
:2021A000524B1B68524A1360524B93ED007A4D4BD3ED007AB4EEE77AF1EE10FA03D54D4A2C
:2021C000484B1B6813604C4B93ED007A474BD3ED007AB4EEE77AF1EE10FA03D5464A434B37
:2021E0001B681360454B93ED007A3E4BD3ED007AB4EEE77AF1EE10FA03D5404A394B1B6847
:2022000013603F4B93ED007A384BD3ED007AB4EEE77AF1EE10FA03D5394A344B1B6813604E
:20222000384B93ED007A2F4BD3ED007AB4EEE77AF1EE10FA0ED5334A2A4B1B681360324B39
:20224000324A114618460DF0E4FE314A3149324802F0E2FA314B93ED007A244BD3ED007A12
:20226000B4EEE77AF1EE10FA00D40EE02B4A1F4B1B6813602A4B2B4A114618460DF0C9FE78
:20228000294A2A492A4802F0C7FA00BF00F0C6F800BF80BD581000205C8F002050100020B7
:2022A000886D0120F40400200005002064040020700400206C050020260600202E0600207E
:2022C0002806002020060020600500209C050020560600205E060020580600205006002030
:2022E000900500204C1000203891012060100020AC7A0020F804002004050020680400201C
:20230000740400207C050020360600203E060020380600203006002070050020AC050020AA
:20232000660600206E0600206806002060060020A005002080B400AF264B4FF000021A6095
:20234000254B4FF000021A60244B4FF000021A60234B4FF000021A60224B4FF000021A60D7
:20236000214B4FF000021A60204B4FF000021A601F4B4FF000021A601E4B4FF000021A60C7
:202380001D4B4FF000021A601C4B4FF000021A601B4B4FF000021A601A4B4FF000021A60B7
:2023A000194B4FF000021A60184B4FF000021A60174B4FF000021A60164B4FF000021A60A7
:2023C000154B4FF000021A6000BFBD465DF8047B704700BF5C100020581000204C10002046
:2023E000541000205010002060100020780400207C04002080040020840400208804002015
:202400008C0400209004002094040020980400209C040020A0040020A404002080B400AFB5
:20242000284B4FF000021A60274B4FF000021A60264B4FF000021A60254B4FF000021A60EA
:20244000244B4FF000021A60234B4FF000021A60224B4FF000021A60214B4FF000021A60DA
:20246000204B4FF000021A601F4B4FF000021A601E4B4FF000021A601D4B4FF000021A60CA
:202480001C4B4FF000021A601B4B4FF000021A601A4B4FF000021A60194B4FF000021A60BA
:2024A000184B4FF000021A60174B4FF000021A60164B4FF000021A6000BFBD465DF8047B2F
:2024C000704700BF30910120380500203C0500204005002044050020480500204C0500203A
:2024E000080500200C0500201005002014050020180500201C050020200500202405002004
:20250000280500202C050020300500203405002080B584B000AF02F05FFA3B4618460DF030
:20252000E7F8B7F90C301A461C4B1B789A4231D1B7F90C30DBB20133DAB2184B1A70174B10
:202540001B783C2B02D1154B00221A70144B1B680133134A1360134B1A68114B1B689A4221
:2025600018D10F4B00221A600F4BB3F900301A460C4B1A6002F0CAFA0C4B5B6C012B06D13E
:202580000220FFF7AFF8094B00225A6402E00320FFF7A8F800BF1037BD4680BDD05D00201A
:2025A000E0080120C07A0020280700200040024090B585B000AF5B4BB3F900300F2B01D130
:2025C00002F00AFA3B4618460DF092F8B7F90C30002B0BD0B7F90C300F2B07D0B7F90C30C4
:2025E0001E2B03D0B7F90C302D2B24D14E4B1B78002B20D14B4BB3F900300F2B0FD102F0C0
:2026000085FA4A4B5B6C012B06D10220FFF76AF8464B00225A6402E00320FFF763F8424B0E
:2026200001221A70B7F90C30DBB20233DAB2404B1A70FFF7B1FBB7F90C301A463C4B1B7896
:202640009A4202DD384B00221A70B7F90820394BB3F900309A4205D0B7F90820354B1A80B5
:2026600000F072F8344BB3F90030002B2ED1334B1B78002B16D1B7F90220314BB3F900302E
:202680009A420FD0B7F902202D4B1A802D4BB3F90030002B03D100F0CBF800F063FA294BD4
:2026A00000221A80254B1B78012B36D1234B00221A70244BB3F90030002B2ED100F0B8F8F9
:2026C00000F050FA1F4B01221A8026E0B7F902201B4BB3F900309A4209D0B7F90220184B95
:2026E0001A80184B00221A80144B00221A70154BB3F90030002B10D10F4BB3F900403B4607
:202700000FCB0DF073FC03469C4206D100F090F800F028FA0B4B01221A8000BF1437BD46CB
:2027200090BD00BF280700209436002000400240A5360020444D0120D00600200491012079
:20274000D07A00205864002080B400AF264B4FF000021A60254B4FF000021A60244B4FF04B
:2027600000021A60234B4FF000021A60224B4FF000021A60214B4FF000021A60204B4FF0BB
:2027800000021A601F4B4FF000021A601E4B4FF000021A601D4B4FF000021A601C4B4FF0AB
:2027A00000021A601B4B4FF000021A601A4B4FF000021A60194B4FF000021A60184B4FF09B
:2027C00000021A60174B4FF000021A60164B4FF000021A60154B4FF000021A6000BFBD4667
:2027E0005DF8047B704700BF6004002064040020680400206C04002070040020740400203B
:20280000E8080120E08E00200409012070360020287E0120DC0801207C4D0120A80801209E
:202820008464002054040020580400205C04002080B483B000AF884B1B68884A1360884B98
:202840001B68884A1360884B1B68884A1360884B1B68884A1360884B1B68884A1360884B0C
:202860001B68884A1360884B1B68884A1360884B1B68884A1360884B1B68884A1360884BEC
:202880001B68884A1360884B1B68884A1360884B1B68884A1360884B1B68884A1360884BCC
:2028A0001B68884A1360884B1B68884A1360884B00221A7000237B60C2E07B689B00854A49
:2028C0001A447B689B0084490B4412681A607B689B00824A1A447B689B0081490B44126853
:2028E0001A607B689B007F4A1A447B689B007E490B4412681A607B689B007C4A1A447B68AC
:202900009B007B490B4412681A607B689B00794A1A447B689B0078490B4412681A607B6811
:202920009B00764A1A447B689B0075490B4412681A607B685B00734A1A447B685B0072490D
:202940000B44B2F900201A807B685B006F4A1A447B685B006E490B44B2F900201A807B68E2
:202960005B006C4A1A447B685B006B490B44B2F900201A807B685B00684A1A447B685B00B6
:2029800067490B44B2F900201A807B685B00654A1A447B685B0064490B44B2F900201A80E9
:2029A0007B685B00614A1A447B685B0060490B44B2F900201A807B685B005E4A1A447B680E
:2029C0005B005D490B44B2F900201A807B685B005A4A1A447B685B0059490B44B2F9002008
:2029E0001A807B685B00574A1A447B685B0056490B44B2F900201A807B685B00534A1A4436
:202A00007B685B0052490B44B2F900201A807B685B00504A1A447B685B004F490B44B2F923
:202A200000201A807B685B004C4A1A447B685B004B490B44B2F900201A807B6801337B6032
:202A40007B68032B7FF739AF00BF00BF0C37BD465DF8047B704700BFE08800202C1501200F
:202A6000F4820020684D0120C45D002048FC0020C8AE00207851002064640020647E0120DB
:202A8000A4510020B07A002088080120E47A002050BB0020D47A00209036002028BB002026
:202AA000E0AE0020804D01205C8F0020985100203891012050A00020E8AE0020347E0120E3
:202AC000886D01206CA00020AC7A00207C6400200491012050050020B005002060050020E9
:202AE000C005002070050020D005002080050020E005002090050020F0050020A00500202E
:202B00000006002010060020700600201806002078060020200600208006002028060020AD
:202B2000880600203006002090060020380600209806002040060020A00600204806002025
:202B4000A806002050060020B006002058060020B806002060060020C00600206806002005
:202B6000C806002080B483B000AF674B1B78012B2FD1664B4FF000021A60654B4FF0000283
:202B80001A60644B4FF000021A60634B4FF000021A60624B4FF000021A60614B4FF0000293
:202BA0001A60604B4FF000021A605F4B4FF000021A605E4B4FF000021A605D4B4FF0000283
:202BC0001A605C4B4FF000021A605B4B4FF000021A605A4B4FF000021A60594B4FF0000273
:202BE0001A60584B4FF000021A60574B4FF000021A60564B4FF000021A60554B4FF0000263
:202C00001A6000237B6074E07B689B00514A13444FF000021A607B689B004F4A13444FF010
:202C200000021A607B689B004C4A13444FF000021A607B689B004A4A13444FF000021A60CE
:202C40007B689B00474A13444FF000021A607B689B00454A13444FF000021A607B685B00F6
:202C6000424A134400221A807B685B00404A134400221A807B685B003E4A134400221A8001
:202C80007B685B003C4A134400221A807B685B003A4A134400221A807B685B00384A134471
:202CA00000221A807B685B00364A134400221A807B685B00344A134400221A807B685B007A
:202CC000324A134400221A807B685B00304A134400221A807B685B002E4A134400221A80D1
:202CE0007B685B002C4A134400221A807B6801337B607B68032B87DD00BF00BF0C37BD46E2
:202D00005DF8047B704700BF6836002048BB002018EC00208CA10120E0880020F4820020F8
:202D2000C45D0020C8AE002064640020A45100208808012050BB002090360020E0AE00204F
:202D40005C8F002038910120E8AE0020886D0120AC7A0020500500206005002070050020DD
:202D60008005002090050020A00500201006002018060020200600202806002030060020D6
:202D80003806002040060020480600205006002058060020600600206806002080B483B092
:202DA00000AF654B4FF000021A60644B4FF000021A60634B4FF000021A60624B4FF0000238
:202DC0001A60614B4FF000021A60604B4FF000021A605F4B4FF000021A605E4B4FF000025D
:202DE0001A605D4B4FF000021A605C4B4FF000021A605B4B4FF000021A605A4B4FF000024D
:202E00001A60594B4FF000021A60584B4FF000021A60574B4FF000021A60564B4FF000023C
:202E20001A60554B4FF000021A60544B4FF000021A6000237B6074E07B689B00504A1344A2
:202E40004FF000021A607B689B004E4A13444FF000021A607B689B004B4A13444FF00002E4
:202E60001A607B689B00494A13444FF000021A607B689B00464A13444FF000021A607B68B2
:202E80009B00444A13444FF000021A607B685B00414A134400221A807B685B003F4A1344FD
:202EA00000221A807B685B003D4A134400221A807B685B003B4A134400221A807B685B006A
:202EC000394A134400221A807B685B00374A134400221A807B685B00354A134400221A80BA
:202EE0007B685B00334A134400221A807B685B00314A134400221A807B685B002F4A13442A
:202F000000221A807B685B002D4A134400221A807B685B002B4A134400221A807B68013350
:202F20007B607B68032B87DD00BF00BF0C37BD465DF8047B704700BF404500204C4D0120D4
:202F4000A8A000202C150120684D012048FC002078510020647E0120B07A0020E47A0020B9
:202F6000D47A002028BB0020804D01209851002050A00020347E01206CA000207C640020DA
:202F8000B0050020C0050020D0050020E0050020F00500200006002070060020780600200E
:202FA00080060020880600209006002098060020A0060020A8060020B0060020B806002001
:202FC000C0060020C806002080B400AF264B4FF000021A60254B4FF000021A60244B4FF035
:202FE00000021A60234B4FF000021A60224B4FF000021A60214B4FF000021A60204B4FF033
:2030000000021A601F4B4FF000021A601E4B4FF000021A601D4B4FF000021A601C4B4FF022
:2030200000021A601B4B4FF000021A601A4B4FF000021A60194B4FF000021A60184B4FF012
:2030400000021A60174B4FF000021A60164B4FF000021A60154B4FF000021A6000BFBD46DE
:203060005DF8047B704700BFC0040020C4040020C8040020CC040020D0040020D404002072
:20308000D8040020DC040020E0040020E4040020E8040020EC040020F0040020F4040020E0
:2030A000F8040020FC0400200005002004050020B0B584B000AFB14BB3F90030002B01F04A
:2030C0008B83AF4B002283F8A326AD4B012283F8A726AC4B00221A70AB4B4FF07E521A60FD
:2030E000AA4B4FF07E521A60A94BDC221A80A94BDC221A80A84B01221A80A84B05221A80D6
:20310000A74B05221A80A74B01221A809B4BB3F90030013B6D2B01F2608301A252F823F0E1
:20312000D932020865340208C5340208533502089F350208933602087D370208D5390208BB
:20314000D932020865340208C5340208C93A0208E93A0208413B02088F3B0208AF3B02082C
:20316000073C0208553C0208753C0208413D02088F3D0208553E0208AD3E0208733F020800
:2031800021400208E54002083B4102086341020883410208A3410208C3410208FB41020851
:2031A0001B4202082B4202083B4202084B4202085B4202086B4202087B4202088B42020817
:2031C0000D4302081D430208354302084D430208654302087543020885430208B5430208C7
:2031E000B1470208DB470208DB470208DB470208DB470208DB470208DB470208DB47020899
:20320000DB470208DB470208DB470208DB470208DB470208DB470208DB470208DB4702084E
:20322000DB470208DB470208DB470208DB470208DB470208DB470208DB470208DB4702082E
:20324000DB470208DB470208DB470208DB470208DB470208DB470208DB470208DB4702080E
:20326000DB470208DB470208DB470208DB470208DB470208DB470208DB470208DB470208EE
:20328000DB470208DB470208DB470208DB470208DB470208DB470208DB470208DB470208CE
:2032A000DB470208DB470208DB470208DB47020865330208DD330208DB470208DB4702084A
:2032C000DB470208DB470208DB470208DB47020865330208DD330208334B01221A8002F055
:2032E0006FFC324B00221A80314B00221A80314B00221A80304B00221A80304B00221A804C
:203300002F4B00221A802F4B1B682F4A13602D4B5B682D4A53602B4B9B682B4A93602B4BD2
:203320001B682B4A1360294B5B68294A5360274B9B68274A9360274B1B68274A1360254BA3
:203340005B68254A5360234B9B68234A93600B4BB3F900309BB264339AB2084B12B21A80A4
:2033600001F03BBA054BB3F900309BB201339AB2024B12B21A8001F030BA00BFBE08002043
:20338000680200200CBC0020E8020020E40200207002002072020020740200207602002057
:2033A000780200207A020020FA8E0020BC070020BE070020C0070020C2070020C4070020AC
:2033C000C60700201436050824900020243605087836002034360508D45D0020AF4B0022BC
:2033E0001A80AF4BD3ED007AAE4BFDEEE77A17EE902A12B21A80AC4BD3ED007AAB4BFDEE8B
:20340000E77A17EE902A12B21A80A94BD3ED007AA84BFDEEE77A17EE902A12B21A80A64BB3
:20342000D3ED007AA54BFDEEE77A17EE902A12B21A80A34BD3ED007AA24BFDEEE77A17EE93
:20344000902A12B21A80A04BD3ED007A9F4BFDEEE77A17EE902A12B21A809D4B00221A8038
:2034600001F0BBB99B4BD3ED006A9B4B93ED007A9A4BC6EE877AC3ED007A964BD3ED006A28
:20348000974B93ED007A974BC6EE877AC3ED007A904BD3ED006A944B93ED007A934BC6EE1F
:2034A000877AC3ED007A924B93ED007A914BDFED926AC6EE877AC3ED007A854B00221A80FB
:2034C00001F08BB9834BD3ED006A8C4B93ED007A8B4BC6EE877AC3ED007A8A4BD3ED006A3A
:2034E000894B93ED007A894BC6EE877AC3ED007A874BD3ED006A874B93ED007A864BC6EEFE
:20350000877AC3ED007A854BD3ED006A844B93ED007A844BC6EE877AC3ED007A824BD3ED82
:20352000006A824B93ED007A814BC6EE877AC3ED007A804BD3ED006A7F4B93ED007A7F4B2C
:20354000C6EE877AC3ED007A614B00221A8001F044B9724BD3ED006A794B93ED007A794BCD
:20356000C6EE877AC3ED007A6C4BD3ED006A764B93ED007A754BC6EE877AC3ED007A674B7F
:20358000D3ED006A724B93ED007A724BC6EE877AC3ED007A4E4B00221A8001F01EB96E4BD8
:2035A0001B681846FDF738F804460D466B4B1B681846FDF731F802460B4643EC102B2BF097
:2035C00047FA53EC102B20462946FCF7C5FE02460B4610461946FDF76FFB07EE900AF0EE8C
:2035E000E77A5F4BF1EE677AC3ED007A5D4B1B681846FDF711F804460D465B4B1B6818462C
:20360000FDF70AF802460B4643EC102B2BF020FA53EC102B20462946FCF79EFE02460B4605
:2036200010461946FDF748FB07EE900AF0EEE77A4E4BF1EE677AC3ED007A4D4B1B681846D4
:20364000FCF7EAFF04460D464A4B1B681846FCF7E3FF02460B4643EC102B2BF0F9F953EC57
:20366000102B20462946FCF777FE02460B4610461946FDF721FB07EE900AF0EEE77A3E4B1D
:20368000F1EE677AC3ED007A114B00221A8001F0A4B80F4B00221A8001F09FB8FA8E0020D5
:2036A0002C910120BC07002008BC0020BE070020A4080120C0070020788F0020C2070020BC
:2036C00050360020C4070020587E0120C6070020BE0800207C080020F0020020880700202A
:2036E000F40200208C070020F802002090070020EC020020B80700200000704238EC00204D
:20370000A0070020800800209C360020A4070020840800204CFC0020A807002088080020EA
:2037200020150120AC0700208C0800205CA00020B007002090080020CC8E0020B4070020AC
:20374000FC020020940700200003002098070020040300209C070020AC0800203803002095
:20376000D4070020B00800203C030020E4070020B408002040030020F40700208A4BB3F931
:203780000030DAB2894B83F81026894BB3F90030DAB2864B83F81126864BB3F90030DAB2F0
:2037A000824B83F81226804BB3F90030002B0FD1814B4FF000021A607F4B4FF000025A608B
:2037C0007D4B4FF07E529A607B4B4FF00002DA60754BB3F90030012B0FD1784B1B68764A29
:2037E0001360764B5B68744A5360744B9B68724A9360724BDB68704AD3606B4BB3F9003071
:20380000022B0FD16E4B1B686B4A13606C4B5B68694A53606A4B9B68674A9360684BDB6805
:20382000654AD360604BB3F90030032B0FD1654B1B68614A1360634B5B685F4A5360614B47
:203840009B685D4A93605F4BDB685B4AD360584BB3F90030002B0FD15B4B4FF000021A601B
:20386000594B4FF000025A60574B4FF07E529A60554B4FF00002DA604D4BB3F90030012B43
:203880000FD14E4B1B68504A13604C4B5B684E4A53604A4B9B684C4A9360484BDB684A4AEF
:2038A000D360434BB3F90030022B0FD1444B1B68454A1360424B5B68434A5360404B9B682C
:2038C000414A93603E4BDB683F4AD360384BB3F90030032B0FD13B4B1B683B4A1360394BF0
:2038E0005B68394A5360374B9B68374A9360354BDB68354AD3602F4BB3F90030002B0FD100
:20390000324B4FF000021A60304B4FF000025A602E4B4FF07E529A602C4B4FF00002DA6085
:20392000244BB3F90030012B0FD1244B1B68274A1360224B5B68254A5360204B9B68234A2D
:2039400093601E4BDB68214AD3601A4BB3F90030022B0FD11A4B1B681C4A1360184B5B68F5
:203960001A4A5360164B9B68184A9360144BDB68164AD3600F4BB3F90030032B0FD1114BA2
:203980001B68124A13600F4B5B68104A53600D4B9B680E4A93600B4BDB680C4AD3600C4B8C
:2039A00000221A8000F019BFB808002068020020BA080020BC080020249000201436050828
:2039C000243605083436050878360020D45D0020BE080020C04B1B681846FCF71DFE0446C0
:2039E0000D46BE4B1B681846FCF716FE02460B4643EC102B2BF02CF853EC102B20462946F2
:203A0000FCF7AAFC02460B4610461946FDF754F907EE900AF0EEE77AB14BF1EE677AC3ED44
:203A2000007AB04B1B681846FCF7F6FD04460D46AD4B1B681846FCF7EFFD02460B4643EC2D
:203A4000102B2BF005F853EC102B20462946FCF783FC02460B4610461946FDF72DF907EEF5
:203A6000900AF0EEE77AA14BF1EE677AC3ED007A9F4B1B681846FCF7CFFD04460D469D4B88
:203A80001B681846FCF7C8FD02460B4643EC102B2AF0DEFF53EC102B20462946FCF75CFCF9
:203AA00002460B4610461946FDF706F907EE900AF0EEE77A904BF1EE677AC3ED007A8F4B58
:203AC00000221A8000F089BE8D4BD3ED006A8D4B93ED007A8C4BC6EE877AC3ED007A874B97
:203AE00000221A8000F079BE7B4B1B681846FCF793FD04460D46794B1B681846FCF78CFDFB
:203B000002460B4643EC102B2AF0A2FF53EC102B20462946FCF720FC02460B46104619463B
:203B2000FDF7CAF807EE900AF0EEE77A774BF1EE677AC3ED007A714B00221A8000F04DBEE2
:203B4000704B1B681846FCF767FD61A3D3E90023FCF7BAFD02460B4614461D466C4B1B6855
:203B60001846FCF759FD02460B4620462946FCF7D5FE02460B46674C10461946FDF79CF8E1
:203B8000034623605D4B00221A8000F026BE624BD3ED006A614B93ED007A614BC6EE877A43
:203BA000C3ED007A554B00221A8000F016BE4D4B1B681846FCF730FD04460D464A4B1B686D
:203BC0001846FCF729FD02460B4643EC102B2AF03FFF53EC102B20462946FCF7BDFB0246D1
:203BE0000B4610461946FDF767F807EE900AF0EEE77A4C4BF1EE677AC3ED007A3F4B002271
:203C00001A8000F0EABD454B1B681846FCF704FD2FA3D3E90023FCF757FD02460B46144623
:203C20001D46414B1B681846FCF7F6FC02460B4620462946FCF772FE02460B463B4C104688
:203C40001946FDF739F8034623602C4B00221A8000F0C3BD364BD3ED006A364B93ED007A4B
:203C6000354BC6EE877AC3ED007A244B00221A8000F0B3BD1E4B1B681846FCF7CDFC04460A
:203C80000D461C4B1B681846FCF7C6FC02460B4643EC102B2AF0DCFE53EC102B204629468E
:203CA000FCF75AFB02460B4610461946FDF704F807EE900AF0EEE77A204BF1EE677AC3EDD5
:203CC000007A0E4B00221A8000F087BDAFF300808E23D6E25300F03FAC08002038030020E5
:203CE00004080020B00800203C03002024080020B40800204003002044080020BE08002084
:203D000088080020FC02002094070020D407002020150120AC0700208C080020000300201F
:203D200098070020E40700205CA00020B007002090080020040300209C070020F407002009
:203D4000A54B1B681846FCF767FCA1A3D3E90023FCF7BAFC02460B4614461D469F4B1B68AD
:203D60001846FCF759FC02460B4620462946FCF7D5FD02460B469A4C10461946FCF79CFFA8
:203D800003462360974B00221A8000F026BD964B01221A80944BB3F90030DAB2934B83F8A8
:203DA0001026914BB3F90030002B0FD1904B4FF000021A608E4B4FF000025A608C4B4FF08A
:203DC0007E529A608A4B4FF00002DA60864BB3F90030012B0FD1874B1B68854A1360854BA9
:203DE0005B68834A5360834B9B68814A9360814BDB687F4AD3607C4BB3F90030022B0FD136
:203E00007D4B1B687A4A13607B4B5B68784A5360794B9B68764A9360774BDB68744AD360B2
:203E2000714BB3F90030032B0FD1744B1B68704A1360724B5B686E4A5360704B9B686C4A0E
:203E400093606E4BDB686A4AD360664B00221A8000F0C3BC6A4B1B681846FCF7DDFB044605
:203E60000D46684B1B681846FCF7D6FB02460B4643EC102B2AF0ECFD53EC102B2046294642
:203E8000FCF76AFA02460B4610461946FCF714FF07EE900AF0EEE77A5B4BF1EE677AC3ED93
:203EA000007A504B00221A8000F097BC574B01221A80564BB3F90030DAB24C4B83F811263D
:203EC000524BB3F90030002B0FD1514B4FF000021A604F4B4FF000025A604D4B4FF07E52CB
:203EE0009A604B4B4FF00002DA60484BB3F90030012B0FD13F4B1B68454A13603D4B5B68E2
:203F0000434A53603B4B9B68414A9360394BDB683F4AD3603D4BB3F90030022B0FD1364BE5
:203F20001B683B4A1360344B5B68394A5360324B9B68374A9360304BDB68354AD360334BAC
:203F4000B3F90030032B0FD12C4B1B68304A13602A4B5B682E4A5360284B9B682C4A93604E
:203F6000264BDB682A4AD3601E4B00221A8000F034BC284B1B681846FCF74EFB04460D46B4
:203F8000254B1B681846FCF747FB02460B4643EC102B2AF05DFD53EC102B20462946FCF7E2
:203FA000DBF902460B4610461946FCF785FE07EE900AF0EEE77A194BF1EE677AC3ED007A4D
:203FC000084B00221A8000F008BC00BFAFF300808E23D6E25300F03F04030020CC8E0020B1
:203FE000B4070020BE080020B808002068020020249000201436050824360508343605088D
:020000040802F0
:20400000AC0800203803002004080020BA08002078360020B00800203C0300202408002012
:204020009E4B01221A809D4BB3F90030DAB29C4B83F81226994BB3F90030002B0FD1994B41
:204040004FF000021A60974B4FF000025A60954B4FF07E529A60934B4FF00002DA608F4BAC
:20406000B3F90030012B0FD18F4B1B688D4A13608D4B5B688B4A53608B4B9B68894A9360EF
:20408000894BDB68874AD360844BB3F90030022B0FD1864B1B68834A1360844B5B68814A5C
:2040A0005360824B9B687F4A9360804BDB687D4AD3607A4BB3F90030032B0FD17C4B1B68C0
:2040C000784A13607A4B5B68764A5360784B9B68744A9360764BDB68724AD360754B002264
:2040E0001A807AE3744B1B681846FCF795FA04460D46724B1B681846FCF78EFA02460B4658
:2041000043EC102B2AF0A4FC53EC102B20462946FCF722F902460B4610461946FCF7CCFD14
:2041200007EE900AF0EEE77A654BF1EE677AC3ED007A604B00221A804FE3624B4FF07E52C2
:204140001A60614B4FF07E521A60604B4FF07E521A605F4B4FF07E521A60564B00221A80EC
:204160003BE35C4B4FF07E521A605B4B4FF07E521A605A4B4FF07E521A604E4B00221A803F
:204180002BE3574B4FF07E521A60564B4FF07E521A60554B4FF07E521A60464B00221A8046
:2041A0001BE3524B4FF07E521A60514B4FF07E521A60504B4FF07E521A603E4B00221A804D
:2041C0000BE34D4B4FF000021A604C4B4FF000021A603B4B4FF000021A60494B4FF0000236
:2041E0001A60484B4FF000021A60474B4FF000021A60304B00221A80EFE23F4B4FF00002D7
:204200001A603E4B4FF000021A602D4B4FF000021A60284B00221A80DFE22E4B4FF07E5235
:204220001A60244B00221A80D7E22B4B4FF07E521A60204B00221A80CFE2284B4FF07E52C7
:204240001A601C4B00221A80C7E2254B4FF07E521A60184B00221A80BFE2224B4FF07E52E3
:204260001A60144B00221A80B7E21F4B4FF07E521A60104B00221A80AFE21C4B4FF07E52FF
:204280001A600C4B00221A80A7E2194B4FF07E521A60084B00221A809FE200BFBC080020E8
:2042A00068020020D45D0020143605082436050834360508BE080020B408002040030020C9
:2042C00044080020B8070020880700208C0700209007002094070020980700209C0700203D
:2042E000A0070020A4070020A8070020AC070020B0070020B4070020040800202408002060
:20430000D4070020E4070020F4070020214B4FF07E521A60204B00221A805EE21F4B4FF077
:2043200000021A601E4B4FF000021A601A4B00221A8052E21B4B4FF000021A601A4B4FF0C3
:2043400000021A60144B00221A8046E2174B4FF000021A60164B4FF000021A600E4B0022EA
:204360001A803AE20D4B4FF000021A600A4B00221A8032E20B4B4FF000021A60064B0022CB
:204380001A802AE2094B4FF000021A60024B00221A8022E2B4070020BE080020040800206E
:2043A000D407002024080020E407002044080020F4070020BC4BBD4A1B681360BC4BBD4A12
:2043C0001B681360BC4BBD4A1B681360BC4BBD4A1B681360BC4B012283F8A326BB4B012248
:2043E0001A700BF079FF05F0D9FFB9494FF0006013F048FA0BF070FFB64B4FF4807219460E
:204400004FF0006013F0A6FA0BF066FF00F0A6FCB14B0F221A80AC4B93F894363B73AA4BB2
:2044200093F895367B73A84B93F89636BB73A64B93F89736FB73A94B0F225A610120FDF714
:2044400051F902F04DFBA64B3A7B1A70A44B7A7B5A70A34BBA7B9A70A14BFA7BDA703A7B6D
:20446000994B83F894267A7B974B83F89526BA7B954B83F89626FA7B934B83F89726994B5B
:204480001B78303B9BB21A465201D21A92001344DB009AB2944B1B78303B9BB21946890010
:2044A0000B4419468800194603460B449B009BB213449AB28D4B1B78303B9BB21946890039
:2044C0000B445B009BB213449AB2894B1B789BB213449BB2303B9BB21AB2864B1A801E23BA
:2044E0003B7130237B716C23BB71A123FB71814BB3F900301B121BB2DBB23B727D4BB3F996
:204500000030DBB27B720AF06DFB6F4B012283F8A32602F0ABFD784B00221A80FDF70AFF58
:20452000FDF77CFFFEF710F9FEF738FCFEF71AFBFEF74AFD714B00221A70714B4FF000023A
:204540001A60704B4FF000021A606F4B4FF000021A606E4B4FF000021A606D4B4FF0000289
:204560001A606C4B4FF000021A606B4B4FF000021A606A4B4FF000021A60694B4FF0000279
:204580001A60684B4FF000021A60674B4FF000021A60664B4FF000021A60654B4FF0000269
:2045A0001A60644B4FF000021A60634B4FF000021A60624B4FF000021A6061494FF000025B
:2045C0004FF00003C1E900235E494FF000024FF00003C1E900235C494FF000024FF00003AD
:2045E000C1E9002359494FF000024FF00003C1E9002357494FF000024FF00003C1E900230C
:2046000054494FF000024FF00003C1E9002352494FF000024FF00003C1E900234F494FF0EB
:2046200000024FF00003C1E900234D494FF000024FF00003C1E900234A494FF000024FF070
:204640000003C1E9002348494FF000024FF00003C1E9002345494FF000024FF00003C1E9EE
:20466000002343494FF000024FF00003C1E9002340494FF000024FF00003C1E900233E49DB
:204680004FF000024FF00003C1E900233B494FF000024FF00003C1E90023FCF7E5FE384B9D
:2046A00009221A60364B6DE09408002058080020980800205C0800209C08002060080020BB
:2046C000A008002064080020680200200CBC0020FF3F00088807002028070020C0100020E0
:2046E0002A07002074080020750800207608002077080020AC080120BE080020943600204E
:204700007C0300207003002074030020780300206C03002060030020640300206803002011
:204720008C0300208003002084030020880300209C030020900300209403002098030020F1
:20474000F85D0020D008012090A10120986D0120A0A10120381D012040910120C87D012043
:2047600038900020B87D012018BB002080A00020980801206036002098A10120105E002069
:2047800000400240174A5A63174B164A9A63164B164ADA63144B01225A640BF09DFD14498A
:2047A000104813F06FF80BF097FD05F0F0FD14E0104B114A1B681360104B114A1B6813607A
:2047C000104B114A1B681360104B114A1B681360104B30221A8000E000BF00BF1037BD4692
:2047E000B0BD00BF00000A08004002404C400240FFFF0D089408002058080020980800201C
:204800005C0800209C08002060080020A008002064080020BE08002080B499B000AFF8600A
:20482000B9607A600023BB6528E0FB681A68BB6D9B0007F160010B44303B1A60FB6804336B
:20484000FB607B68B3F90020BB6D5B0007F160010B4423F8502C7B6802337B60BB68B3F9CA
:204860000020BB6D5B0007F160010B4423F8482CBB680233BB60BB6D0133BB65BB6D032B19
:20488000D3DD0023BB656EE0FB68043BFB607B68023B7B60BB68023BBB604E4B3B65002308
:2048A0007B650023FB651BE0FB6D9B0007F160021344303BD3ED007A97ED147AB4EEE77A2C
:2048C000F1EE10FA09D5FB6D9B0007F160021344303B1B683B65FB6D7B65FB6D0133FB658B
:2048E000FB6D032BE0DDBB6D9B0007F160021344203B3A6D1A607B6D5B0007F16002134481
:2049000033F9482CBB6D5B0007F160010B4423F8382C7B6D5B0007F16002134433F9502CB1
:20492000BB6D5B0007F160010B4423F8402C7B6D9B0007F160021344303B4FF000021A606B
:204940007B6D5B0007F160021344002223F8502C7B6D5B0007F160021344002223F8482C05
:20496000BB6D0133BB65BB6D032B8DDD0023BB6526E0BB6D9B0007F160021344203B1A6861
:20498000FB681A60BB6D5B0007F16002134433F9382CBB681A80BB6D5B0007F16002134485
:2049A00033F9402C7B681A80FB680433FB607B6802337B60BB680233BB60BB6D0133BB650B
:2049C000BB6D032BD5DD00BF00BF6437BD465DF8047B7047000080BF80B400AF384B93ED03
:2049E000007A384BD3ED007A77EE277A354BC3ED007A354B93ED007A344BD3ED007A77EE38
:204A0000277A324BC3ED007A314B93ED007A314BD3ED007A77EE277A2E4BC3ED007A2E4B00
:204A200093ED007A2D4BD3ED007A77EE277A2B4BC3ED007A2A4B93ED007A2A4BD3ED007A06
:204A400077EE277A274BC3ED007A274B93ED007A264BD3ED007A77EE277A244BC3ED007AFE
:204A6000234B93ED007A234BD3ED007A77EE277A204BC3ED007A204B93ED007A1F4BD3EDFC
:204A8000007A77EE277A1D4BC3ED007A1C4B93ED007A1C4BD3ED007A77EE277A184BC3EDE9
:204AA000007A194BD3ED007AB7EE007A77EE877A154BC3ED007A00BFBD465DF8047B704782
:204AC000F0020020F0AE0020F4020020D8080120F8020020A8A10120FC020020208F00207E
:204AE000000300202C7E01200403002090A000201403002004BC002024030020CC080120FE
:204B0000C47D0120FC8E0020F882002080B582B000AF5A4BD3ED007AF5EE407AF1EE10FA74
:204B200003D1564B4FF07E521A60554BD3ED006A524B93ED007A534BC6EE877AC3ED007A99
:204B4000514BD3ED006A4D4B93ED007A4F4BC6EE877AC3ED007A4E4BD3ED006A474B93EDAF
:204B6000007A4C4BC6EE877AC3ED007A4A4BD3ED006A424B93ED007A484BC6EE877AC3ED07
:204B8000007A474BD3ED006A3C4B93ED007A454BC6EE877AC3ED007A434BD3ED006A374BB5
:204BA00093ED007A414BC6EE877AC3ED007A404BD3ED006A314B93ED007A3E4BC6EE877A27
:204BC000C3ED007A3C4BD3ED006A2C4B93ED007A3A4BC6EE877AC3ED007A394B1B68394A9B
:204BE0001360394B1B68394A1360324B93ED007A304BD3ED007A27EE277A304BD3ED006ABE
:204C00002E4BD3ED007A66EEA77A77EE277A17EE900AFBF701FD02460B4643EC102B29F0BB
:204C20008DFF53EC102B10461946FCF745F803467B60D7ED017AF5EE407AF1EE10FA07D0C9
:204C40001C4BD3ED007AF5EE407AF1EE10FA04D11F4B4FF07E521A6009E0164BD3ED006AF1
:204C60001B4B97ED017AC6EE877AC3ED007A00F031F800BF0837BD4680BD00BFF882002040
:204C8000F0AE002004070020D808012008070020A8A101200C070020208F00201007002058
:204CA0002C7E01201407002090A000201807002004BC00201C070020CC0801202007002000
:204CC000FC8E0020D47D0120C4080120C05D00202407002080B400AF164B4FF000021A6044
:204CE000154B4FF000021A60144B4FF000021A60134B4FF000021A60124B4FF000021A604E
:204D0000114B4FF000021A60104B4FF000021A600F4B4FF000021A600E4B4FF000021A603D
:204D20000D4B4FF000021A6000BFBD465DF8047B704700BFF0AE0020D8080120A8A101202B
:204D4000208F00202C7E012090A0002004BC0020CC080120C47D0120F882002080B500AFB4
:204D6000174B4FF000021A60164B4FF000021A60154B4FF000021A60144B4FF000021A60C5
:204D8000134B4FF000021A60124B4FF000021A60114B4FF000021A60104B4FF000021A60B5
:204DA0000F4B4FF000021A600E4B4FF000021A600D4B4FF000021A60FFF78CFF00BF80BD3A
:204DC00004070020080700200C0700201007002014070020180700201C070020200700200B
:204DE000D47D012024070020F882002080B582B000AF0F4B00221A7000237B6007E00D4A04
:204E00007B68FF2142F823107B6801337B607B680B2BF4DD4FF48031002005F0CDFA4FF433
:204E20008031002005F028FB00BF0837BD4680BD449000202C8F002080B58AB000AF87EDEA
:204E4000010A38600023FB830023BB8300237B8300233B830023FB820023BB8200237B828B
:204E600000233B820023FB84D7ED017AF5EEC07AF1EE10FA05D5D7ED017AF1EE677AC7EDDE
:204E8000017A7868FBF7C8FBE3A3D3E90023FBF7ABFE0346002B0ED07868FBF7BDFBC0A3C3
:204EA000D3E90023FBF78CFE0346002B03D0CA4B3B620123FB84D7ED017AB7EE007AF4EEBB
:204EC000C77AF1EE10FA0EDB7868FBF7A5FBB4A3D3E90023FBF774FE0346002B03D0BE4B63
:204EE0003B620123FB84D7ED017AB2EE047AF4EEC77AF1EE10FA0EDB7868FBF78DFBAAA379
:204F0000D3E90023FBF75CFE0346002B03D0B34B3B620223FB84D7ED017A9FEDB17AF4EE08
:204F2000C77AF1EE10FA0EDB7868FBF775FBA0A3D3E90023FBF744FE0346002B03D0A94B8B
:204F40003B620323FB84D7ED017A9FEDA77AF4EEC77AF1EE10FA0FDB7868FBF75DFB96A3CA
:204F6000D3E90023FBF72CFE0346002B04D04FF07E533B620423FB84D7ED017A9FED9B7ABB
:204F8000F4EEC77AF1EE10FA0EDB7868FBF744FB8BA3D3E90023FBF713FE0346002B03D0B4
:204FA000934B3B620523FB84D7ED017A9FED917AF4EEC77AF1EE10FA0EDB7868FBF72CFB0B
:204FC00081A3D3E90023FBF7FBFD0346002B03D0894B3B620623FB84D7ED017A9FED877AB8
:204FE000F4EEC77AF1EE10FA0EDB7868FBF714FB77A3D3E90023FBF7E3FD0346002B03D0C9
:205000007F4B3B620723FB84D7ED017A9FED7D7AF4EEC77AF1EE10FA03DD7B4B3B6200234C
:20502000FB8497ED087AD7ED017A67EE277AFCEEE77A17EE903AFB60FB68744AA2FB03235D
:205040009B09FB83B7F91E304FF47A7202FB03F31A46FB689B1A6E4AA2FB03235B09BB8379
:20506000B7F91E304FF47A7202FB03F31A46FB689B1AB7F91C20642101FB02F29B1A654AD3
:20508000A2FB0323DB087B83FB689AB2FB8B19464901C91A89000B44DB009BB2D31A9AB272
:2050A000BB8B194689000B4419468800194603460B449B009BB2D31A9AB27B8B1946890086
:2050C0000B445B009BB2D31A9BB23B83D7ED017A9FED467A27EE877AD7ED087A27EE277A44
:2050E000FB6807EE903AF8EE677ADFED406A67EEA67A77EE677AFCEEE77A17EE903AFB6021
:20510000FB68424AA2FB03239B09FB82B7F916304FF47A7202FB03F31A46FB689B1A3C4AA6
:20512000A2FB03235B09BB82B7F916304FF47A7202FB03F31A46FB689B1AB7F91420642112
:2051400001FB02F29B1A334AA2FB0323DB087B82FB689AB2FB8A19464901C91A89000B44F2
:20516000DB009BB2D31A9AB2BB8A194689000B4419468800194603460B449B009BB2D31A9F
:205180009AB27B8A194689000B445B009BB2D31A9BB23B82B7F92630002B40F089803FE05F
:2051A000AD01A5FCFFFF23401842CEFBFFFF58409ED2C1FAFF3F8F40A323B9FCFF87C3404A
:2051C0008B6CE7FBFF69F840AE47E1FA7F842E41CDCCCCFCCF12634100007A440000C84266
:2051E0000000C8420000204100007A4400401C46CDCCCC3D0050C3470AD7233C00247449C7
:205200006F12833A8096184B17B7D138D34D62101F85EB51CDCCCCCC48AFBC9AF2D77A3E8F
:20522000FB8BDBB23033DAB23B681A703B6801333B60BB8BDBB23033DAB23B681A703B683B
:2052400001333B607B8BDBB23033DAB23B681A703B6801333B603B8BDBB23033DAB23B6879
:205260001A703B6801333B60FB8ADBB23033DAB23B681A703B6801333B60BB8ADBB230335D
:20528000DAB23B681A703B6801333B607B8ADBB23033DAB23B681A703B6801333B603B8AFE
:2052A000DBB23033DAB23B681A703B6801333B60B7F92630012B4DD1FB8BDBB23033DAB281
:2052C0003B681A703B6801333B603B682E221A703B6801333B60BB8BDBB23033DAB23B68DB
:2052E0001A703B6801333B607B8BDBB23033DAB23B681A703B6801333B603B8BDBB23033DB
:20530000DAB23B681A703B6801333B60FB8ADBB23033DAB23B681A703B6801333B60BB8A7D
:20532000DBB23033DAB23B681A703B6801333B607B8ADBB23033DAB23B681A703B680133CD
:205340003B603B8ADBB23033DAB23B681A703B6801333B60B7F92630022B4DD1FB8BDBB26E
:205360003033DAB23B681A703B6801333B60BB8BDBB23033DAB23B681A703B6801333B603E
:205380003B682E221A703B6801333B607B8BDBB23033DAB23B681A703B6801333B603B8B37
:2053A000DBB23033DAB23B681A703B6801333B60FB8ADBB23033DAB23B681A703B680133CD
:2053C0003B60BB8ADBB23033DAB23B681A703B6801333B607B8ADBB23033DAB23B681A7024
:2053E0003B6801333B603B8ADBB23033DAB23B681A703B6801333B60B7F92630032B4DD109
:20540000FB8BDBB23033DAB23B681A703B6801333B60BB8BDBB23033DAB23B681A703B6859
:2054200001333B607B8BDBB23033DAB23B681A703B6801333B603B682E221A703B68013328
:205440003B603B8BDBB23033DAB23B681A703B6801333B60FB8ADBB23033DAB23B681A70A2
:205460003B6801333B60BB8ADBB23033DAB23B681A703B6801333B607B8ADBB23033DAB2D9
:205480003B681A703B6801333B603B8ADBB23033DAB23B681A703B6801333B60B7F9263087
:2054A000042B4DD1FB8BDBB23033DAB23B681A703B6801333B60BB8BDBB23033DAB23B6899
:2054C0001A703B6801333B607B8BDBB23033DAB23B681A703B6801333B603B8BDBB23033F9
:2054E000DAB23B681A703B6801333B603B682E221A703B6801333B60FB8ADBB23033DAB291
:205500003B681A703B6801333B60BB8ADBB23033DAB23B681A703B6801333B607B8ADBB2FA
:205520003033DAB23B681A703B6801333B603B8ADBB23033DAB23B681A703B6801333B60FD
:20554000B7F92630052B4DD1FB8BDBB23033DAB23B681A703B6801333B60BB8BDBB2303320
:20556000DAB23B681A703B6801333B607B8BDBB23033DAB23B681A703B6801333B603B8B19
:20558000DBB23033DAB23B681A703B6801333B60FB8ADBB23033DAB23B681A703B680133EB
:2055A0003B603B682E221A703B6801333B60BB8ADBB23033DAB23B681A703B6801333B6001
:2055C0007B8ADBB23033DAB23B681A703B6801333B603B8ADBB23033DAB23B681A703B689A
:2055E00001333B60B7F92630062B4DD1FB8BDBB23033DAB23B681A703B6801333B60BB8BA0
:20560000DBB23033DAB23B681A703B6801333B607B8BDBB23033DAB23B681A703B680133E9
:205620003B603B8BDBB23033DAB23B681A703B6801333B60FB8ADBB23033DAB23B681A70C0
:205640003B6801333B60BB8ADBB23033DAB23B681A703B6801333B603B682E221A703B6858
:2056600001333B607B8ADBB23033DAB23B681A703B6801333B603B8ADBB23033DAB23B6857
:205680001A703B6801333B60B7F92630072B4DD1FB8BDBB23033DAB23B681A703B680133B2
:2056A0003B60BB8BDBB23033DAB23B681A703B6801333B607B8BDBB23033DAB23B681A703F
:2056C0003B6801333B603B8BDBB23033DAB23B681A703B6801333B60FB8ADBB23033DAB276
:2056E0003B681A703B6801333B60BB8ADBB23033DAB23B681A703B6801333B607B8ADBB219
:205700003033DAB23B681A703B6801333B603B682E221A703B6801333B603B8ADBB2303357
:20572000DAB23B681A703B6801333B6000BF2837BD4680BD0000000080B588B000AF87ED50
:20574000030AB86079603A6000237B8300233B830023FB820023BB820123FB830023BB83AC
:205760007B6800221A60D7ED037AF5EEC07AF1EE10FA09D53B6801221A60D7ED037AF1EE25
:20578000677AC7ED037A02E03B6800221A60D7ED037A9FED2B7AF4EEC77AF1EE10FA0ADD71
:2057A00097ED037ADFED266AC7EE267AC7ED037A7B6801221A60234B00221A70D7ED037A2B
:2057C0009FED217AF4EEC77AF1EE10FA18DBBB682D221A70BB680133BB60BB682D221A7039
:2057E000BB680133BB60BB682D221A70BB680133BB60BB682D221A70124B01221A7072E170
:20580000D7ED037AB7EE007AF4EEC77AF1EE10FA1CDDF868FAF700FF07A3D3E90023FBF758
:20582000CFF90346002B1FD04FF47A73FB830123BB8319E0AFF30080736891ED7CFF2340DB
:2058400000007A446A7E012000401C460123BB83D7ED037AB7EE007AF4EEC77AF1EE10FA11
:2058600002D84FF47A73FB83D7ED037AB2EE047AF4EEC77AF1EE10FA0EDDF868FAF7CCFE2F
:20588000A4A3D3E90023FBF79BF90346002B03D06423FB830223BB83D7ED037A9FED967AD0
:2058A000F4EEC77AF1EE10FA0EDDF868FAF7B4FE8FA3D3E90023FBF783F90346002B03D028
:2058C0000A23FB830323BB83D7ED037A9FED8B7AF4EEC77AF1EE10FA0CDDD7ED037A9FED25
:2058E000887AF4EEC77AF1EE10FA03D80123FB830023BB83FB8B07EE903AB8EEE77AD7EDAC
:20590000037A67EE277AFCEEE77A17EE903A7B827B8A7C4AA2FB03239B097B837A8A7B8BC3
:20592000794901FB03F31344784A82FB03125211DB17D31A3B837A8A7B8B734901FB03F350
:205940001A443B8B6FF0630101FB03F31344704A82FB03129210DB17D31AFB827B8B1A4667
:205960009201D21A92011A4452001344DB009AB23B8B19464902C91A89001944C900CB1A00
:205980009B009BB213449AB27B8A13449AB2FB8A19464903C91A8900CB1A5B009BB2134454
:2059A000BB82BB8B002B20D17B8BDBB23033DAB2BB681A70BB680133BB603B8BDBB23033F1
:2059C000DAB2BB681A70BB680133BB60FB8ADBB23033DAB2BB681A70BB680133BB60BB8AB7
:2059E000DBB23033DAB2BB681A70BB8B012B26D17B8BDBB23033DAB2BB681A70BB6801338F
:205A0000BB60BB682E221A70BB680133BB603B8BDBB23033DAB2BB681A70BB680133BB609B
:205A2000FB8ADBB23033DAB2BB681A70BB680133BB60BB8ADBB23033DAB2BB681A70BB8B92
:205A4000022B26D17B8BDBB23033DAB2BB681A70BB680133BB603B8BDBB23033DAB2BB681C
:205A60001A70BB680133BB60BB682E221A70BB680133BB60FB8ADBB23033DAB2BB681A700D
:205A8000BB680133BB60BB8ADBB23033DAB2BB681A70BB8B032B26D17B8BDBB23033DAB239
:205AA000BB681A70BB680133BB603B8BDBB23033DAB2BB681A70BB680133BB60FB8ADBB254
:205AC0003033DAB2BB681A70BB680133BB60BB682E221A70BB680133BB60BB8ADBB2303314
:205AE000DAB2BB681A702037BD4680BDAFF3008033333333333F8F400000C84200007A44DF
:205B0000003C1C46D34D621018FCFFFF1F85EB51676666668FC2F5285CFF584080B500AF85
:205B2000044B1B78012B03D102F03CFA0AF0E4FB00BF80BD6151002080B400AF012318464F
:205B4000BD465DF8047B704780B586B000AFF860B9607A60FB687B61BB683B617A68796990
:205B6000386927F05BFE00BF1837BD4680BD80B586B000AFF860B9601346FB80FB687B6128
:205B8000BB683B61B7F906301A467969386927F045FE00BF1837BD4680BD80B586B000AFBB
:205BA000F860B9607A60FB687B61BB683B617A687969386927F032FE00BF1837BD4680BDA2
:205BC00080B500AFB94B4FF400721A80B84B02221A70B84B4FF400721A80B74B4FF40072D4
:205BE0001A80B64B4FF400721A80B54B4FF400721A80B44B4FF400721A80B34B4FF07E5211
:205C00001A60B24B4FF07E521A60B14B4FF07E521A60B04B4FF07E521A60AF4B4FF07E5272
:205C20001A60AE4B4FF07E521A60AD4B4FF07E521A60AC4B4FF07E521A60AB4B4FF07E5262
:205C40001A60AA4B4FF07E521A60A94B4FF07E521A60A84B4FF07E521A60A74B4FF07E5252
:205C60001A60A64B4FF07E521A60A54B4FF07E521A60A44B4FF07E521A60A34BA34A1A60EA
:205C8000A34BA24A1A60A34BA04A1A60A24B4FF000021A60A14B4FF000021A60A04B4FF0E5
:205CA00000021A609F4B4FF000021A609E4B4FF000021A609D4B4FF000021A609C4B002273
:205CC00083F8A3269B4B00221A70994B012283F8A726994B1B78012B18D1954B312283F865
:205CE0000826964B32221A70954B33221A70954B34221A70944B35221A70944B36221A70B7
:205D0000934B37221A70934B38221A70924B00221A70FCF727FFFDF741F8FCF715FDFCF739
:205D200009FBFCF77BFB8D4B00221A70FDF74CF98B4B4FF000021A608A4B4FF000021A6018
:205D4000894B4FF000021A60884B4FF000021A60874B4FF000021A60864B4FF000021A600D
:205D6000854B4FF000021A60844B4FF000021A60834B4FF000021A60824B4FF000021A60FD
:205D8000814B4FF000021A60804B4FF000021A607F4B4FF000021A607E4B4FF000021A60ED
:205DA0007D4B4FF000021A607C4B4FF000021A607B494FF000024FF00003C1E90023794908
:205DC0004FF000024FF00003C1E9002376494FF000024FF00003C1E9002374494FF0000266
:205DE0004FF00003C1E9002371494FF000024FF00003C1E900236F494FF000024FF000034F
:205E0000C1E900236C494FF000024FF00003C1E900236A494FF000024FF00003C1E90023AD
:205E200067494FF000024FF00003C1E9002365494FF000024FF00003C1E9002362494FF07A
:205E400000024FF00003C1E9002360494FF000024FF00003C1E900235D494FF000024FF012
:205E60000003C1E900235B494FF000024FF00003C1E9002358494FF000024FF00003C1E990
:205E8000002356494FF000024FF00003C1E90023534B4FF07E521A60524B4FF000021A6071
:205EA000514B4FF07E521A60A0E000BFBC07002054360020BE070020C0070020C20700203C
:205EC000C4070020C6070020880700208C0700209007002094070020980700209C07002094
:205EE000A0070020A4070020A8070020AC070020B0070020B4070020B8070020EC7A002057
:205F0000607E012024BB0020409000200000A040680800206C080020D4070020E407002089
:205F2000F4070020040800202408002044080020680200200CBC0020683600207108002099
:205F4000720800207308002074080020750800207608002077080020644D012094360020DA
:205F60007C0300207003002074030020780300206C03002060030020640300206803002099
:205F80008C0300208003002084030020880300209C03002090030020940300209803002079
:205FA000A0A10120381D012040910120C87D0120F85D0020D008012090A10120986D0120CB
:205FC00038900020B87D012018BB002080A00020980801206036002098A10120105E0020F1
:205FE000580800205C08002060080020024B4FF000021A6000BF80BD6408002080B586B01A
:020000040802F0
:2060000000AF0B4B0A221A700A4B1B78012B03D1094B002283F8A326074B93F8A336002B42
:206020000CD1054B012283F8A326FFF7C9FDCFE154360020683600206802002011F0E4FB8E
:20604000904B1B687B61904A7B691B6813607B6904337B618D4A7B691B6813607B6904338F
:206060007B618B4A7B691B6813607B6904337B61884A7B691B6813607B6904337B61864A2B
:206080007B691B6813607B6904337B61834A7B691B6813607B6904337B61814A7B691B685F
:2060A00013607B6904337B617E4A7B691B6813607B6904337B617C4A7B691B6813607B6959
:2060C00004337B61794A7B691B6813607B6904337B61774A7B691B6813607B6904337B6187
:2060E000744A7B691B6813607B6904337B61724A7B691B6813607B6904337B617B693B6104
:206100006E4A3B69B3F9003013803B6902333B616B4A3B69B3F9003013803B6902333B6102
:20612000684A3B69B3F9003013803B6902333B61654A3B69B3F9003013803B6902333B61EE
:20614000624A3B69B3F9003013803B6902333B615F4A3B69B3F9003013803B6902333B61DA
:206160003B697B617B6904337B617B6904337B617B6904337B61574A7B691B6813607B695B
:2061800004337B617B6904337B617B6904337B617B6904337B61504A7B691B6813607B69AF
:2061A00004337B617B6904337B617B6904337B617B6904337B61494A7B691B6813607B6996
:2061C00004337B617B6904337B617B6904337B617B6904337B61424A7B691B6813607B697D
:2061E00004337B617B6904337B617B6904337B617B6904337B617B6904337B617B69043395
:206200007B617B6904337B617B6904337B61354A7B691B6813607B6904337B617B69043349
:206220007B617B6904337B617B6904337B617B6904337B617B6904337B617B6904337B61AF
:206240007B6904337B61284A7B691B6813607B6904337B617B6904337B617B6904337B6116
:206260007B6904337B617B6904337B611F4A7B691B6813607B6904337B611D4A7B691B6828
:2062800038E000BF74360020880700208C0700209007002094070020980700209C07002007
:2062A000A0070020A4070020A8070020AC070020B0070020B4070020B8070020BC07002036
:2062C000BE070020C0070020C2070020C4070020C6070020D4070020E4070020F407002010
:2062E000040800202408002044080020580800205C08002013607B6904337B61594A7B69C5
:206300001B6813607B6904337B61574A7B691B6813607B6904337B61544A7B691B681360A6
:206320007B6904337B61524A7B691B6813607B6904337B614F4B1B68E833FB60FB685A1C8D
:20634000FA601A784C4B83F80826FB685A1CFA604A4A1B781370FB685A1CFA60484A1B78DC
:206360001370FB685A1CFA60464A1B781370FB685A1CFA60444A1B781370FB685A1CFA60B7
:20638000424A1B781370FB685A1CFA60404A1B781370FB685A1CFA603E4A1B781370354B37
:2063A0001B68F033FB60FB685A1CFA601A78324B83F81026FB685A1CFA601A782E4B83F830
:2063C0001126FB685A1CFA601A782B4B83F8122600F064F82C4B1B78303B9BB21A465201D7
:2063E000D21A92001344DB009AB2284B1B78303B9BB2194689000B4419468800194603461D
:206400000B449B009BB213449AB2214B1B78303B9BB2194689000B445B009BB213449AB269
:206420001C4B1B789BB213449BB2303B9BB21AB2194B1A801E233B7130237B716C23BB7108
:20644000A123FB71144BB3F900301B121BB2DBB23B72114BB3F90030DBB27B7200BF1837DD
:20646000BD4680BD6008002064080020680800206C080020743600206802002071080020B7
:20648000720800207308002074080020750800207608002077080020AC08012080B483B015
:2064A00000AFA14BD3ED007AB7EE007AF4EEC77AF1EE10FA03DD9C4B4FF000021A609B4B74
:2064C000D3ED007AB7EE007AF4EEC77AF1EE10FA03DD964B4FF000021A60954BD3ED007AC1
:2064E000B7EE007AF4EEC77AF1EE10FA03DD904B4FF000021A608F4BD3ED007AB1EE007ACE
:20650000F4EEC77AF1EE10FA03DD8A4B4FF000021A60894BD3ED007AB1EE007AF4EEC77AB5
:20652000F1EE10FA03DD844B4FF000021A60834BD3ED007AB1EE007AF4EEC77AF1EE10FADB
:2065400003DD7E4B4FF000021A60774BD3ED007AFDEEE77A17EE903A1BB21A46784B53F885
:2065600022307B60774A7B681B6813607B6804337B60754A7B681B6813607B6804337B60D2
:20658000724A7B681B6813607B6804337B60674BD3ED007AFDEEE77A17EE903A1BB21A463D
:2065A000674B53F822307B60694A7B681B6813607B6804337B60674A7B681B6813607B68C3
:2065C00004337B60644A7B681B6813607B6804337B60574BD3ED007AFDEEE77A17EE903A36
:2065E0001BB21A46564B53F822307B605B4A7B681B6813607B6804337B60594A7B681B68D9
:2066000013607B6804337B60564A7B681B6813607B6804337B60474BD3ED007AFDEEE77A8C
:2066200017EE903A1BB21A464F4B53F822307B604E4A7B681B6813607B6804337B604C4A50
:206640007B681B6813607B6804337B60494A7B681B6813607B6804337B607B6804337B6016
:20666000454A7B681B6813607B6804337B60434A7B681B6813607B6804337B60404A7B68F5
:206680001B6813607B6804337B603E4A7B681B6813607B6804337B60274BD3ED007AFDEE22
:2066A000E77A17EE903A1BB21A462F4B53F822307B60354A7B681B6813607B6804337B603E
:2066C000324A7B681B6813607B6804337B60304A7B681B6813607B6804337B607B6804330E
:2066E0007B602C4A7B681B6813607B6804337B60294A7B681B6813607B6804337B60274AC9
:206700007B681B6813607B6804337B60244A7B681B6813607B6804337B60084BD3ED007AE2
:20672000FDEEE77A3EE000BFEC7A0020607E012024BB002040900020680800206C08002098
:2067400064100020C8070020CC070020D0070020D8070020DC070020E0070020E8070020B4
:20676000EC070020F00700206C100020F8070020FC07002000080020080800200C08002085
:206780001008002014080020180800201C08002020080020280800202C08002030080020BD
:2067A0003408002017EE903A1BB21A461E4B53F822307B601D4A7B681B6813607B68043346
:2067C0007B601B4A7B681B6813607B6804337B60184A7B681B6813607B6804337B607B6898
:2067E00004337B60144A7B681B6813607B6804337B60124A7B681B6813607B6804337B6031
:206800000F4A7B681B6813607B6804337B600D4A7B681B6813607B6804337B6000BF0C372A
:20682000BD465DF8047B70476C100020380800203C08002040080020480800204C0800201E
:20684000500800205408002090B589B000AF00237B610123FB7400233B8394E07F4BFB610A
:2068600009F03AFDB7F918301B021A46FB691344FB61FB691B78FB76FB690133FB61FB699C
:206880001B78BB74FB69013BFB61FB691B78BB7617E0FB691B78FB76FB690133FB61FB695B
:2068A0001B78BB74FB69013BFB61FB691B78BB7609F012FD7B6901337B617B69684A93428B
:2068C00004D0FA7EBB7E9A42E3D100E000BF7B69634A934216D109F0FFFC6249624810F06E
:2068E000D1FF09F0F9FC6149614810F0CBFF614B6FF009021A60FAF779FD00F0F1F801F0FC
:20690000C9FCA0E0FB7EFF2B29D1B7F91830002B18D10123FB74584B1B78002B2DD109F09E
